:020000040800F2
:100000002834002069020008710200087302000809
:10001000750200087702000879020008000000005D
:100020000000000000000000000000007B0200084B
:100030007D020008000000007F020008013900086E
:10004000830200088302000883020008830200087C
:10005000830200088302000883020008830200086C
:100060008302000883020008E91F000883020008D9
:10007000830200088302000883020008830200084C
:1000800083020008830200088302000800000000C9
:1000900000000000000000000000000083020008D3
:1000A000830200088302000883020008830200081C
:1000B000830200088302000883020008830200080C
:1000C00083020008830200088302000883020008FC
:1000D0008302000883020008830200080000000079
:1000E0008302000883020008830200080000000069
:1000F0000000000000000000000000008302000873
:100100000000000083020008830200088302000848
:1001100000000000000000000000000000000000DF
:10012000830200088302000883020008830200089B
:100130008302000800000000000000000000000032
:100140000000000000000000000000008302000822
:10015000830200088302000883020008830200086B
:100160008302000883020008000000000000000075
:10017000000000000000000000000000000000007F
:1001800000000000830200080000000000000000E2
:100190008302000800F002F800F057F80AA090E887
:1001A000000C82448344AAF10107DA4501D100F032
:1001B0004CF8AFF2090EBAE80F0013F0010F18BFA8
:1001C000FB1A43F001031847A8AD0000C8AD0000BA
:1001D000103A24BF78C878C1FAD8520724BF30C873
:1001E00030C144BF04680C60704700000023002445
:1001F00000250026103A28BF78C1FBD8520728BF37
:1002000030C148BF0B60704766290AF03686642902
:1002100000F01A81782900F05381002070471FB543
:100220000AF026FE9DE8030001F0E8F800F080FDEA
:100230000400002000210AF0F3FCE06000F090FED2
:100240001FBD10B500F0F5FE10BD00F05DFF1146BA
:10025000FFF7E5FF0AF032FB01F062F803B4FFF7A5
:10026000F0FF03BC01F05CFA0948804709480047E9
:10027000FEE7FEE7FEE7FEE7FEE7FEE7FEE7FEE756
:10028000FEE7FEE704480549054A064B70470000B3
:10029000B139000895010008282E002028340020DC
:1002A000283000202830002053EA020C00F069803A
:1002B0002DE9F04B4FF00006002B1FBFB3FA83F57A
:1002C00003FA05F424FA05F65E4012BF1643B2FAAB
:1002D00082F502FA05F4C5F120051EBF22FA05FCDD
:1002E00044EA0C04203556EA044C4FEA144418BF83
:1002F000641C4FF000084FF00009904271EB030CB2
:1003000039D3002919BFB1FA81F701FA07F6B0FA1B
:1003100080F700FA07F6C7F120071EBF20FA07FC96
:1003200046EA0C062037B6FBF4FCA7EB0507103FA6
:1003300007F01F0BCBF120060CFA0BFB2CFA06F68C
:1003400044BFB3460026202FA4BF5E464FF0000BEB
:100350005BEA060C08BF4FF0010B19EB0B09ABFB76
:10036000027C48EB0608C01B06FB02CC0BFB03CC4F
:1003700071EB0C01C1E70B46024641464846BDE819
:10038000F08B13B54FF000004FF00001AFF3008089
:10039000BDE81C40704710B54C1084EA530404D5E6
:1003A0004042C1F1000138BF491E1B4204D55242F0
:1003B000C3F1000338BF5B1EFFF776FF14F0804FD8
:1003C00004D04042C1F1000138BF491E14F0004F73
:1003D00004D05242C3F1000338BF5B1E10BD0000C1
:1003E0000FB4044910B503AA029800F06DFC10BCCC
:1003F0005DF814FB202D002070B504468569006867
:10040000C10601D5302600E02026C00707D070BD08
:10041000D4E9012130469047206A401C20626D1EBD
:10042000F6D570BD70B5044685690078C00707D160
:1004300070BDD4E9012120209047206A401C206231
:100440006D1EF6D570BD00002DE9F0410646002472
:1004500010687529314616A510D0AFF3008000282A
:1004600002DA404213A507E031688A0701D512A5D8
:1004700002E0490704D511A5012401E0AFF3008093
:1004800000210A2206F1240709E0B0FBF2FCB0FBD0
:10049000F2F302FB1C00303078541846491C002847
:1004A000F3D123462A463046BDE8F04100F0A4B916
:1004B000000000002D0000002B00000020000000C4
:1004C00070B504460D4621461068AFF300802188C0
:1004D000090502D50F4A7A4402E00E4A7A440E32E8
:1004E000002104F1240305E000F00F060009965DE9
:1004F0005E54491C0028F7D120780023000704D55A
:10050000702D02D009B1022311322046BDE870409F
:1005100000F072B9BCA900002DE9F05F89460446DD
:100520004FF0000ADFF824B1FB44C0F820A02046B9
:10053000E168884700287DD0252806D0D4E901212C
:100540009047206A401C2062F1E700255F46204664
:10055000E16888472028064607DB312E05D2B81906
:1005600010F8200C08B10543F1E7A80701D525F0E4
:100570000405C4F81CA00027C4F818A02A2E09D02E
:1005800030460AF087F938B304EB8708303EC8F8E4
:10059000186019E059F8041B204604EB87029161AA
:1005A000E1688847012F064618D1E069002820DA63
:1005B00025F020051DE0D8F8180000EB800006EBC0
:1005C00040003038C8F818002046E16888470646E1
:1005D0000AF060F90028EED1012F0AD02E2E08D1A2
:1005E0002046E16888477F1C0646022F45F020051B
:1005F000C4DBA069002803DA404245F00105A06190
:10060000E80701D025F01005A6B1A6F14100192890
:1006100002D8203645F400654A463146204625601A
:100620004D46FFF7F1FD60B1012807D0ED1D25F023
:10063000070000E007E000F1080978E705F1040988
:1006400075E730467AE7206ABDE8F09F92A900007E
:10065000032A40F2308010F0030C00F0158011F8EE
:10066000013BBCF1020F624498BF11F801CB00F8C6
:10067000013B38BF11F8013BA2F1040298BF00F81A
:1006800001CB38BF00F8013B11F0030300F02580D7
:10069000083AC0F0088051F8043B083A51F804CBFE
:1006A000A0E80810F5E7121D5CBF51F8043B40F8C4
:1006B000043BAFF30080D20724BF11F8013B11F8CF
:1006C00001CB48BF11F8012B24BF00F8013B00F813
:1006D00001CB48BF00F8012B704710B5203AC0F09D
:1006E0000B80B1E81850203AA0E81850B1E8185033
:1006F000A0E81850BFF4F5AF5FEA027C24BFB1E870
:100700001850A0E8185044BF18C918C0BDE81040E0
:100710005FEA827C24BF51F8043B40F8043B08BFE9
:100720007047D20728BF31F8023B48BF11F8012BB0
:1007300028BF20F8023B48BF00F8012B704702F0A9
:10074000FF0343EA032242EA024200F0D1BA4FF02B
:10075000000200B5134694469646203922BFA0E811
:100760000C50A0E80C50B1F12001BFF4F7AF09071D
:1007700028BFA0E80C5048BF0CC05DF804EB89000E
:1007800028BF40F8042B08BF704748BF20F8022B51
:1007900011F0804F18BF00F8012B704710B50446C8
:1007A00010F0030F08BF11F0030F40F015804FF059
:1007B000013E121FC0F20E8051F8043BA3EB0E0C59
:1007C0002CEA030C1CEACE1C08BF40F8043BF0D016
:1007D000A1F1040102F10402521E08DB11F8013BF1
:1007E000002B00F8013BF7D1114600F07FFA2046BC
:1007F00010BD7047704770472DE9F0470D46994688
:100800009246044600F124080168880604D5E06990
:1008100021F01001216000E00120A84201DD471B0A
:1008200000E00027A1697A1902EB0900081AA0610B
:100830002078C00602D42046FFF7DEFD002608E03F
:10084000D4E901211AF806009047206A401C761C62
:1008500020624E45F4DB2078C0060AD52046FFF71B
:10086000CBFD06E0D4E9012130209047206A401CEE
:100870002062381EA7F10107F4DC07E0D4E901216A
:1008800018F805009047206A401C2062281EA5F138
:100890000105F3DC2046FFF7C5FD2078000602D5F0
:1008A0000220BDE8F0870120FBE770472DE9FF4FEC
:1008B0000C461E464FF0FF378BB0D2E90001DDF841
:1008C00060800A908A46C1F30A5505B93D46002169
:1008D00008464FF00000BAF1000F00F4400005DABE
:1008E00000EB80004FF4400101EA50004FEA9059BC
:1008F000B9F1010F00DDB9460A9850EA4A000ED05E
:1009000044F61050A5F2FF3545432F14B8F1000FFF
:100910001ED07542291E1EDDC9F100021CE0B8F18F
:10092000010F4FF0000001D0302103E0F24305E059
:100930002154401CB042FBDB3046002200212154F0
:100940000B99C1F80880C1E900200FB0BDE8F08F15
:10095000BD1B6D1CDEE74A4600DA694206A800F0BE
:1009600089FA06AB93E8070003AB83E8070050461B
:100970000A9900F071FF8DE80700A0F500501F38BC
:1009800000900398002D0ADD42F21F014A460844F8
:10099000002303A90390684601F0DAF909E0A0F505
:1009A00000504A461F38002303A90390684601F00F
:1009B000E4F98DE807000004000C03D04FF0FF308D
:1009C000410800E01046B8F1000F03D00022009269
:1009D00015461EE0751E05D400F0AEF930326255A2
:1009E0006D1EF9D5B3460122084302D000227F1CB8
:1009F00004E02078302801D100227F1E002A0997C8
:100A000084D01DE0112D07DA00F096F930326255DE
:100A10006D1C50EA0102F5D1084302D00098C8B11C
:100A20000EE00021681E05E0235C625C63542254E2
:100A3000401E491C8142F7DBAB46A81B401E0990B3
:100A4000002004F80B000B98099AC0F80880C0E950
:100A5000002B7AE711264FF0000857E72DE9F04FF9
:100A600088460446D21D22F0070191B0D1E9000169
:100A7000CDE90A0109F0F6FE02460B98C00F01D03D
:100A80002D2007E02068810701D52B2002E02021DE
:100A900001EAC000032A099001D0072A05DB0346BA
:100AA0004146204600F0A6F90BE12078800601D5EA
:100AB000E06900E00620B8F1650F814606D0B8F184
:100AC000660F18D0B8F1670F70D131E00020B9F18E
:100AD000110F009001DB112301E009F101030AAAC3
:100AE00001A90CA8FFF7E2FEDDE90C70002609F170
:100AF0000105834647E001204B4600904FF0004738
:100B00000AAA01A90CA8FFF7D1FEDDE90DB00C99E6
:100B10005D46002610B909F101000D18B9EB05007A
:100B200003D4C0F1FF3609F10105A5EB09002BE064
:100B3000B9F1010F01DA4FF001090020B9F1110FED
:100B40000090484601DD112300E003460AAA01A9EE
:100B50000CA8FFF7ABFEDDE90C704D46002683467E
:100B6000207800070AD4AB4500DA5D4601A8012DC4
:100B700004DD411911F8011C302907D04F4502DA74
:100B800017F1040F04DA012082460FE06D1EEEE734
:100B9000002F02DCED1B3E4403E0781CA84200DD80
:100BA0007D1CB81B00F1010A4FF0004720780007B8
:100BB00003D4AA4501DB4FF0FF3A0021B7F1004F03
:100BC0000DF143088DF8431024D002202B23002F71
:100BD00001DA7F422D230A21021EA0F1010000DC70
:100BE0005FB197FBF1FC97FBF1F201FB1C7C174610
:100BF0000CF1300C08F801CDEEE7A8F1010003700C
:100C00002188090501D5452100E06521A0F10108F1
:100C100000F8011C09980FA9A1EB0807FF1D00B1FE
:100C20000120411901EBEA70A1693844081A401EFD
:100C3000A0612078C00602D42046FFF7DDFB0998AA
:100C400028B1D4E901219047206A401C2062207815
:100C5000C00622D52046FFF7CFFB1EE0002E04DBA6
:100C6000B34502DD01A8805D00E03020D4E9012118
:100C70009047206A401C2062761CAAF101005FEABE
:100C8000000A0AD100F054F8C0680168405CD4E959
:100C900001219047206A401C2062281EA5F1010511
:100CA000DCDC07E0D4E9012118F8010B9047206A49
:100CB000401C2062381EA7F10107F3DC2046FFF735
:100CC000B1FB032011B041E6074B70B50D467B44E4
:100CD00000F07DF80446284600F03EF910B14FF0D0
:100CE000FF3070BD204670BDD39B00004FF0000266
:100CF0000429C0F0128010F0030C3FF42AADCCF1AF
:100D0000040CBCF1020F18BF00F8012BA8BF20F89B
:100D1000022BA1EB0C01FFF71CBD5FEAC17C24BFD5
:100D200000F8012B00F8012B48BF00F8012B704799
:100D300000487047E82D002030B5B0F10A024FEAB4
:100D4000900E71F100034EEA817EB0EB0E0061EB74
:100D500091014FEA101E4EEA017E10EB0E0041EBAE
:100D600011114FEA102E4EEA016E10EB0E0041EB0E
:100D700011214FEA104E4EEA014E10EB0E0041EBEE
:100D80001141401841F100014FEAD00040EA4170A2
:100D90004FEAD10110EB80054FEA810444EA9074D8
:100DA00044EB01046D1944EB0404521BA3414FF0C2
:100DB000000348BF0A3200D530BD401C41F100019C
:100DC00030BD000001694A1C02610878704700B517
:100DD0008FB0CDE901310021059105497944CDE974
:100DE000031011466846FFF797FB0FB000BD0000E7
:100DF000E5FFFFFF2DE9F0411F4604460326016889
:100E0000072A01F4006004DB08B116A505E016A569
:100E100003E008B115A500E015A521F01000206041
:100E2000A069C01EA0610FB1401EA0612046FFF75F
:100E3000E3FA4FB1D4E9012138469047206A401CBB
:100E40002062C01C206206E0206AFAE7D4E9012192
:100E500015F8010B9047761EF8D22046FFF7E2FA0C
:100E6000BDE8F0814E414E006E616E00494E460075
:100E7000696E66002DE9F047814616468AB035480E
:100E800078440DC88DE80D0032487844801C03ACCE
:100E90000DC884E80D0041F69B300844372190FBD3
:100EA000F1F290FBF1F5A5F1800501FB12041B3C6A
:100EB00002D56442012000E00020DFF898A08046BF
:100EC0000027FA44AAF1BE0A0EE0E0070AD0324633
:100ED000684607EB470101230AEB810100F04DFF53
:100EE0008DE8070064107F1C002CEED1194F7F4461
:100EF000AE3F19E0E80715D007EB04100DF1180A12
:100F000090E80E008AE80E00C068F04201D19819FE
:100F100008903246012306A903A800F02EFF03AB78
:100F200083E807006D10641C002DE3D14FF001032E
:100F300032466946B8F1000F03A802D000F008FF5E
:100F400001E000F01AFFC9E90001C9F808200AB061
:100F5000BDE8F087C8A00000007B00F0800070476B
:100F600010B542485421FFF7F2FB41485421FFF7E6
:100F7000EEFB40485421FFF7EAFB3F493B483C4A1F
:100F80003F4B08603D490A603A491960531C0365AC
:100F9000481C1065012008653B48344A39A1784453
:100FA00000F022F920B9384878440A3800F0C1F935
:100FB00037482F4A35A1784400F016F920B9344853
:100FC00078440A3800F0B5F932482A4A2FA178440B
:100FD00000F00AF920B92F4878440A3800F0A9F93E
:100FE00040232248DC000021224600F0D9F820B13D
:100FF00025487844543800F09CF91D482246402387
:10100000002100F0CDF820B121487844543800F098
:1010100090F9184822461023002100F0C1F800285A
:1010200006D01C487844BDE81040563800F081B91D
:1010300010BD104870B5006D20F001040B4800F0A1
:1010400049F90B4800F046F90A4800F043F909E075
:10105000206D20F00105204600F03CF9204600F00C
:1010600078F82C46002CF3D170BD0000CC2C002069
:10107000202D0020742D00205C0000206000002046
:101080006400002072000000C29F00007700000092
:10109000AE9F00009A9F00000EB5CDE9000100F060
:1010A0001FFB029069460120ABBE0EBD08B5694624
:1010B00000900220ABBE08BD1FB58DE80700694651
:1010C0000520ABBE04B010BD1FB58DE80F0069460A
:1010D0000620ABBEF6E708B5694600900920ABBE16
:1010E00008BD1CB5CDE9000169460A20ABBE1CBD98
:1010F000704708B5694600900C20ABBE08BD0000E3
:1011000000487047C82D00207546FFF7F9FFAE462E
:1011100005006946534620F00700854618B020B503
:10112000FFF7B0F8BDE820404FF000064FF0000791
:101130004FF000084FF0000B21F00701AC46ACE87F
:10114000C009ACE8C009ACE8C009ACE8C0098D46EC
:10115000704770B50446051F00F034F90068002C94
:1011600014BF446870BD002C18BFAC423CBF204681
:101170006468F8D301680A18AA4218BF456003D111
:101180002A6805461144016028684119A1421CBF24
:101190006C6070BD6168696021680844286070BD3A
:1011A00070B5C468A50713D0650211D4B2F5807F6D
:1011B00009D0B2F5007F06D0B2F5806F08D10123C7
:1011C00000F1240106E05D1E6FF07F46B54201D3B9
:1011D000012070BD0161C361416024F4706111435D
:1011E000C160002070BD00002DE9F0410C460746AB
:1011F0001646104600F06EF82078611C61280AD06F
:10120000722802D077283CD102E00125002405E0B5
:101210000225042402E0082448F2020511F8010B1B
:101220002B2806D0622809D011F8010C74280AD0A6
:101230000BE045F0030544F00204EFE745F0040538
:1012400044F00104EAE744F0100438462146FFF771
:1012500023FF411C15D00021316171604FF40071F2
:10126000F560F1617061200704D53046022200214B
:1012700000F022F9306D40F0010030653046BDE8E5
:10128000F0810020FBE72DE9F0410D460646104CA9
:10129000206DC10704D0410804D020F00104F7E715
:1012A00022460EE0542000F0D8F807000ED0206D42
:1012B00047F001010843542120653846FFF747FAFB
:1012C0003A4629463046BDE8F0418DE70020D6E792
:1012D000CC2C00202DE9F04704464FF000094FF0D8
:1012E000FF37C568D4E90486A80707D0204600F078
:1012F00093F93046FFF7DAFE002802DA3846BDE8F7
:10130000F087280502D54046FFF723FF4C212046F1
:10131000FFF71DFA206D20F0010020654846EEE73A
:1013200010B50446AFF300802046BDE81040FEF73C
:1013300095BF10B500F0BAF9BDE8104000F0B0B9A3
:101340004FF0013C50F8042B51F8043B9A4221D154
:10135000A2EB0C03934313EACC1317D150F8042BE0
:1013600051F8043B9A4215D1A2EB0C03934313EAC4
:10137000CC130BD150F8042B51F8043B9A4209D1FD
:10138000A2EB0C03934313EACC13DBD04FF0000025
:10139000704700BFD01A01BAB1FA81F101F018010B
:1013A00022FA01F0CB40C1F12001DBB2C0B2C01A79
:1013B0002CFA01F3D11A914311EAC311E6D1704717
:1013C0007047000000487047D02D002070477047DC
:1013D0007047704738B504460A4600206946AFF3A7
:1013E0000080002808BF38BD02460099204600F062
:1013F000A4F9012038BD012000F0F3B9F8B5AFF32E
:101400000080054600200C46102000BF0646A819A3
:10141000A0420DD9324669460020AFF30080070094
:1014200008BF00F0DEF90098A04218BF0546C419B5
:10143000FFF7C8FF05600746F01D20F007004619BA
:10144000284600F073F9B44208BFF8BDA21B31462C
:101450003868BDE8F84000F070B970B50646FFF78F
:10146000B1FF056806F10B0020F00704B4429CBFF1
:10147000002070BD2B466A68BAB11068A04210D334
:1014800004F1080188423CBF5068586007D3516896
:10149000101941601168091B016058601460101D2B
:1014A00070BD13465268002AE7D121462846FFF74F
:1014B00091FF0028DED170BD2DE9F04104461646AB
:1014C0000D464769007B80072ED03846FFF703FEA4
:1014D00050BB3EB3012E02D0022E25D104E020469F
:1014E00000F045F905441DE03846FFF702FEE168CB
:1014F000002841F01001E16005DA204600F058F8BC
:101500000120BDE8F081C9030BD56268E16A914210
:1015100000D81146A26911442269891A814200DD6E
:1015200008460544002D01DA0220EAE7E16A606816
:10153000E268814206D29103E06203D522F40031D1
:1015400041F01002A6690027AE4213DCE16A814235
:1015500001D90B4600E0034603EB060C2369ACEB14
:10156000030CAC4506DD814201D98C4600E084467F
:101570009C4505D1A760276042F02000A5620DE0E0
:10158000AD1BE669AE1B8142A66000D90846C01AB1
:10159000281A20605819606022F020000349084092
:1015A000E060002084F84870ABE70000BFCFD7FFB1
:1015B000C16821F4001141F08001C1600021816007
:1015C000016070472DE9F047814614460E464FF002
:1015D000FF383248D5685769054209D03846A169B5
:1015E000FFF77FFD002811DB2C48C0430540E56074
:1015F0002B46324649463846FFF75EFDA16920F08A
:101600000042B21A11440028A16103D02046FFF71E
:10161000CFFF4046BDE8F08770B504460569C06A53
:101620006168884200D80846E16821F42011E16031
:10163000C90312D5A84208D02246411B2846FFF70D
:10164000C1FF10B14FF0FF3070BD0020E562C4E96A
:101650000150E06820F48030E060002070BD10B5DB
:101660000446C06820F02000E060A16AA0698842BA
:101670000DD02046FFF7D0FFE06820F4405040F046
:101680001000E060A06AA0612069E062606044F23E
:101690004001E0688843E06010BD000010000200D7
:1016A000002801D000F03CB87047000010B501469A
:1016B00002A000F07DF8012010BD00005349475200
:1016C000545245443A2052656469726563743A2005
:1016D00063616E2774206F70656E3A200000000011
:1016E00010B5431C02E010F8011B71B18107FAD15B
:1016F0004FF0013202C88C1A8C4314EAC211F9D09F
:10170000C01A0A0603D0C01E10BDC01A10BD0A04BC
:1017100001D0801E10BD0902FCD0401E10BD00008B
:1017200001491820ABBEFEE726000200002101603F
:10173000C0E90110704710207047034640688C468E
:10174000002818BF88423CBF03464068F8D3186899
:101750001844884207D00CF1030020F00700001D58
:10176000411A521A0146081D0A60FFF7F2BC10B573
:101770000146C268900703D0900607D5886A0AE040
:1017800000F03EF801210160881E10BD8B69486899
:1017900018440B69C01A91F848301BB191F84910F0
:1017A000401A10BD1103FCD50028FADD401E10BD03
:1017B00070B505460C460A2000E06D1C00F018F8D4
:1017C00035B128780028F8D102E0641C00F010F848
:1017D00014B120780028F8D1BDE870400A2000F04C
:1017E00007B810B500F010F8BDE81040FFF758BF7B
:1017F00008B569468DF800000320ABBE08BD0000A7
:1018000000487047C82D002010B5012805D00021E0
:1018100003A0FFF7CDFF012010BD09A1F8E70000EC
:1018200053494752544D454D3A204F7574206F66C9
:101830002068656170206D656D6F72790000000031
:101840003A2048656170206D656D6F727920636F15
:1018500072727570746564005FEA400C08BF91F0A5
:10186000000F4FEA8C234FEAC12243EA51514FEA5D
:101870001C5018BF00F5F0404FEA300018BF41F08F
:1018800000415FEA6C5C00F02980BCF1FF3F08BFBB
:1018900040F080407047130C06BF12044FF0100C4C
:1018A0004FF0000C130E04BF12020CF1080C130FC2
:1018B00004BF12010CF1040C930F04BF92000CF151
:1018C000020CD30F04BF52000CF1010C11464FF073
:1018D0000002A0F11F00A0EB0C00704711F0004FB8
:1018E00008BF704731F000413FF4D5AF0B0C06BF85
:1018F00009044FF0100C4FF0000C0B0E04BF09024E
:101900000CF1080C0B0F04BF09010CF1040C8B0F38
:1019100004BF89000CF1020CCB0F04BF49000CF18D
:10192000010CCCF12003A0EB0C0022FA03F302FA25
:101930000CF241EA030100F10100704720F07F4CF6
:1019400080EA030023F07F47ACEB070303F57C53E9
:1019500000F0004003F1FF032DE980494FEA154BE9
:1019600009B44FEA144325EA0B4E24EA03480FF268
:10197000042606EB132749083E785FEA320203FB90
:101980000667C7F5000707FB06F64FEA54374FEA2C
:10199000D64606F1020607FB066CCCF1005C4FEA66
:1019A0001C472CEA074C07FB06F40CFB06F504EB7E
:1019B00015464FEA961634BF00204FF000404FEA1C
:1019C000D13706FB07FC4FEA1C4C0CFB0BF7D21B74
:1019D00003FB0CF761EB07010CFB0EF7B0EB0740C4
:1019E00072EB17420CFB08F734BFA2EB0742B2EBD5
:1019F000074261EB17414FEA0C444FEA910706FB9F
:101A000007FC4FEA1C4C0CFB0BF7B0EBC74072EB2A
:101A1000573203FB0CF734BFA2EBC742B2EBC7420D
:101A200061EB57310CFB0EF7B0EBC70072EB57724E
:101A30000CFB08F734BFA2EBC702B2EBC70261EBA5
:101A40005771039F4FEA816141EA921104EBCC0484
:101A50004FEAD1374FEA826206FB07FC42EA901256
:101A60004FEA80604FEA1C4C0CFB0BF7D21B03FBC8
:101A70000CF761EB07010CFB0EF7B0EB074072EBC4
:101A800017420CFB08F734BFA2EB0742B2EB074248
:101A900061EB17414FEA8C554FEA910704EB9C2408
:101AA00006FB07FC4FEA1C4C0CFB0BF7B0EBC740E6
:101AB00072EB573203FB0CF734BFA2EBC742B2EB19
:101AC000C74261EB57310CFB0EF7B0EBC70072EB6E
:101AD00057720CFB08F734BFA2EBC702B2EBC70288
:101AE00061EB577115EB4C254FEA816141EA921188
:101AF0004FEA82624FEAD13742EA901206FB07FCB6
:101B000044F100044FEA80604FEA1C4C0CFB0BF7D9
:101B1000D21B03FB0CF761EB07010CFB0EF7B0EBDC
:101B2000074072EB17420CFB08F734BFA2EB0742E9
:101B3000B2EB074261EB174115EB1C154FEA8131FF
:101B400041EA92414FEA823242EA90424FEA8030C3
:101B50004FEA0C7644F1000448EA03434EEA0B488E
:101B60004FF0000EB2EB080C71EB030724BF624686
:101B700039464EEB0E0E4FF0000B00185241494112
:101B80004BEB0B0BB2EB080C71EB03077BF1000B7B
:101B900024BF624639464EEB0E0E4FF0000B001884
:101BA000524149414BEB0B0BB2EB080C71EB0307B5
:101BB0007BF1000B24BF624639464EEB0E0E51EA14
:101BC000020718BF46F0010616EB0E7655F100022B
:101BD00054F1000103D5BDE88901BDE80088BDE8E6
:101BE0008901BDE80048B619524141EB0101A3F15A
:101BF0000103704780807F7E7D7C7B7A7978777661
:101C000076757473727171706F6E6E6D6C6C6B6AD9
:101C10006A69686867666665646463636261616077
:101C2000605F5F5E5E5D5D5C5C5B5B5A5A595958F4
:101C3000585757565655555554545353525252515E
:101C4000515050504F4F4F4E4E4D4D4D4C4C4C4BB4
:101C50004B4B4A4A4A4949494848484747474746FB
:101C60004646454545444444444343434342424237
:101C700042414141002B9C4630D477002BD01CB50B
:101C80004FEA370703B44FF010004FF01001BAF1DC
:101C9000000F06D0BCF1000FDCBF40F0080040F0A0
:101CA00008014FF000000FBCBDE810400BF1010B24
:101CB000BBF1010F08BF5FEA170722BF12F1010253
:101CC00011F101014FF0004143F1000300F0004029
:101CD00043EA00007047F9D35708D0E746EA0646C2
:101CE00013F1400F4FEA16461FDD13F1200FDFBF3F
:101CF00016430A46002120335B42BED0C3F12007C1
:101D000046EA064602FA07F74FEA164646EA07068B
:101D1000C3F1200722FA03F201FA07F721FA03F1CF
:101D20004FF0000342EA0702A7E746EA020646EA46
:101D300006464FEA164646EA0106BCBF46EA064694
:101D4000360C4FF000034FF000024FF0000194E713
:101D50002DE9804C9A46934670B491E8380007C844
:101D600031EA400C48BF34EA430C03D5FFF7E6FDE7
:101D7000FFF780FFF0BCBDE8008C2DE9804C9A464F
:101D8000934670B491E8380007C810F0804F08BF40
:101D900013F0804F03D100F005F8FFF76BFFF0BCA4
:101DA000BDE8008C20F07F4780EA030023F07F4CE1
:101DB00007EB0C03A3F57C5300F00040A3F1FE03F6
:101DC00092F0000F00F0B38095F0000F00F07780E4
:101DD0002DE901494FEA11404FEA144621EA004833
:101DE00000FB06FC24EA064708FB06F607FB08F89A
:101DF00000FB07F718EB06484CEB164C4FEA124B6A
:101E000018EB07484FEA15464CEB174022EA0B4EF9
:101E10000BFB06FC25EA06470EFB06F607FB0EFE4B
:101E20000BFB07F71EEB064E4CEB164C4FF0000673
:101E30001EEB074E4CEB174B18EB0B0840F1000064
:101E400018EB0E0B58EB000840F100008F1A4FF012
:101E500000013CBFC943661B14BFB5EB040C002155
:101E60003CBFC943F61B4FEA17444EEA8E0E27EAE1
:101E700004454FEA1C4704FB07622CEA074C05FBAC
:101E800007F70CFB05F604FB0CFC16EB074642EBD0
:101E9000174216EB0C4642EB1C421BEB060658EBB6
:101EA0000202414146EA9E0601D5BDE80189B61904
:101EB000524141EB0101A3F10103BDE801894FEA61
:101EC00014454FEA114724EA054621EA074C05FB71
:101ED00007F406FB07F70CFB06F105FB0CFC11EB06
:101EE000074144EB17444FEA124711EB0C4144EB16
:101EF0001C4422EA074C05FB07F206FB07F70CFB24
:101F000006F605FB0CFC16EB074642EB174216EBF8
:101F10000C4642EB1C456A1854F1000148BF70475B
:101F2000B619524141EB0101A3F10103704795F04D
:101F3000000F37D04FEA11424FEA144721EA024618
:101F400024EA074C02FB07F106FB07F70CFB06F43B
:101F500002FB0CFC14EB074441EB17414FEA154719
:101F600014EB0C4441EB1C4125EA074C02FB07F53E
:101F700006FB07F70CFB06F602FB0CFC16EB07460C
:101F800045EB174516EB0C4645EB1C42121951F177
:101F9000000148BF7047B619524141EB0101A3F15E
:101FA000010370474FEA14454FEA114724EA0546FA
:101FB00021EA074C05FB07F106FB07F70CFB06F2CD
:101FC0004FF0000605FB0CFC12EB074241EB1741FA
:101FD00012EB0C4251EB1C4148BF7047921841EB89
:101FE0000101A3F101037047102000F019B831B5C9
:101FF00000F0F6F8009C0546601C00D0641C00F060
:10200000EFF8401BA042FAD338BD0000102803D1DE
:1020100002488168491C8160704700000000002070
:10202000044910B50A68024202D00860FFF7EEFFCB
:1020300010BD0000143C01402DE9F84FDFF86C9111
:10204000002209F1040A0AF1040B4FF00F080BF10A
:10205000040E01260B6896403340B34271D14C68A0
:10206000022C01D0122C11D1D40800EB84073D6A58
:102070005407E40E08FA04FC25EA0C05D1F810C058
:102080000CFA04FC4CEA050CC7F820C007685400A1
:10209000032591F804C0A5400CF0030CAF430CFAE3
:1020A00004FC4CEA070CC0F800C04F68012F05D0B3
:1020B000022F03D0112F01D0122F11D18768D1F830
:1020C0000CC0AF430CFA04FC4CEA070CC0F808C083
:1020D0004768B7430E79C6F3001696403E43466004
:1020E000C668AE438D68A5403543C5604C68E400C2
:1020F00056D52F4C256845F480452560246822F08C
:10210000030504F4804400942A4C2E19D6F808786C
:102110009407250F08FA05F4A743274CA04201D1E4
:10212000002415E0254CA04201D1012410E0244CEC
:10213000A04201D102240BE0224CA04202D1032490
:1021400006E02DE0204CA04201D1042400E0072449
:10215000AC403C43C6F80848D9F800404D464E68AC
:102160009C43F60300D51C432C60DAF8004055462A
:102170004E689C43B60300D51C432C60DBF800403E
:102180005D464E689C43F60200D51C432C60DEF889
:10219000004075464E689C43B60200D51C432C6037
:1021A000521C102AFFF455AFBDE8F88F003C0140E7
:1021B0004438024000300140000002400004024068
:1021C00000080240000C0240001002400069084074
:1021D00000D0012070470AB1816170470904FBE714
:1021E00001480068704700001400002070B504002A
:1021F00004D094F83D00002510B106E0012070BD28
:1022000084F83C50204600F005FA242084F83D0074
:102210002068016821F00101016000F081FB334971
:102220002268B0FBF1F15160314A6368934206D9EC
:102230004FF4967359434FF47A73B1FBF3F123686B
:10224000491C1962616891420BD84900B0FBF1F258
:10225000C2F30B02042A01D2042019E0B0FBF1F012
:1022600016E0A3689BB301EBC10202EB0112B0FBC5
:10227000F2F242F48042120530D04BB301EBC102BE
:1022800002EB0111B0FBF1F040F4804040F400405B
:102290002168C861D4E90701084321680860D4E9CE
:1022A0000310084321688860D4E9050108432168C8
:1022B000C8602068016841F00101016025642020A8
:1022C00084F83D00256384F83E50002070BD00E096
:1022D00006E001EB4102B0FBF2F2CCE70120D7E7C8
:1022E00001EB4101B0FBF1F0D0E7000040420F00EC
:1022F000A08601002DE9F84F1F4690468A46044605
:10230000DDF82890FFF76CFF054694F83D00202883
:102310006FD1192301226E492046009500F0BDFEC1
:102320000028F5D194F83C00012862D0012084F8FF
:102330003C0020680168C90703D1016841F0010130
:1023400001602068016821F400610160222084F8A6
:102350003D00102084F83E0000262664C4F8248046
:1023600067855C48E062608D20852B464A46514671
:10237000204600F0B2FD28B1206C84F83C600428AF
:1023800041D04DE0208D544F68B1012814D002286F
:102390002068016816D041F48061016020684169BD
:1023A0008069009085E02068416981690091016839
:1023B00041F4007101607CE02068016821F48061D3
:1023C0000160F0E721F4806101602068016841F458
:1023D0000061E2E7032849D801280BD0022817D072
:1023E0004B46002239462046009500F056FEB8B90B
:1023F0002AE06AE02A464946204600F0C1FE28B19C
:10240000206C20280CD00120BDE8F88F206845E022
:102410004B46002239462046009500F03EFE08B1AA
:102420000320F1E72068016841F400710160206831
:102430000169606A421C62620170208D401E208525
:10244000608D401E6085E1E72068016821F48061AD
:10245000016020680169606A421C62620170208D1F
:10246000401E2085608D401E6085D1E72A46494682
:10247000204600F085FE0028C2D120680169606A0C
:10248000421C62620170208D401E2085608D401EBE
:10249000608520684169C94349070AD40169606AB7
:1024A000421C62620170208D401E2085608D401E9E
:1024B0006085208D00288DD1202084F83D0084F88F
:1024C0003E6084F83C6000209EE702209CE700000C
:1024D000020010000000FFFF040001002DE9F84F8A
:1024E0001F4690468A460446DDF82890FFF778FE9E
:1024F000054694F83D0020287ED119230122434946
:102500002046009500F0C9FD00287DD194F83C00DC
:10251000012879D0012084F83C0020680168C907AF
:1025200003D1016841F0010101602068016821F4D4
:1025300000610160212084F83D00102084F83E00F5
:1025400000262664C4F8248067853148E062608DE7
:1025500020852B464A465146204600F02DFD28B1E5
:10256000206C84F83C6004284CD00DE02068416960
:102570008069009030E02A464946204600F032FE4D
:1025800028B1206C042838D00320BDE8F88F606A99
:10259000411C6162216800780861608D401E608581
:1025A000208D401E80B2208521684A69D24352079F
:1025B0000BD450B1606A421C626200780861608D81
:1025C000401E6085208D401E20852A4649462046B3
:1025D00000F03CFD0028D4D1208D0028CBD154F848
:1025E0003D0B016841F400710160202004F81E09D0
:1025F000E67766770020C8E706E02068016841F4C6
:10260000007101600120C0E70220BEE70200100057
:102610000000FFFF00B500680E4987B0884217D15F
:102620004FF440700090122001900120029003208E
:1026300003900420049069460748FFF7FDFC074813
:10264000016841F400110160006800F40010059079
:1026500007B000BD00540040000402404038024072
:1026600002480168491C0160704700001400002006
:102670000B4810B5016841F400710160016841F434
:1026800080610160016841F480710160032000F005
:1026900075F8002000F006F800F018F8002010BDD2
:1026A000003C024010B5044607484FF47A710068B8
:1026B000B0FBF1F000F033FB00222146501E00F089
:1026C0003DF8002010BD00001800002010B50720C4
:1026D00000F054F8002211466FF00B0000F02EF8C5
:1026E000002211466FF00A0000F028F8002211467F
:1026F0006FF0090000F022F800221146501F00F090
:102700001DF800221146101F00F018F80022114693
:10271000901E00F013F80022BDE810401146501E34
:1027200000F00CB800F01F02012191404009800028
:1027300000F1E020C0F8001170470000F0B40E4B2B
:102740001B68C3F30223C3F10704042C00D904243B
:102750001D1D072D01D2002300E0DB1E012606FA15
:1027600004F56D1E0D409D409E40761E164045EAC4
:102770000601F0BC00F0C2BD0CED00E0064A00F01E
:10278000070110684FF6FF03184040EA0120034993
:1027900008431060704700000CED00E00000FA05EF
:1027A0002DE9F047DFF85C9104460E46D9F80000A9
:1027B00000F00F01F0B28046B14207D289F8000064
:1027C000D9F8000000F00F00B04271D120784E4FD0
:1027D000800705D53868A16820F0F000084338600C
:1027E0002078C00756D048496068083901281AD0B7
:1027F00002281BD0032819D009688907002957DA55
:10280000396821F0030101433960FFF7E9FC05460F
:10281000606841F28831012811D002281CD00328B9
:102820008A4625D032E009688903E7E7096889010B
:10283000E4E7FFF7D5FC411B514501D923E08A4667
:102840003868C0F381000128F3D123E0FFF7C8FC0A
:10285000411B514501D916E08A463868C0F3810012
:102860000228F3D116E0FFF7BBFC411B51450AD803
:102870003868C0F381000328F5D10BE0FFF7B0FC06
:10288000411B514502D90320BDE8F087386810F09C
:102890000C0FF3D1D9F80010484601F00F01B142F6
:1028A00008D980F80080006800F00F00B04201D025
:1028B0000120E9E72078400705D53868E16820F471
:1028C000E050084338602078000706D53868216951
:1028D00020F4604040EAC100386000F051F83968E7
:1028E000F02292FAA2F201F0F001B2FA82F2D140A3
:1028F000064A515CC840064908600020FFF7D2FE36
:102900000020C1E7003C0240083802407EAE0008CB
:1029100018000020014800687047000018000020DF
:1029200008480949006809684FF4E05292FAA2F297
:1029300001F4E051B2FA82F2D140044A515CC8403D
:102940007047000018000020083802408EAE0008D2
:1029500008480949006809684FF4604292FAA2F2F7
:1029600001F46041B2FA82F2D140044A515CC8409D
:102970007047000018000020083802408EAE0008A2
:1029800030B51948006810F00C01184812D04410F6
:1029900004290ED008290DD1134A121F116813689B
:1029A00001F03F015D0247F6C07304D5B4FBF1F0BE
:1029B00003E0204630BDB0FBF1F01168194093FAF6
:1029C000A3F3B3FA83F3D940484311684FF440327C
:1029D00092FAA2F201F44031B2FA82F2D140491CDB
:1029E0004900B0FBF1F030BD083802400024F4008B
:1029F0002DE9F84F04460078DFF8F4A2BD4DC0077A
:102A000048D0DAF800105046C1F38101012908D0FE
:102A10000068C0F3810002280AD1281D0068400226
:102A200006D52868800335D56068002870D031E06D
:102A30006068B0F5803F10D0B0F5A02F286810D0A6
:102A400020F480302860286820F4802028606068A6
:102A5000A0B1FFF7C5FB06460CE0286840F48030C3
:102A6000F4E740F480202860F7E7FFF7B9FB801B0C
:102A7000642873D828688003F7D50BE0FFF7B0FB14
:102A8000064604E0FFF7ACFB801B6428F1D82868F9
:102A90008003F7D42078DFF8608280074FF0010BC5
:102AA0004FF0000943D5DAF80010504611F00C0F32
:102AB0004FF0F80709D00068C0F3810002280BD15D
:102AC0008B48001F0068400206D42868800713D591
:102AD000E06801281CD10FE0E068D0B1C8F800B070
:102AE000FFF77EFB064604E0FFF77AFB801B022817
:102AF000BFD828688007F7D5286897FAA7F2216918
:102B0000B2FA82F220F0F8009140084328600EE00B
:102B1000EBE0C8F80090FFF763FB064604E0FFF720
:102B20005FFB801B022819D828688007F7D420781B
:102B3000000722D56E4F714861696C3779B1C0F8D2
:102B400000B0FFF74DFB064604E0FFF749FB801B92
:102B5000022803D838688007F7D50EE079E0C0F87E
:102B60000090FFF73DFB064604E0FFF739FB801BB2
:102B700002286ED838688007F7D42078400750D5EF
:102B80005B483830016841F08051016000685C4F5B
:102B900000F080500090386840F480703860FFF793
:102BA0001FFB064604E0FFF71BFB801B022850D8E2
:102BB0003868C005F7D54E4FA068683701280FD098
:102BC0000528386810D020F001003860386820F0FF
:102BD00004003860A068B0B1FFF702FB06460EE0C3
:102BE000386840F00100F4E740F004003860F7E78F
:102BF000FFF7F6FA811B41F2883081426DD83868C0
:102C00008007F5D50DE0FFF7EBFA064606E0FFF783
:102C1000E7FA811B41F2883081425ED8386880072C
:102C2000F5D4A069F0B3DAF80010C1F381010229EC
:102C30005BD00228484605D0C8F86000FFF7D0FAFC
:102C400004464DE04746C8F86000FFF7C9FA06465B
:102C500005E042E0FFF7C4FA801B02283DD828684F
:102C60008001F7D4D4E90701084347F6C07292FA0D
:102C7000A2F2616AB2FA82F29140A26A4FF0FF3387
:102C800003EB52024FF4403393FAA3F3B3FA83F306
:102C90009A4011434FF0706292FAA2F20843B2FADE
:102CA00082F200E01FE0E16A914008431049091FE9
:102CB0000860C7F860B0FFF793FA044604E0FFF736
:102CC0008FFA001B022808D828688001F7D50AE08F
:102CD000FFF786FA001B022802D90320BDE8F88F0F
:102CE00028688001F4D40020F8E70120F6E700000E
:102CF000083802400038024000004742800E474238
:102D0000007000404FF0E0210428086903D020F053
:102D100004000861704740F00400FAE7704710B5FE
:102D2000401EB0F1807F01D3012010BD4FF0E024A0
:102D300060610F21601700F0E1FA0020A061072018
:102D40002061002010BD10B5FFF7E8FF10BD70B581
:102D5000040004D094F83900002510B106E00120E9
:102D600070BD84F83850204600F022F8242084F802
:102D700039002068C16821F40051C160204600F08C
:102D800041FE2068016921F4904101612068416998
:102D900021F02A0141612068C16841F40051C160FD
:102DA000E563202084F8390084F83A00002070BDE3
:102DB00000B501680D4887B0814215D10C4800214B
:102DC000026842F400320260006800F400300590AE
:102DD0000C2000900220CDE901010720CDE903106D
:102DE00069460448FFF728F907B000BD00440040D9
:102DF00040380240000002402DE9F843044690F8B4
:102E000039001E4617460D46202850D1A5B19FB166
:102E100094F8380001284AD0012084F838004FF097
:102E20000008C4F83C80212084F83900FFF7D8F965
:102E3000A7848146E78426E00120BDE8F883E08C82
:102E4000401EE084A0684B46B0F5805F4FF0000262
:102E50004FF080012046009603D000F029FFE8B92A
:102E60000DE000F025FFC8B928882168C0F30800EC
:102E70004860206908B16D1C05E0AD1C03E02168C5
:102E800015F8010B4860E08C0028D8D14B46002291
:102E900040212046009600F00BFF08B10320CCE74C
:102EA000202084F8390084F838800020C5E702200B
:102EB000C3E701684A69D24352050CD46FF48062BB
:102EC0004A6104210164002140F8301F202242732E
:102ED000017301207047002070472DE9F84F044628
:102EE000C06A1D4692460F4621680A6842F4806215
:102EF0000A60042807D0012805D010F5803F02D0D1
:102F0000206B112804D12068016841F480710160B0
:102F10004FF001185346002241462046009500F02C
:102F2000BCF8B8BB206908F10109B0F5804F12D098
:102F30000620216800EAD71646F0F00008612B460B
:102F4000524608F10701204600F0D7F838B1206C4E
:102F500004282FD01EE0F8B240F001001FE02168E5
:102F6000F8B208612B4652464946204600F0C5F8A3
:102F70000028ECD12068416981690091016841F421
:102F8000807101605346002241462046009500F0C2
:102F900084F810B10320BDE8F88F46F0F1002168F5
:102FA00008612B4652464946204600F0A6F8002804
:102FB000CDD1F0E70120EEE7F8B50446C06A1E4621
:102FC0000D461746042807D0012805D010F5803F8C
:102FD00002D0206B122804D12068016841F480716E
:102FE0000160134600224FF001112046009600F0C8
:102FF00054F8A0B92069B0F5804F12D0062021689E
:1030000000EAD51040F0F000086133463A460E4918
:10301000204600F072F838B1206C042811D003204B
:10302000F8BD05F0FE0000E0E8B22168086106493D
:1030300033463A46891F204600F05FF80028EBD15E
:10304000F8BD0120F8BD00000800010070B516466B
:103050000D4604461AE02046FFF72BFF08B1012079
:1030600070BD681C12D025B1FFF7BAF8801BA842CA
:103070000CD954F8400F40F0200044F8100900200B
:103080002060202161732073032070BD2068406997
:10309000C0434007DFD4002070BD2DE9F0471D4636
:1030A00090460E460446C1F30747DDF8209012E033
:1030B000681C10D02DB1FFF793F8A0EB0900A842CF
:1030C00009D9002044F8300F20216173A0732073C8
:1030D0000320BDE8F0872068012F0AD0806926EA26
:1030E00000000004000C06D000204045E0D0002085
:1030F000EFE74069F3E70120F7E72DE9F04798464D
:1031000015460E4604464FF000094FF0200AC1F361
:10311000074729E020684069C043400513D4206870
:10312000016841F40071016021686FF480604861BA
:1031300004202064C4F8309084F83DA084F83C90CA
:103140000120BDE8F087681C0ED02DB1FFF748F8CC
:10315000A0EB0800A84207D944F8309F84F80DA0DE
:1031600084F80C900320ECE72068012F06D08069DA
:1031700026EA00000004000CE3D0CBE74069F7E743
:103180002DE9F04116460D46044600274FF0200871
:1031900021E04069C043C0060CD421686FF01000E4
:1031A00048612764276384F83D8084F83C700120DF
:1031B000BDE8F08125B1FFF713F8801BA8420AD9BA
:1031C00054F8400F40F0200044F8040984F80180CE
:1031D00027700320ECE720684169C9434906D8D429
:1031E0000020E5E770B516460D4604461AE0204675
:1031F000FFF75FFE08B1012070BD681C12D025B139
:10320000FEF7EEFF801BA8420CD954F8400F40F0A7
:10321000200044F8100900202060202161732073F1
:10322000032070BD20684069C0430006DFD4002041
:1032300070BD90F8CB230021AA2A04D190F8CA03CC
:10324000EB2800D1012108467047000070B52748DF
:1032500086B00024016841F004010160016801F0BA
:1032600004010591016841F080010160016801F0ED
:1032700080010591016841F001010160016801F0E0
:1032800001010591016841F0020101600068184EDA
:1032900000F002000590002220213046FEF79BFF3F
:1032A000144D4FF40050CDE90005694602941248D0
:1032B000FEF7C2FE1020CDE9000501256946304623
:1032C0000295FEF7B9FE20200090CDE90154694631
:1032D00030460394FEF7B0FE002211460A20FFF7A5
:1032E0002DFA0A20FFF71EFA06B070BD30380240F2
:1032F0000000024000002110000802400907090EEA
:10330000002806DA00F00F0000F1E02080F8141D1C
:10331000704700F1E02080F8001470472DED028B1B
:103320009CB00DF1100833A0FDF75AF8374C206817
:1033300000F047FE6060206800F004FD60602068D7
:1033400000F018FE606020B1014631A0FDF748F89A
:10335000FEE7A24630BFDAF8081050460029F9D03F
:103360000021044681604146006800F015FD606060
:1033700098F8059098F8041031A0FDF731F8494607
:1033800032A0FDF72DF8002424E014B132A0FDF79F
:1033900027F804EB840108EB8105286907F056FC47
:1033A0009FED338B53EC182B07F064FC06460F4659
:1033B000E86807F04BFC53EC182B07F05BFC024667
:1033C0000B468DE8CC00B5F91820A97E2AA0FDF7A0
:1033D00007F8641C4C45D8DB36A0FDF701F8DAF895
:1033E000040054460028B5D1206800F0A8FC6060B5
:1033F000B0E7000052616E67696E67206C6F6F7096
:10340000207374617274730A0000000000000020D1
:10341000564C35334C585F53746172744D6561730B
:103420007572656D656E74206661696C65643A20BD
:103430006572726F72203D202564200A0000000032
:10344000436F756E743D2535642C2000234F626AEE
:10345000733D2531642000000A20202020202020F8
:10346000202020202020202020202020202000009C
:10347000000000000000F03E7374617475733D2518
:10348000642C20443D2535646D6D2C205369676E96
:10349000616C3D25322E3266204D6370732C2041C5
:1034A0006D6269656E743D25322E3266204D637003
:1034B000730000000A0000002DE9FE4F0F46897CD2
:1034C0005171064697F89611002082F85810106046
:1034D000F978117197F812A0154683465FEA0A0140
:1034E00002D0894600241FE00121FAE704EB4402E0
:1034F00004EB840102EB041205EB810107EB82026D
:1035000002F11408083148B9387CCDE9000802916D
:103510002A7923465146304600F05CF8B8F8161078
:10352000641CA5F85A10E4B24C45DFD342F2D9012D
:1035300096F877248A5549465B46FF240DE006EB52
:10354000410202F50052A2F8C8307218D03202F5DA
:103550000052491C14701371C9B20429EFD3BDE89D
:10356000FE8F0000F0B587B007460020ADF80C00D4
:1035700004900590069016A020240068164600903E
:10358000012920D0022920D0022006A91DF80050D0
:1035900005A8CDE9000104AB03AA2946384603F08B
:1035A000DBFC00280DD1DDE905018DE84300BDF805
:1035B0000C2029463846049B06F099FD002800D1CE
:1035C000FC7007B0F0BD0020DFE70120DDE7000060
:1035D000211E1B002DE9FE4F16468946DDE90C2110
:1035E0004FF00008074600F59874CDF800809B4620
:1035F00091F84A000E9D31F8303F00F01F005B0249
:103600006B608B885B02AB608B895B02EB60CB8A63
:103610002B820B8B2B80898A6980032A12D004DCD1
:10362000012A0FD0022A04D10CE00D2A0CD0112A55
:1036300008D0414685F81280C9B251EA090206D085
:1036400089B124E0052100E00D21A974F4E7FF20F1
:10365000A874C5F8048041F6FF70C5F80C80288274
:103660002880688013E0132836D008DC05282FD086
:1036700006282FD0072809D0092806D134E01428BD
:103680002ED016282ED0172828D0FF20A8746A46DE
:1036900048F29101384603F0CDFCB5F910000290D4
:1036A00006F00106C24685F8138001A9384600F0ED
:1036B000F4FE07EB0B0107EB4B03864607F50052C0
:1036C00001F5005103F50053B9F1010F1ED10DE0D2
:1036D0000420DBE70120D9E70620D7E70C20D5E757
:1036E0000720D3E70B20D1E70020CFE792F8D800DE
:1036F00001280BD19DF8040040B10098002804D0A7
:10370000A87C072805D0042803D0D6E0CDF800A077
:10371000D3E091F8D000072807D0042805D000286E
:1037200075D191F8D400012871D197F877C492F837
:10373000D900ACF10108404503D00CF17F0C604585
:1037400065D1B5F910C0B3F8C8007F78ACEB0000C4
:1037500000B21B2F6DD01E2F59D1B4F98E70874245
:1037600007DAB4F99080804503DD16B1B4F9A400FE
:1037700096E07F42874205DDB4F990707F42874230
:1037800000DAA6B1B4F99270874204DAB4F99480F1
:10379000804500DD76B17F4287420EDDB4F994703A
:1037A0007F42874209DA46B1B4F9A80078E0B4F95B
:1037B000A20075E0B4F9A60072E0B4F996708742F1
:1037C00007DAB4F99880804503DD16B1B4F9AC008E
:1037D00066E07F42874205DDB4F998707F428742F8
:1037E00000DAAEB1B4F99A70874204DAB4F99C8079
:1037F000804500DD7EB17F4287420FDDB4F99C70C9
:103800007F4287420ADA4EB1B4F9B00048E054E092
:10381000B4F9AA0044E0B4F9AE0041E0B4F9A06004
:1038200086424ADDB4F99E60864246DAB4F9B200B7
:1038300036E0B4F9B670874204DAB4F9B88080454E
:1038400000DD5EB17F4287420BDDB4F9B8707F4284
:10385000874206DA2EB1B4F9CC0021E0B4F9CA00EF
:103860001EE0B4F9BA70874207DAB4F9BC8080452B
:1038700003DD16B1B4F9D00012E07F42874205DDC6
:10388000B4F9BC707F42874200DA2EB3B4F9C0604D
:10389000864212DDB4F9BE6086420EDAB4F9D20077
:1038A0000CEB00042C826C8804446C802C8820442F
:1038B00028800120E87485F812A00298A3F8C800B7
:1038C000A87C01F8D00FE87C087182F8D890B5F98F
:1038D0001000A97C19B10DE0B4F9CE00E0E7002892
:1038E00008DA06494968814202DD0E20A87401E029
:1038F000A5F810A07046BDE8FE8F00001C00002057
:1039000010B5FEF7ADFEBDE81040FFF71CBA000091
:1039100030B5254893B00025016841F08051016021
:10392000006800F0805011902048016821F4404167
:1039300041F4004101600068022400F4404011900D
:10394000012003901020009406940490CDE90750C4
:103950004FF4A870099004200A9007200B90684645
:10396000FFF746F800B1FEE70CA90F2081E831000F
:103970004FF48050CDE90F0502210CA8FEF710FF8F
:1039800000B1FEE7FEF7C6FF4FF47A71B0FBF1F02D
:10399000FFF7C5F90420FFF7B5F900221146501EC4
:1039A000FEF7CCFE13B030BD40380240007000403E
:1039B0001048016841F4700101600F48016841F04E
:1039C000010101600C4A00210832116002680B4BB2
:1039D0001A400260031D0A4A1A60026822F480221B
:1039E000026005480C3001600249580680390860C1
:1039F0007047000088ED00E000380240FFFFF6FE4F
:103A0000103000242DE9F04104460068016921F4DA
:103A10004052E168114301612068C16849F20C62BB
:103A200091432369A268E5691A4363692B431A43EA
:103A30000A43C26020684169A26921F440710A43C7
:103A40004261E0696425B0F5004F974A97492068C4
:103A50004FF032083FD0884201D090427CD1FEF72F
:103A600077FF00EBC00101EB001061688900B0FB3B
:103A7000F1F6FEF76DFF00EBC00101EB001061688D
:103A80008900B0FBF1F0B0FBF5F06FF0180148438E
:103A900006EB800108EB0110B0FBF5F000F0F0063A
:103AA000FEF756FF00EBC00101EB001061688900D2
:103AB000B0FBF1F0B0FBF5F006EB0016FEF748FFA7
:103AC00000EBC00101EB001061688900B0FBF1F769
:103AD000FEF73EFFD2E0884201D090423DD1FEF792
:103AE00037FF00EBC00101EB001061684900B0FB3B
:103AF000F1F0B0FBF5F00601FEF72AFF00EBC00184
:103B000001EB001061684900B0FBF1F7FEF720FF00
:103B100000EBC00101EB001061684900B0FBF1F05F
:103B2000B0FBF5F06FF01801484307EB800108EB9C
:103B3000C100B0FBF5F000F0F80006EB4006FEF720
:103B400007FF00EBC00101EB001061684900B0FB0A
:103B5000F1F7FEF7FDFE3CE055E0FEF7E1FE00EB7D
:103B6000C00101EB001061684900B0FBF1F0B0FB4F
:103B7000F5F00601FEF7D4FE00EBC00101EB0010EA
:103B800061684900B0FBF1F7FEF7CAFE00EBC00127
:103B900001EB001061684900B0FBF1F0B0FBF5F0FB
:103BA0006FF01801484307EB800108EBC100B0FB40
:103BB000F5F000F0F80006EB4006FEF7B1FE00EB72
:103BC000C00101EB001061684900B0FBF1F7FEF79E
:103BD000A7FE00EBC00101EB001061684900B0FBDB
:103BE000F1F0B0FBF5F06FF01801484307EB8001EE
:103BF00008EBC100B0FBF5F000F00700216830448D
:103C00008860BDE8F081FEF78BFE00EBC00101EBA0
:103C1000001061688900B0FBF1F6FEF781FE00EB51
:103C2000C00101EB001061688900B0FBF1F0B0FB4E
:103C3000F5F06FF01801484306EB800108EB011026
:103C4000B0FBF5F000F0F006FEF76AFE00EBC001F5
:103C500001EB001061688900B0FBF1F0B0FBF5F0FA
:103C600006EB0016FEF75CFE00EBC00101EB001056
:103C700061688900B0FBF1F7FEF752FE00EBC0016E
:103C800001EB001061688900B0FBF1F0B0FBF5F0CA
:103C90006FF01801484307EB800108EB0110B0FBFF
:103CA000F5F000F00F00A9E70014014000100140FA
:103CB0002DE9F0411E46174688460446069D1CE045
:103CC000681C1AD025B1FEF78BFA801BA84214D9C4
:103CD0002068C16821F4D071C1602068416921F079
:103CE00001014161202084F8390084F83A00002065
:103CF00084F838000320BDE8F0812068016838EAC4
:103D0000010004D00020B842DAD00020F3E70120FF
:103D1000F9E730B510230B700022032348701446D6
:103D2000042502EB021001EB8000521C0371437169
:103D3000057244720878D2B29042F2D830BDC17890
:103D400000F0A8BB70B50546012100F04BFDD8B9C5
:103D50004FF47A7202212846FFF704FCA0B948F21A
:103D60003521284600F090F870B905F5E0540020A0
:103D7000A063E06320640221284606F096F918B992
:103D80000021284600F0C4F82021E97005F500550F
:103D9000022185F8401A70BD70B504460E4641F206
:103DA00038402518FF225C213046FCF7C8FC2A4623
:103DB0000221204602F0F7FC324629462046BDE8A3
:103DC0007040FFF779BB00002DE9F04106460C4832
:103DD00015460A0A0270417001460024022230464C
:103DE00006F09CFC6FF00C0728B9012229463046EA
:103DF00006F07CFC00B13C462046BDE8F0810000A6
:103E0000782B00202DE9F0410F4D8046080A2870DC
:103E100016466970002402222946404606F07EFCC0
:103E20006FF00C0728B902222946404606F05EFCD6
:103E300008B13C4604E06878297800EB0120308026
:103E40002046BDE8F0810000782B00202DE9F041EC
:103E500080460C4816460A0A0270417001461D460B
:103E600000240222404606F059FC6FF00C0728B9E6
:103E70002A463146404606F039FC00B13C46204611
:103E8000BDE8F081782B00202DE9FE4F8046002010
:103E90000090019002901C481A4E0D466FF00307E7
:103EA000814201D93C4606E06B4601AA02A9404680
:103EB00003F087F8044640F2A4694FF0060A404632
:103EC000FFF7B7F900B1114E4D4501D83C4616E059
:103ED000A5F2A460009094B9B042F7D8B0FBFAF311
:103EE0000093DDE90121404606F07DF9040006D18A
:103EF000009942F64420C8F8101040F808502046B7
:103F0000BDE8FE8F7064080080969800400D0300A5
:103F100070B5064641B1012909D0022918D00329FC
:103F200021D06FF0030070BD01F0CCF81DE001F06E
:103F3000D0F80446304600F0C4FD0546304601F096
:103F4000E7F801462000EED12800ECD1084670BD0C
:103F500001F0BFF80446304600F0B3FD0546304698
:103F600001F0DDF8EDE701F0B4F80446304600F06A
:103F7000A1FDE2E770B50446002505F0E8F900214F
:103F80000B46FF2204EB410000F50050A0F8C830BA
:103F90006018D03000F50050491C0270C9B203719E
:103FA0000429EFD304F5005080F8D93080F8D830D8
:103FB000E17825B90622204604F0A5FD05462846ED
:103FC00070BD4FF4FA7105F01ABC4FF47A7091FB92
:103FD000F0F010B5FEF70BF8002010BD2DE9FF4FF3
:103FE000ADF5017D0024DDE98EB78A469946A046ED
:103FF00026468DF80042254640F2FF1215A168467C
:10400000FCF7CCFBC8F1000817E02CB980AA839913
:104010008198FFF7D9FE04469DF8000200EA0B00E4
:10402000484500D1012554EA050004D11FB13846A6
:10403000FDF7DDFF002446461CB9564501D2002D90
:10404000E3D0254300D1EC1F0DF5057D2046BDE8EA
:10405000F08F00000000000070B5074B0D0A00242F
:104060001D7059709A700322194606F057FB08B16B
:104070006FF00C04204670BD782B002070B5084B03
:104080000D0A00241D705970110A9970DA7004220B
:10409000194606F043FB08B16FF00C04204670BDD2
:1040A000782B002070B51C46002513460646FF2CD1
:1040B00001D9281F70BD0A480A0A00F8012B2246C0
:1040C00000F8011B1946FCF7C3FAA21C044930464C
:1040D00006F024FB08B16FF00C05284670BD000007
:1040E000782B0020401801D500207047B0F5802FB4
:1040F000FBDB014870470000FFFF030000B50A46E4
:1041000000F06CFC11465DF804EB00F06BB900B5F3
:1041100000F01FF95DF804EB01F04BB870B50D46E7
:1041200000F0EBF80446284600F05DFC014604EB85
:10413000C400000280094843800970BD2DE9F041A8
:104140008AB000241F469046109EADF814408DF8AA
:10415000184005AB04AACDE90023ADF80840ADF83E
:104160000C40ADF810408DF81C408DF820408DF8C3
:10417000244003AB02AA00F03AFC3480BDF90C5095
:104180002AE0BDF9084021E0E1B2E8B206AA01F058
:1041900002F809AB08AA07A99DF8180006F061F813
:1041A0009DF81C1018F801009DF8241008420BD04F
:1041B000E1B2E8B205F0A6F80028308801D0384412
:1041C00001E000F580703080641C24B2BDF910005D
:1041D0008442D9DD6D1C2DB2BDF914008542D0DDBD
:1041E0000AB0BDE8F0812DE9F0478EB00024DDE98A
:1041F0001876DDE916981D469246ADF81440ADF8E4
:1042000018408DF828408DF82C4005AB04AAADF875
:104210000840ADF80C40CDE90023ADF81040ADF8F2
:104220001C40ADF82040ADF824408DF830408DF8AA
:10423000344003AB02AA00F0DAFB09A908A8CDE9D3
:10424000000107AB06AA2946504600F0D0FB3C808F
:104250003480BDF91C503EE0BDF9184035E0E1B2B4
:10426000E8B20AAA00F097FF0DAB0CAA0BA99DF8C3
:10427000280005F0F6FF9DF82C1019F801009DF8B4
:10428000341008421FD0E1B2E8B205F03BF808B1A3
:10429000404601E04FF48070BDF908108C420FDBFE
:1042A000BDF910108C420BDCBDF90C108D4207DB00
:1042B000BDF914108D4203DC39880844388002E0CF
:1042C000318808443080641C24B2BDF92000844247
:1042D000C5DD6D1C2DB2BDF924008542BCDD0EB0DC
:1042E000BDE8F08700B500F008F8800849F25721D2
:1042F000484300F50040000C00BD01004FF00000F5
:1043000003D04FF08040B0FBF1F0704770B5000172
:104310004FF47A7690FBF6F000252C46002901DA5E
:1043200049420DB2002A01DA51420CB22919490161
:1043300091FBF6F1084443431033D81703EBD060E8
:104340004011B0F5803F02DB4FF6FF7070BD80B2C8
:1043500070BD02460020002904D0100300EB51007C
:10436000B0FBF1F070472DE9F0471E00DDE908745D
:1043700091468A4680464FF0000530D0A179184614
:10438000FFF7CCFE034601464046FFF7E2FFFF2859
:1043900000D9FF20F87119465046FFF7B8FE010A10
:1043A0002170607019464846FFF7B1FE010A21717D
:1043B0006071617A3046FFF7B1FE03460146504610
:1043C000FFF7A5FE010AA170E07019464846FFF705
:1043D0009EFE010AE17120722846BDE8F0876FF069
:1043E0000E05F9E7A0FB01014FF40062801841F1CE
:1043F0000001000B40EA015070472DE9F0430146EF
:1044000001F29E3391F89CC35C784FF0020804F0EF
:104410001F09DC781B78002001F12C0201F57F7761
:1044200001F50A56CCF3400508EA13131DB197F8BD
:10443000783008EA13135FEA8C6720D5D779062F06
:1044400016D0157AA54201D06FF01100D57A9D42A1
:1044500001D06FF01200527B02EB820206EB4202A7
:104460009578D278A54210D091F8C31059B908E0D8
:10447000002D04D1B9F1120F01D06FF01000BDE88A
:10448000F083FF2C01D06FF013009A42F7D06FF049
:104490001400F4E7032204F036BB70B5002690F850
:1044A00008243346072A18D00024002204EB4404D1
:1044B00002EB420500EB851505EB441505F580552B
:1044C000D5F8645C002D01DD5B1CDBB2521CD2B25E
:1044D000062AEDD30B70304670BD0124E5E710B518
:1044E000C37B8B74037CCB74437C0B75837C4B75D3
:1044F000C37C8B75037DCB75037AC47903EB0423EE
:104500000B83437A8B76837ACB76C37A0B77037BE4
:104510004B77437B8B778178437801EB0321518183
:104520000179C37801EB03219181417991738079FD
:10453000D07310BD30B5C47B039A8C74047CCC74EA
:10454000447C0C75847C4C75C47C8C75047DCC7566
:10455000047AC57904EB05240C83447A8C76847A3A
:10456000CC76C47A0C77047B4C77447B8C77847B45
:10457000CC778178447801EB042159810179C478A2
:1045800001EB04219981417999738179D973C18AA9
:104590005180018B91800078907130BD10F8102F00
:1045A0000A7042784A7082788A70C278CA7002793A
:1045B0000A7142794A7182798A71C279CA71027A22
:1045C0000A72427A4A72827A8A72C27ACA72027B0A
:1045D0000A73427B4A73827B8A73C27BCA73027CF2
:1045E0000A74427C4A74827C8A74C27CCA74027DDA
:1045F0000A75427D4A75827D8A75C27DCA75027EC2
:104600000A76427E4A76827E8A76C27ECA76027FA9
:104610000A77427F4A77827F8A77C07FC877704760
:104620002DE9F04F00249C70CE78DE70DC810426EA
:104630005E7401269E74B1F810908F8A4E8A2546CA
:1046400003EB440C641CE4B2ACF80450052CF7D323
:1046500003F114044FF0000C4FF4803B4FF6FF7A47
:10466000AE4684F800C0C4F804E091F803807546B3
:10467000B8F1000F06D191F8018008F01F08B8F1D9
:10468000090F12D091F8018008F01F0884F84A80C1
:1046900025726572A572E57225736573BCF1000F12
:1046A00006D0BCF1010F55D12FE04FF01308EDE714
:1046B0008D78072D25D0082D25D08D88E582A4F88A
:1046C0003090CD8A65860D89A5864D896D015D4541
:1046D00000D35546A5878D89A4F84050CD89454320
:1046E00005F580654FEAE57805EB5855ED12A4F81D
:1046F00046505568A5629568E562D568A56115685C
:1047000027E0E682DBE7E782D9E70D8BE5824D8B78
:104710002586A4F832A08D8BA586CD8BD0466D0161
:104720005D4500D34546A5870D8CA4F840504D8CBF
:10473000454305F580654FEAE57805EB5855ED12E0
:10474000A4F846505569A5629569E562D569A561E9
:1047500015696562B4F8405024F83E5F0CF1010C15
:10476000A5802589E58065810CF0FF0C0E34BCF135
:10477000020FFFF476AF83F810E04878724600F03D
:104780001F00032809D004DC012806D0022807D125
:1047900003E00D2801D0112802D1187483F85E209F
:1047A000BDE8F08F90F83F2081F88120B0F84220DA
:1047B000A1F88620027A0A72828FA1F87E2090F8F2
:1047C0003E2081F88020B0F84020A1F88220B0F887
:1047D0004420A1F89C2002788A70427A4A7240688C
:1047E000486070472DE9FE43044642F2E0008946E6
:1047F000002526182F466221204604F0A4FB042041
:1048000070744FF0000886F81280102186F8441268
:1048100086F8458207EB071006EB80007F1CC0F886
:104820008082C0F88482A0F88882FFB280F88A82F1
:10483000102FEFD386F8881686F8898686F89B179E
:1048400086F89C870021C1EBC10006EB8000491C63
:10485000C0F8A087C0F8A487C0F8A887C0F8B487BC
:10486000C9B2C0F8B8871029EDD384F800801E21A2
:10487000617084F8028084F80380012020716071E7
:10488000A0714FF47A71A1604900E16043F2C82140
:104890002161642161614FF42061218304F5805618
:1048A00084F82180032086F81A0386F81B8340F2DF
:1048B000DB71A4F8B81040F2C3712046A4F8BA1016
:1048C00004F088FC41F648424FF49061A018FBF7D1
:1048D0003EFF86F8448C86F8458CB9F1000F04D071
:1048E000F5BB204605F023FB0546CDBB04F50C7057
:1048F00004F04AFB050041D104F5107004F055FBAB
:1049000005003BD104F5317104F1480004F08CFC42
:10491000050033D104F52A7004F0B2FC05002DD156
:1049200004F53A7004F01DFB050027D104F53F7033
:1049300004F0C1FC050021D194F8D40204F51371F0
:1049400004F015FA050019D104F5237004F0F0F90C
:10495000050013D104F5987004F053FB050000E046
:104960000CE00BD104F10C0007C88DE807002046CD
:10497000228B6178A36805F0BAFB054604F57F72C7
:104980001821002004F02BFA04F59562182100206C
:1049900004F025FA04F254520C21002004F024FC07
:1049A000204605F083FD204600F038FB204604F049
:1049B00053FD2846BDE8FE837F2807D9C0F1FF03D9
:1049C00003F0070308330B70803804E000F007039E
:1049D0000B70C0F17F00C00810707047C1B2000AB0
:1049E0008140481C70474000801CC0B270472DE9D0
:1049F000FF470026DDE90C87154689461C468DF8E1
:104A000000608DF804608DF808608DF80C606A46CF
:104A100001A9FFF7D1FF03AA02A9484600F027F831
:104A20009DF808009DF80020411CB2EB510129803F
:104A300000D52E8029880F22084400B2A8F8000073
:104A40000F2801DDA8F800209DF80C009DF8043027
:104A5000411CB3EB5101218000D5268021880844F8
:104A600000B238800F2800DD3A80BDE8FF870309D7
:104A7000137000F00F0008707047002105F019BB9B
:104A8000002105F02EBB424310B5100B4B43190912
:104A9000A0FB0134002202FB014100FB0211180BB4
:104AA00040EA0150090BD0F1FF338A4101D24FF0A7
:104AB000FF3010BD00F58050002180F8CD1308466E
:104AC0007047002100F58050012280F8CD23084670
:104AD00070472DE9FC4F814615461C4600200B9A75
:104AE00041F2742309F5317609EB03070190012A9D
:104AF0000FD0A160B6F90C20B6F90E1095F82E3043
:104B0000B0684FF0010B43B195F82830012B04D069
:104B10001DE0A8880844A060ECE73B68BBB169468B
:104B20004846FFF7BAFC9DF8000008B98DF800B0C0
:104B300099F8B401012801D0386804E09DF800001C
:104B400007EB80004068B7F90420B7F9061095F824
:104B50002E30134303D1637943F00103637195F859
:104B60002E300B4303D1637943F00203637100B924
:104B7000012095F82E30012B18D09301B3FBF0F3F0
:104B80000FFA83FC8B01B3FBF0F3A5F82AC01BB22C
:104B9000AB8595F828804FF4803E4FF6FF7AB8F148
:104BA000000F08D0B8F1010F12D025E0B5F92AC0E6
:104BB000B5F92C30EDE7A16801FB0CF080117045D0
:104BC00000DB5046A0815943881112E0504612E0A4
:104BD000A368C31AD81703EB1070001102EB800012
:104BE000704500DB5046A081502093FBF0F001EBB4
:104BF00080007045EADAE081687801284AD10C9893
:104C000001284CD084F806B069464846D4F808A07C
:104C1000FFF743FC99F8BC219DF800004FF0000E0F
:104C2000083740B399F8B401012824D1BAF1000F34
:104C300021D03068AAEB0000C11700EBD150401220
:104C400012B1296C814202DC84F806E025E0BAFB4F
:104C5000F2F3002001464FF0640C521E07E01844A6
:104C6000B0FBFCF88044491C47F8048BC9B2914260
:104C7000F5D3C7F800A0A07960B1A0683060A08922
:104C8000B080E089F080A878012803D185F801E0A0
:104C900085F802E00C98012801D084F800B0019852
:104CA000BDE8FC8F2DE9F04742F2E001451841F2E2
:104CB000CC31471841F210414618D5E95A104FF04F
:104CC000000AD5F860410144D14605F5A2750CB93A
:104CD0004FF47A744FF47A72A1FB02084FF0000C83
:104CE00009FB028201FB0C2122466346FBF7DCFA3A
:104CF0004FF47A72A0FB02C801FB0281002300FB83
:104D0000031160462246FBF7CFFAEA8ABC684D469B
:104D1000544354EA050201D1012400254FF47A32AC
:104D2000A0FB027C01FB02C1002300FB0311224611
:104D30002B463846FBF7B8FA4FF47A32A0FB027CD8
:104D400001FB02C1002300FB031122462B4638461B
:104D5000FBF7AAFA7060022801D202207060504668
:104D6000BDE8F0872DE9F14F84B00020039004984E
:104D700042F2E00100EB010841F2CC31451841F26A
:104D80001041441842F2702100EB010900268346CD
:104D900000F53170CDE90060B246374602A95846A9
:104DA000FFF77BFB9DF8080018B19BF8B4010128C0
:104DB00002D001208DF80800404600F092F9686AA0
:104DC00030B19DF808104843B8F87811884201D9ED
:104DD000012200E000229BF8B401012805D19BF8D4
:104DE000BC019DF80810884201D1012000E000209C
:104DF0002978012907D132B198F88E21092A02D1E8
:104E000008B1012200E0002298F88E014FF0000B5B
:104E100009283AD0012938D1022698F8121016E054
:104E200007EB470000EB071308EB830090F85E30B8
:104E3000092B0AD1B0F95A00AB8F984201DC002649
:104E400003E0022E01D1012600977F1CFFB2B94278
:104E5000E6D8022E00D100260098012E00EB40017A
:104E600001EB001108EB8100B0F848000DD14FF4C0
:104E70007A71A0FB0101490241EAD0512B6B40023B
:104E8000C01A71EB0B0100D30026002A7ED0C4F8B3
:104E900010B00498FFF706FF0198D8F87C1100685D
:104EA0008700A888CA1B4FEA800812EB080000D5CB
:104EB0004042AA69824208DAA7EB0800884201DA78
:104EC000012000E0022089F802002068401C2060D8
:104ED0006A69904205D9012089F804004FF0020A5E
:104EE00006E0D4E90220511840EB0B00C4E902109F
:104EF000D4E90020824201D24FF0010AD4E9020134
:104F00000023FBF7D1F9C21B12EB080100D549427F
:104F1000BAF1000F10D1EA698A4208DCA7EB080257
:104F2000824201DA012200E0022289F80320EA69C4
:104F30008A4201DD4FF0020A5F4689F801B0BAF1FA
:104F4000000F0BD1296A49B19DF8082051438142D5
:104F500004D2012189F801104FF0020A297C0029AE
:104F6000E96803D0814203D2084601E08142FBD8C0
:104F70008108B1F5802F00D32749BAF1000F4FF017
:104F800001000CD000904B462A4600E015E001904D
:104F90000498FFF79EFDBAF1020F07D00DE0CDE9AE
:104FA00000074B462A460498FFF793FD002044F87B
:104FB000087B014684E88300083C0027012E26D1A7
:104FC0002069401C2061696B884200D20127A96BCF
:104FD00057B10120CDE900B04B462A460498FFF7AF
:104FE00078FD022F0CD012E0CDF800B04B462A46D7
:104FF000CDF804B00498FFF76CFD022089F800009A
:105000000020C4E90200C4F800B0C4F810B003984E
:1050100005B0BDE8F08F0000FFFF030070B542F25D
:10502000E0020146831800F58050012280F8CC236D
:1050300080F8CD23002280F8CE23A0F8D02364246A
:10504000C0E9F54280F8DC23C824C0F8E0434FF4FF
:105050000064C0F8E4434FF49A74C0F8E8434FF496
:105060002054C0F8EC438024C0F8F04380F8F423C7
:105070006400A0F8F643A0F8F84380F8FA234FF054
:105080005C74C0F8FC432824C0F800444FF4CD748D
:10509000C0F804444FF46174A0F8084400F573703C
:1050A0007824C0E9104241F2184600258264755008
:1050B00001F58051C1F81C544265184600F011F802
:1050C000104670BD00F58050002180F8CC130846D2
:1050D0007047002100F58050012280F8CC2308465B
:1050E0007047002180F8901180F8911180F892119A
:1050F00080F8931180F8941180F8951180F896113A
:10510000C0F89811A0F89C11A0F89E1108467047AD
:1051100000F58050002180F8CE130846704700212A
:1051200000F58050012280F8CE2308467047F0B584
:10513000024602F50A5492F83930B2F8365303EBBE
:105140008302002004EB42074FF6FF7CF880B1F8A1
:105150004A3001228E7C0CE002EB420404EB021484
:1051600001EB8404B4F84A409C4200D92346521C07
:10517000D2B29642F0D82BB1A903B1FBF3F5B5F545
:10518000803F00D36546FD80F0BD012104F091BF52
:10519000012104F0A6BF072805D9C0F10F0000EBDC
:1051A000C100803003E0C1F10F0100EBC1001070BD
:1051B00070470022114648B1401E02E04008491CD9
:1051C00089B2020AFAD161F31F2082B210467047F9
:1051D00000EB0110107070472DE9F04103464FF4C9
:1051E0007A3583FB057614464FF000000A0001462D
:1051F000054604D0002338463146FBF755F874B114
:10520000C90241EA5051C0026A084FEA3403C0188B
:10521000514122460023FBF747F8BDE8F081C00268
:10522000FBE72DE9FF4F83B00020DDE9104B029032
:105230006083606120832061E0612062A084E0845B
:10524000ABF80000B3F886001D4616460F46F0B3D3
:10525000D5F88810D9B3FFF750F8D5F888304FF457
:10526000006210215B1C7C35FFF70DFC2060AA6AF0
:105270000146104604F0D3FD208335F8281B226830
:1052800055F8A409FFF7A8FF6061F18AA181F18AAE
:10529000B0F1000961831FD0308B4FF47A71A0FB0D
:1052A00001284FF0000A0AFB018100FB0A100103EC
:1052B00010034FEA590341EA1251C01841EB0A01A9
:1052C0004A465346FAF7F0FFF38AC31A00E003E0B8
:1052D00071EB0A0100D260833888B0F1000A7ED0F9
:1052E000B5F886000028FAD0F888002877D0D5F8DD
:1052F0008800002873D079884FF47A32A1FB020825
:105300004FF0000909FB028201FB09214FEA5A0212
:10531000801841EB090152464B46FAF7C5FF0001E0
:1053200020610190206861698246A1FB003C09FB75
:1053300000C001FB0901608B0090A0FB03C809FBC2
:10534000038200FB01204FF480211CEB010140F19E
:105350000000C90C41EA4031C20C4FF4FA70081841
:1053600042F100014FF47A720023FAF79DFF6FF0CB
:105370007F4300221B1A8A4101D26FF07F40E06117
:1053800001998146A1FB0A3C002202FB0AC001FBF5
:1053900002000099A1FB03C802FB038201FB00206D
:1053A0004FF480211CEB010140F10000C90C41EADF
:1053B0004031C30C3A890398A0FB022CA2FB0108E0
:1053C0000CFB018102FB0312F988CB01181842EB98
:1053D000516C4FEA11634FEA0122614600E040E060
:1053E000FAF762FF4FF4FA72801841F1000152009F
:1053F0000023FAF759FF6FF07F4300221B1A8A41FE
:1054000001D26FF07F4020624FEA092003F08AFF4B
:105410000146707872684843E169914204D2511A9A
:105420000902884200D208463378BA88216A00F01F
:105430001CF8E084B5F88200216A337848430830CC
:105440000109B068BA88000200F00FF800B2A08429
:10545000B4F92610884202DAABF8000001E0ABF89C
:105460000010029807B0BDE8F08F70B51C468000B0
:1054700003FB040015460E4603F054FF04443001BC
:1054800003F050FF6843002C03D020446100B0FBC0
:10549000F1F070BD10B50446002018216170207035
:1054A000A0702071A0600146E0602218117482F89B
:1054B000281082F8401004EB8002401C42F8B81F0C
:1054C000C0B2116662788242EFD884F87811082061
:1054D00084F8790184F87A1104F5277218210020E4
:1054E00003F07DFC04F552721821002003F077FCD4
:1054F00004F57D721821002003F071FC04F594621C
:105500001821002003F06BFC04F24C521821BDE876
:105510001040002003F063BC2DE9F047154681469A
:105520000C460026AC222846FBF7D7F8B24605E029
:1055300005EB8601761CF6B2C1F818A0687AB04275
:10554000F6D84946204600F09AFF014699F80A002D
:10555000A77AB84200D2074600202BE0002908DBDA
:1055600041FA80F294F90A3092FBF3F603FB16221B
:1055700008E094F90A2041FA80F3134493FBF2F611
:1055800002FB163252B202F0FF0804EB880209EB6C
:10559000800C9369DCF81860B34202DD9B1B9361B9
:1055A00001E0C2F818A005EB8803DCF81820401CC5
:1055B000C0B29A61B842D1D3BDE8F0872DE9FF4F60
:1055C00081B00746DDE90FA400200E9D064600903D
:1055D000687A6070287A2070A87AA070D5F8A40044
:1055E000A0609B46914695F88400FFF7FCF9E070B7
:1055F000D5F8A4000022A0FB073CC11701FB07C19E
:1056000000FB02114FF40060181841F100014FF443
:1056100080520023FAF7BFFE80462EE005EB96008D
:10562000877C002F27DD9AF80A00B04209D9BBF128
:10563000000F06D00AEB8600816901EB0800784371
:1056400001E007FB08F003F06DFE07EBD77100EBFC
:10565000610090FBF7F0029948430830C11700EB56
:10566000117008EB20104946484500DA084604EB63
:1056700086018865E060761CF6B2A87AB042CDD883
:1056800000232371287A012215E005EB800104EB49
:1056900080068969B66DB14204EB000106DD0A742B
:1056A00081F828202179491C217102E00B7481F8CE
:1056B0002830401CC0B2A97A8142E6D8009805B0D3
:1056C000BDE8F08FF0B5002780F8787139463D4687
:1056D000C47819E04A1CB2FBF4F3164604FB13220B
:1056E0008378D2B28B420ED993420CD9431893F8E7
:1056F000283043B9024492F82820012A03D115B971
:1057000080F878110125F1B28C42E3D83846F0BD1B
:1057100030B5002590F878112CE0B1FBF3F203FBD3
:105720001212491CB1FBF3F403FB14138478DBB2AF
:1057300094421ED99C421CD9024492F828404CB98C
:10574000034493F82830012B04D190F87A315B1C84
:1057500080F87A3190F87A4190F879319C4201D9F9
:1057600080F87A3192F828300BB190F87A3182F8CB
:105770004030C9B290F87821C3781A448A42CCD814
:10578000284630BDF0B5C1780027491EC1F3460652
:1057900090F878215BE0B2FBF4F1531CB3FBF4F515
:1057A00004FB112104FB15348578E4B28D424DD9F8
:1057B000A5424BD9451895F84010F1B9011991F857
:1057C0004010E9B3491E90F879C1C9B28C453DD962
:1057D00001EBC10100EB81014FF0FF0C81F87C214E
:1057E00081F87D3181F87EC14FF0000C81F87FC1D6
:1057F00081F880C195F8401011B3011991F840105B
:10580000F1B995F8401090F87941491EC9B28C421F
:105810001CD901EBC10100EB810181F87F2181F8E6
:10582000803191F87D41D2B2121B521C81F8812146
:1058300091F87C219A1A521CD2B281F8822100E0A0
:1058400004E001F5BE71B24200D98E71DAB290F86F
:105850007811C478214491429DD83846F0BDF0B506
:10586000034603EBC30302EB83030020C3F8880164
:10587000C3F8840193F87C4193F8806103F5BE730B
:1058800010E0D578B4FBF5F705FB174501EB85056E
:10589000DF68AD69641C3D44DD609D689768E4B2D3
:1058A0003D449D60A642ECD2D3E90221891A1961D8
:1058B000F0BD2DE9F04100EBC00002EB8005069E33
:1058C00014461F464FF00008AC22304605F5BE7561
:1058D000FAF703FF94F8780111E02A78824202D89F
:1058E0002A79824209D2B0FBF1F201FB1201B27AAD
:1058F0008A4202D906EB81018F61401CC0B294F844
:105900007821E1780A448242E7D84046BDE8F08138
:105910002DE9FF4F91B04FF00009DDE91EA5229C53
:10592000DDF880C0CDF82090CDF82490CDF82890F7
:105930009B46CDF82C90CDF83090CDF83490CDF832
:1059400038904FF6FF76CDF83C90DAB3B0FBF2F129
:1059500002FB11080CA809AFCDE900700BAB624641
:105960005946404600F0ECF90AA8CDE9007008ABB2
:105970002A465946404600F0E3F9BAF1000F09D033
:105980000FA90EA8CDE900010DAB59464046219A5A
:1059900000F0D6F9B5F88600D5F8A4100F9A079450
:1059A0000492CDE905100BAF97E80F0003928DE844
:1059B0000B0008AF129897E80E0000F0F4F90F30D2
:1059C00007D007E0FFE726806FF00E0015B0BDE8B6
:1059D000F08F26804846F9E72DE9FC4700EBC00030
:1059E00003EB80041E4694F87E019046894604F538
:1059F000BE74FF2801D10120A070F278C1B2B1FBC2
:105A0000F2F002FB1013207825791844401A2B4439
:105A1000591A00B20FB2391A0DB2032D00DD032559
:105A200004F11401CDE90081411909B24B4600F09F
:105A300022F950B904F11C00CDE90080781BF278FE
:105A400000B24B46394600F016F9E26961699142AD
:105A500001D96261E161D4E90521914200D261611D
:105A6000D4E90612914200D9E161BDE8FC872DE935
:105A7000F047804691F87A018AB00F464FF0000A4D
:105A8000E946012829D90020012420E004EBC401C3
:105A900007EB810505F5AC7605F5BE75B8F1020F8B
:105AA0001FD0B169AA6991420FD9242229464846DC
:105AB000FAF713FE242231462846FAF70EFE242276
:105AC00049463046FAF709FE0120641CE4B297F813
:105AD0007A11A142DAD80028D5D10AB05046BDE8E3
