:020000040800F2
:10000000A8300020AD010008B5010008B7010008C4
:10001000B9010008BB010008BD0100080000000094
:10002000000000000000000000000000BF01000808
:10003000C101000800000000C3010008791C00088D
:10004000C7010008C7010008C7010008C701000870
:10005000C7010008C7010008C7010008C701000860
:10006000C7010008C70100084D070008C7010008C4
:10007000C7010008C7010008C7010008C701000840
:10008000C7010008C7010008C70100080000000000
:10009000000000000000000000000000C701000890
:1000A000C7010008C7010008C7010008C701000810
:1000B000C7010008C7010008C7010008C701000800
:1000C000C7010008C7010008C7010008C7010008F0
:1000D000C7010008C7010008C701000800000000B0
:1000E000C7010008C7010008C701000800000000A0
:1000F000000000000000000000000000C701000830
:1001000000000000C7010008C7010008C70100087F
:1001100000000000000000000000000000000000DF
:10012000C7010008C7010008C7010008C70100088F
:10013000C7010008000000000000000000000000EF
:10014000000000000000000000000000C7010008DF
:10015000C7010008C7010008C7010008C70100085F
:10016000C7010008C70100080000000000000000EF
:10017000000000000000000000000000000000007F
:1001800000000000C701000800000000000000009F
:10019000C7010008DFF810D000F0B4FA00480047AB
:1001A00031330008AFF30080A830002006488047B4
:1001B00006480047FEE7FEE7FEE7FEE7FEE7FEE74C
:1001C000FEE7FEE7FEE7FEE7291D000895010008AF
:1001D0002DE9F05F0546002092469B46884606467C
:1001E000814640241BE0284641464746224600F00F
:1001F000D6F853465A46C01A914110D311461846B4
:10020000224600F0BDF82D1A67EB01084F46224642
:100210000120002100F0B4F817EB00094E41201E28
:10022000A4F10104DFDC484631462A464346BDE8D6
:10023000F09F40EA01039B0703D009E008C9121FA1
:1002400008C0042AFAD203E011F8013B00F8013B90
:10025000521EF9D270472DE9FE4F81EA030404F0E3
:10026000004421F0004100944FF0000B23F00043C4
:1002700050EA01045ED052EA03045BD0C3F30A548F
:10028000C1F30A552C44A4F2F3340194A0FB0254A8
:10029000C1F3130141F48011C3F3130343F480133A
:1002A00001FB024400FB034E840A970A44EA81548E
:1002B00047EA8357A4FB076802958D0A05FB07856B
:1002C0004FEA932C04FB0C542705029D4FEA065875
:1002D00047EA1637B5EB08056EEB070C870E920E52
:1002E00047EA811742EA8312A7FB0201B6EB0B0132
:1002F00064EB00042B0D43EA0C335E1844EB1C50F6
:10030000DA465146E7FB0201C5F313044FEA0B330B
:1003100043EA14534FEA0432019C43EA0603A4F172
:100320000C040294009CCDE900B400F057F803B02F
:10033000BDE8F08F00200146F9E70EB540F23341E9
:1003400002910021CDE900110A460B4600F046F863
:1003500003B000BD30B50B46014600202022012429
:1003600009E021FA02F59D4205D303FA02F5491B83
:1003700004FA02F52844151EA2F10102F1DC30BD99
:10038000202A04DB203A00FA02F100207047914055
:10039000C2F1200320FA03F3194390407047202A4A
:1003A00004DB203A21FA02F00021704721FA02F31F
:1003B000D040C2F12002914008431946704710B561
:1003C000141E73F1000408DA401C41F10001921878
:1003D0005B411A4301D120F0010010BD2DE9F04D21
:1003E00092469B4611B1B1FA81F202E0B0FA80F276
:1003F00020329046FFF7C4FF04460F4640EA0A0049
:1004000041EA0B0153465A46084313D0114653EABA
:10041000010019D0C8F140025046FFF7C0FF054661
:100420000E46504659464246FFF7AAFF084305D0FC
:10043000012004E020463946BDE8F08D0020054348
:1004400046EAE0762C4337430A986305E40AA0EBBA
:1004500008000022FD0A44EA47540A3002D5002071
:100460000146E9E7010510196941DDE90845001970
:100470006941BDE8F04DA2E72DE9FE4F804681EAD3
:100480000300C00F0C46009021F0004123F000450E
:10049000B8EB0200A94105D24046214690461C46D1
:1004A0000B46024623F00040104347D0270DC7F308
:1004B0000A00C3F30A510290401A019040286BDAF7
:1004C000C3F3130040F4801B0098924620B1002330
:1004D000D2EB030A63EB0B0B01985946C0F14002C3
:1004E0005046FFF74DFF06460D4650465946019AC5
:1004F00000F01AF910EB08006141002487EA11525C
:1005000084EAE7731A4340D0009A62B3019A012A41
:100510004FEA075215DC001B61EB02014FF000426D
:1005200002EA0752CDE90042001C41F58011324633
:100530002B46FFF753FF03B0BDE8F08F404621463E
:10054000F9E7001B61EB0201001C41F58013001864
:100550005B412018A2F5001747EB030140EAD57074
:10056000B6196D4111E06D084FEA360645EAC075CF
:100570004FEA0752001B61EB0201001C41F580119C
:1005800049084FEA30000019514132462B4603B06A
:10059000BDE8F04FFFF713BF009801224000002391
:1005A000D0EB020263EBE073009821464FEAE0745F
:1005B000B8EB000061EB0401E9E783F000435BE77F
:1005C00081F0004158E72DE9F04D81EA030404F081
:1005D000004B21F0004514464FF0000A23F0004183
:1005E00050EA050220D054EA01021DD0C5F30A5793
:1005F0000246C5F31303C1F31300C1F30A5640F4D6
:10060000801543F48013A7EB0608101BD64608F2AA
:10061000FD3873EB050002D308F1010801E09218E0
:100620005B41B8F1000F03DA00200146BDE8F08D10
:1006300000204FF48011064684460EE0171B73EB32
:10064000050705D3121B63EB050306434CEA010CB7
:1006500049084FEA300092185B4150EA0107EDD19A
:1006600052EA030012D082EA040083EA050108433B
:1006700005D0101BAB4106D20122002306E0002268
:100680004FF0004302E06FF0010253101AEB060036
:100690004CEB085110EB0A0041EB0B01BDE8F04DAB
:1006A000FFF78DBEC1F30A52C1F3130140F2FF33CD
:1006B00041F480119A4202DA00200146704740F26C
:1006C00033439A42A2F2334202DC5242FFF767BE42
:1006D000FFF756BE30B5041E71F1000404DB4FF085
:1006E0000044404264EB0101141E73F1000405DB79
:1006F0001C464FF00043524263EB0403994208BF8B
:10070000904230BD064C074D06E0E06840F0010322
:1007100094E8070098471034AC42F6D3FFF73EFD4B
:1007200084350008A4350008202A06DBCB17203AC0
:1007300041FA02F043EAE07306E041FA02F3D040E6
:10074000C2F120029140084319467047102000F082
:1007500019B831B500F0F6F8009C0546601C00D0D1
:10076000641C00F0EFF8401BA042FAD338BD000033
:10077000102803D102484169491C416170470000BB
:1007800000000020044910B50A68024202D0086047
:10079000FFF7EEFF10BD0000143C01402DE9F84FBB
:1007A000DFF86C91002209F1040A0AF1040B4FF002
:1007B0000F080BF1040E01260B6896403340B3423C
:1007C00071D14C68022C01D0122C11D1D40800EB4D
:1007D00084073D6A5407E40E08FA04FC25EA0C0578
:1007E000D1F810C00CFA04FC4CEA050CC7F820C084
:1007F00007685400032591F804C0A5400CF0030CD1
:10080000AF430CFA04FC4CEA070CC0F800C04F6878
:10081000012F05D0022F03D0112F01D0122F11D19B
:100820008768D1F80CC0AF430CFA04FC4CEA070C03
:10083000C0F808C04768B7430E79C6F30016964063
:100840003E434660C668AE438D68A5403543C560EB
:100850004C68E40056D52F4C256845F4804525604A
:10086000246822F0030504F4804400942A4C2E19D5
:10087000D6F808789407250F08FA05F4A743274C03
:10088000A04201D1002415E0254CA04201D1012451
:1008900010E0244CA04201D102240BE0224CA042E3
:1008A00002D1032406E02DE0204CA04201D1042413
:1008B00000E00724AC403C43C6F80848D9F80040A3
:1008C0004D464E689C43F60300D51C432C60DAF875
:1008D000004055464E689C43B60300D51C432C602F
:1008E000DBF800405D464E689C43F60200D51C4391
:1008F0002C60DEF8004075464E689C43B60200D579
:100900001C432C60521C102AFFF455AFBDE8F88F31
:10091000003C0140443802400030014000000240E9
:100920000004024000080240000C02400010024097
:100930000069084000D0012070470AB1816170470A
:100940000904FBE701480068704700002000002010
:1009500070B5040004D094F83D00002510B106E005
:10096000012070BD84F83C50204600F005FA242098
:1009700084F83D002068016821F00101016000F069
:1009800081FB33492268B0FBF1F15160314A636861
:10099000934206D94FF4967359434FF47A73B1FBDF
:1009A000F3F12368491C1962616891420BD8490030
:1009B000B0FBF1F2C2F30B02042A01D2042019E0C9
:1009C000B0FBF1F016E0A3689BB301EBC10202EBB0
:1009D0000112B0FBF2F242F48042120530D04BB368
:1009E00001EBC10202EB0111B0FBF1F040F48040D9
:1009F00040F400402168C861D4E907010843216838
:100A00000860D4E90310084321688860D4E905012F
:100A100008432168C8602068016841F00101016055
:100A20002564202084F83D00256384F83E50002092
:100A300070BD00E006E001EB4102B0FBF2F2CCE752
:100A40000120D7E701EB4101B0FBF1F0D0E7000056
:100A500040420F00A08601002DE9F84F1F46904646
:100A60008A460446DDF82890FFF76CFF054694F8A7
:100A70003D0020286FD1192301226E4920460095A0
:100A800000F0BDFE0028F5D194F83C00012862D0AA
:100A9000012084F83C0020680168C90703D101687F
:100AA00041F0010101602068016821F400610160EA
:100AB000222084F83D00102084F83E0000262664A1
:100AC000C4F8248067855C48E062608D20852B46F1
:100AD0004A465146204600F0B2FD28B1206C84F809
:100AE0003C60042841D04DE0208D544F68B101286E
:100AF00014D002282068016816D041F4806101609A
:100B0000206841698069009085E0206841698169B9
:100B10000091016841F4007101607CE02068016887
:100B200021F480610160F0E721F4806101602068B8
:100B3000016841F40061E2E7032849D801280BD09D
:100B4000022817D04B46002239462046009500F077
:100B500056FEB8B92AE06AE02A464946204600F027
:100B6000C1FE28B1206C20280CD00120BDE8F88FF0
:100B7000206845E04B46002239462046009500F0AB
:100B80003EFE08B10320F1E72068016841F40071DE
:100B9000016020680169606A421C62620170208DF8
:100BA000401E2085608D401E6085E1E72068016859
:100BB00021F48061016020680169606A421C626200
:100BC0000170208D401E2085608D401E6085D1E71C
:100BD0002A464946204600F085FE0028C2D12068FA
:100BE0000169606A421C62620170208D401E20858E
:100BF000608D401E608520684169C94349070AD459
:100C00000169606A421C62620170208D401E20856D
:100C1000608D401E6085208D00288DD1202084F8B5
:100C20003D0084F83E6084F83C6000209EE702208E
:100C30009CE70000020010000000FFFF040001001C
:100C40002DE9F84F1F4690468A460446DDF8289065
:100C5000FFF778FE054694F83D0020287ED1192341
:100C6000012243492046009500F0C9FD00287DD1AE
:100C700094F83C00012879D0012084F83C002068D9
:100C80000168C90703D1016841F0010101602068D2
:100C9000016821F400610160212084F83D001020EA
:100CA00084F83E0000262664C4F824806785314815
:100CB000E062608D20852B464A465146204600F072
:100CC0002DFD28B1206C84F83C6004284CD00DE048
:100CD000206841698069009030E02A4649462046F4
:100CE00000F032FE28B1206C042838D00320BDE883
:100CF000F88F606A411C6162216800780861608D2C
:100D0000401E6085208D401E80B2208521684A6982
:100D1000D24352070BD450B1606A421C6262007821
:100D20000861608D401E6085208D401E20852A460A
:100D30004946204600F03CFD0028D4D1208D0028F3
:100D4000CBD154F83D0B016841F4007101602020C3
:100D500004F81E09E67766770020C8E706E02068F9
:100D6000016841F4007101600120C0E70220BEE784
:100D7000020010000000FFFF00B500680E4987B0B8
:100D8000884217D14FF4407000901220019001204A
:100D90000290032003900420049069460748FFF75F
:100DA000FDFC0748016841F400110160006800F48F
:100DB0000010059007B000BD005400400004024040
:100DC0004038024002480168491C01607047000039
:100DD000200000200B4810B5016841F4007101604B
:100DE000016841F480610160016841F48071016033
:100DF000032000F075F8002000F006F800F018F865
:100E0000002010BD003C024010B5044607484FF4D6
:100E10007A710068B0FBF1F000F033FB002221464C
:100E2000501E00F03DF8002010BD000024000020FE
:100E300010B5072000F054F8002211466FF00B00A7
:100E400000F02EF8002211466FF00A0000F028F89A
:100E5000002211466FF0090000F022F8002211462E
:100E6000501F00F01DF800221146101F00F018F866
:100E700000221146901E00F013F80022BDE8104039
:100E80001146501E00F00CB800F01F0201219140E5
:100E90004009800000F1E020C0F800117047000018
:100EA000F0B40E4B1B68C3F30223C3F10704042CF8
:100EB00000D904241D1D072D01D2002300E0DB1EF4
:100EC000012606FA04F56D1E0D409D409E40761EDB
:100ED000164045EA0601F0BC00F0BEBE0CED00E095
:100EE000064A00F0070110684FF6FF03184040EA79
:100EF0000120034908431060704700000CED00E03A
:100F00000000FA052DE9F047DFF85C9104460E4633
:100F1000D9F8000000F00F01F0B28046B14207D2CC
:100F200089F80000D9F8000000F00F00B04271D13C
:100F300020784E4F800705D53868A16820F0F00072
:100F4000084338602078C00756D04849606808399F
:100F500001281AD002281BD0032819D00968890754
:100F6000002957DA396821F0030101433960FFF79E
:100F7000E9FC0546606841F28831012811D0022859
:100F80001CD003288A4625D032E009688903E7E7A8
:100F900009688901E4E7FFF7D5FC411B514501D9F8
:100FA00023E08A463868C0F381000128F3D123E0AA
:100FB000FFF7C8FC411B514501D916E08A46386845
:100FC000C0F381000228F3D116E0FFF7BBFC411B00
:100FD00051450AD83868C0F381000328F5D10BE0E9
:100FE000FFF7B0FC411B514502D90320BDE8F08753
:100FF000386810F00C0FF3D1D9F80010484601F012
:101000000F01B14208D980F80080006800F00F009D
:10101000B04201D00120E9E72078400705D53868C3
:10102000E16820F4E050084338602078000706D5D6
:101030003868216920F4604040EAC100386000F05F
:1010400051F83968F02292FAA2F201F0F001B2FAF6
:1010500082F2D140064A515CC8400649086000202F
:10106000FFF7D2FE0020C1E7003C024008380240F2
:101070007434000824000020014800687047000014
:101080002400002008480949006809684FF4E0522C
:1010900092FAA2F201F4E051B2FA82F2D140044A8B
:1010A000515CC8407047000024000020083802400E
:1010B0008434000808480949006809684FF4604210
:1010C00092FAA2F201F46041B2FA82F2D140044AEB
:1010D000515CC840704700002400002008380240DE
:1010E0008434000830B51948006810F00C01184825
:1010F00012D0441004290ED008290DD1134A121F12
:101100001168136801F03F015D0247F6C07304D512
:10111000B4FBF1F003E0204630BDB0FBF1F0116804
:10112000194093FAA3F3B3FA83F3D9404843116803
:101130004FF4403292FAA2F201F44031B2FA82F254
:10114000D140491C4900B0FBF1F030BD08380240E5
:101150000024F4002DE9F84F04460078DFF8F4A2EB
:10116000BD4DC00748D0DAF800105046C1F38101E8
:10117000012908D00068C0F3810002280AD1281D87
:101180000068400206D52868800335D560680028CD
:1011900070D031E06068B0F5803F10D0B0F5A02F7E
:1011A000286810D020F480302860286820F480203F
:1011B00028606068A0B1FFF7C5FB06460CE0286810
:1011C00040F48030F4E740F480202860F7E7FFF730
:1011D000B9FB801B642873D828688003F7D50BE01F
:1011E000FFF7B0FB064604E0FFF7ACFB801B64286A
:1011F000F1D828688003F7D42078DFF86082800770
:101200004FF0010B4FF0000943D5DAF800105046BB
:1012100011F00C0F4FF0F80709D00068C0F38100FF
:1012200002280BD18B48001F0068400206D42868B2
:10123000800713D5E06801281CD10FE0E068D0B129
:10124000C8F800B0FFF77EFB064604E0FFF77AFB24
:10125000801B0228BFD828688007F7D5286897FA2E
:10126000A7F22169B2FA82F220F0F8009140084317
:1012700028600EE0EBE0C8F80090FFF763FB06463D
:1012800004E0FFF75FFB801B022819D8286880075D
:10129000F7D42078000722D56E4F714861696C370A
:1012A00079B1C0F800B0FFF74DFB064604E0FFF748
:1012B00049FB801B022803D838688007F7D50EE069
:1012C00079E0C0F80090FFF73DFB064604E0FFF729
:1012D00039FB801B02286ED838688007F7D4207845
:1012E000400750D55B483830016841F080510160BB
:1012F00000685C4F00F080500090386840F48070C7
:101300003860FFF71FFB064604E0FFF71BFB801B5E
:10131000022850D83868C005F7D54E4FA068683706
:1013200001280FD00528386810D020F0010038605F
:10133000386820F004003860A068B0B1FFF702FB05
:1013400006460EE0386840F00100F4E740F0040083
:101350003860F7E7FFF7F6FA811B41F288308142E7
:101360006DD838688007F5D50DE0FFF7EBFA064633
:1013700006E0FFF7E7FA811B41F2883081425ED830
:1013800038688007F5D4A069F0B3DAF80010C1F32B
:10139000810102295BD00228484605D0C8F86000C8
:1013A000FFF7D0FA04464DE04746C8F86000FFF763
:1013B000C9FA064605E042E0FFF7C4FA801B02289E
:1013C0003DD828688001F7D4D4E90701084347F6DF
:1013D000C07292FAA2F2616AB2FA82F29140A26AF3
:1013E0004FF0FF3303EB52024FF4403393FAA3F371
:1013F000B3FA83F39A4011434FF0706292FAA2F26B
:101400000843B2FA82F200E01FE0E16A914008432B
:101410001049091F0860C7F860B0FFF793FA044647
:1014200004E0FFF78FFA001B022808D82868800123
:10143000F7D50AE0FFF786FA001B022802D903203D
:10144000BDE8F88F28688001F4D40020F8E7012077
:10145000F6E700000838024000380240000047422A
:10146000800E4742007000404FF0E02104280869D8
:1014700003D020F004000861704740F00400FAE750
:10148000704710B5401EB0F1807F01D3012010BD20
:101490004FF0E02460610F21601700F0DDFB0020B9
:1014A000A06107202061002010BD10B5FFF7E8FF04
:1014B00010BD70B5040004D094F83900002510B1B7
:1014C00006E0012070BD84F83850204600F022F874
:1014D000242084F839002068C16821F40051C160DB
:1014E000204600F04BFC2068016921F49041016125
:1014F0002068416921F02A0141612068C16841F4F6
:101500000051C160E563202084F8390084F83A0076
:10151000002070BD00B501680D4887B0814215D12B
:101520000C480021026842F400320260006800F4B6
:10153000003005900C2000900220CDE90101072029
:10154000CDE9031069460448FFF728F907B000BD4C
:101550000044004040380240000002402DE9F843BA
:10156000044690F839001E4617460D46202850D1F3
:10157000A5B19FB194F8380001284AD0012084F821
:1015800038004FF00008C4F83C80212084F839006E
:10159000FFF7D8F9A7848146E78426E00120BDE85B
:1015A000F883E08C401EE084A0684B46B0F5805F75
:1015B0004FF000024FF080012046009603D000F06B
:1015C00033FDE8B90DE000F02FFDC8B92888216887
:1015D000C0F308004860206908B16D1C05E0AD1C2F
:1015E00003E0216815F8010B4860E08C0028D8D191
:1015F0004B46002240212046009600F015FD08B120
:101600000320CCE7202084F8390084F838800020BB
:10161000C5E70220C3E701684A69D24352050CD4EA
:101620006FF480624A6104210164002140F8301F98
:1016300020224273017301207047002070472DE97A
:10164000F84F0446C06A1D4692460F4621680A6854
:1016500042F480620A60042807D0012805D010F502
:10166000803F02D0206B112804D12068016841F42A
:10167000807101604FF00118534600224146204618
:10168000009500F0BCF8B8BB206908F10109B0F57D
:10169000804F12D00620216800EAD71646F0F000ED
:1016A00008612B46524608F10701204600F0D7F8A2
:1016B00038B1206C04282FD01EE0F8B240F00100B1
:1016C0001FE02168F8B208612B4652464946204681
:1016D00000F0C5F80028ECD12068416981690091CB
:1016E000016841F480710160534600224146204662
:1016F000009500F084F810B10320BDE8F88F46F0A3
:10170000F100216808612B4652464946204600F008
:10171000A6F80028CDD1F0E70120EEE7F8B50446A1
:10172000C06A1E460D461746042807D0012805D07A
:1017300010F5803F02D0206B122804D12068016888
:1017400041F480710160134600224FF001112046E0
:10175000009600F054F8A0B92069B0F5804F12D07F
:101760000620216800EAD51040F0F00008613346F9
:101770003A460E49204600F072F838B1206C042831
:1017800011D00320F8BD05F0FE0000E0E8B22168AA
:101790000861064933463A46891F204600F05FF843
:1017A0000028EBD1F8BD0120F8BD000008000100C1
:1017B00070B516460D4604461AE02046FFF72BFF8B
:1017C00008B1012070BD681C12D025B1FFF7BAF82E
:1017D000801BA8420CD954F8400F40F0200044F878
:1017E000100900202060202161732073032070BD48
:1017F00020684069C0434007DFD4002070BD2DE958
:10180000F0471D4690460E460446C1F30747DDF8F3
:10181000209012E0681C10D02DB1FFF793F8A0EBD8
:101820000900A84209D9002044F8300F2021617333
:10183000A07320730320BDE8F0872068012F0AD031
:10184000806926EA00000004000C06D00020404514
:10185000E0D00020EFE74069F3E70120F7E72DE94A
:10186000F047984615460E4604464FF000094FF0E3
:10187000200AC1F3074729E020684069C0434005BA
:1018800013D42068016841F40071016021686FF48D
:101890008060486104202064C4F8309084F83DA042
:1018A00084F83C900120BDE8F087681C0ED02DB173
:1018B000FFF748F8A0EB0800A84207D944F8309F8A
:1018C00084F80DA084F80C900320ECE72068012F29
:1018D00006D0806926EA00000004000CE3D0CBE7C4
:1018E0004069F7E72DE9F04116460D46044600270A
:1018F0004FF0200821E04069C043C0060CD42168A5
:101900006FF0100048612764276384F83D8084F8F5
:101910003C700120BDE8F08125B1FFF713F8801B72
:10192000A8420AD954F8400F40F0200044F80409B6
:1019300084F8018027700320ECE720684169C943DF
:101940004906D8D40020E5E770B516460D46044692
:101950001AE02046FFF75FFE08B1012070BD681C49
:1019600012D025B1FEF7EEFF801BA8420CD954F827
:10197000400F40F0200044F8100900202060202192
:1019800061732073032070BD20684069C043000666
:10199000DFD4002070BD00002DE9F0472DED028B53
:1019A00086B04FF0010956A001F050F861A001F097
:1019B0004DF853A001F04AF86B4CE06800F5005078
:1019C00090F8500A00F046FC2061E0684FF47A710C
:1019D00000F5005090F8500A00F0C4FC2061E06867
:1019E000012100F5005090F8500A00F0F3FC20614E
:1019F000E06840F2DC5100F5005090F8500A00F029
:101A000032FD2061E0682D2100F5005090F8500A69
:101A100000F01DFD2061E068102100F5005090F8F5
:101A2000500A00F0EDFC2061E06800F5005090F8ED
:101A3000500A00F022FD206148B101464BA001F0A0
:101A400005F8206906B0BDEC028BBDE8F0874FF0C9
:101A5000000AC4F814A030BF6069E8B342490831F5
:101A6000881ECDE90001E0680B1F00F500508A1FB9
:101A700090F8500A083900F059FBC4F814A0A08867
:101A8000FEF75BFC9FED458B53EC182BFEF7E3FB59
:101A9000074688462089FEF750FC53EC182BFEF7CA
:101AA000DAFB05460E46E088FEF747FC53EC182BA0
:101AB000FEF7D1FB41EC100B20786188CDE90410D2
:101AC0008DE8E00153EC102B364800F0BFFF32A048
:101AD00000F0BCFFE06800E006E000F5005090F880
:101AE000500A00F01EFB2061B9F1000FB3D1E0688D
:101AF00000F5005090F8500A00F0C3FC2061A1E707
:101B00002A2A2A2A2A2A2A2A2A2A2A2A2A2A2A2A35
:101B10002A2A2A2A2A2A2A2A2A2A2A2A2A2A2A2A25
:101B20002A2A2A2A2A2A2A2A2A2A2A2A2A2A2A2A15
:101B30002A2A0A005374617274696E6720756C7486
:101B40007261206C6F7720706F776572202D207026
:101B50006F77657220636F6E73756D7074696F6EE9
:101B600020363575410A000000000020564C353300
:101B70004C3343585F554C505F53746172745261DB
:101B80006E67696E67206661696C65643A2065728C
:101B9000726F72203D2025640A00000000000000E2
:101BA0000000F03E3835000870B5274886B00024A4
:101BB000016841F004010160016801F00401059130
:101BC000016841F080010160016801F08001059128
:101BD000016841F001010160016801F00101059116
:101BE000016841F0020101600068184E00F0020037
:101BF0000590002220213046FEF79FFE144D4FF441
:101C00000050CDE90005694602941248FEF7C6FD72
:101C10001020CDE900050125694630460295FEF702
:101C2000BDFD20200090CDE9015469463046039463
:101C3000FEF7B4FD002211460A20FFF731F90A2011
:101C4000FFF722F906B070BD3038024000000240B4
:101C500000002110000802400907090E002806DADA
:101C600000F00F0000F1E02080F8141D704700F133
:101C7000E02080F80014704710B5FFF7A3F8BDE826
:101C80001040FFF712BC000030B5254893B0002586
:101C9000016841F080510160006800F080501190AF
:101CA0002048016821F4404141F40041016000688E
:101CB000022400F440401190012003901020009471
:101CC00006940490CDE907504FF4A87009900420C1
:101CD0000A9007200B906846FFF73CFA00B1FEE738
:101CE0000CA90F2081E831004FF48050CDE90F0599
:101CF00002210CA8FFF706F900B1FEE7FFF7BCF9D7
:101D00004FF47A71B0FBF1F0FFF7BBFB0420FFF753
:101D1000ABFB00221146501EFFF7C2F813B030BDD6
:101D200040380240007000401048016841F47001E2
:101D300001600F48016841F0010101600C4A002177
:101D40000832116002680B4B1A400260031D0A4AF8
:101D50001A60026822F48022026005480C3001609B
:101D600002495806803908607047000088ED00E09D
:101D700000380240FFFFF6FE103000242DE9F0414C
:101D800004460068016921F44052E1681143016191
:101D90002068C16849F20C6291432369A268E56931
:101DA0001A4363692B431A430A43C260206841699E
:101DB000A26921F440710A434261E0696425B0F5EB
:101DC000004F974A974920684FF032083FD0884229
:101DD00001D090427CD1FFF76DF900EBC00101EB1F
:101DE000001061688900B0FBF1F6FFF763F900EBC2
:101DF000C00101EB001061688900B0FBF1F0B0FB9D
:101E0000F5F06FF01801484306EB800108EB011074
:101E1000B0FBF5F000F0F006FFF74CF900EBC00165
:101E200001EB001061688900B0FBF1F0B0FBF5F048
:101E300006EB0016FFF73EF900EBC00101EB0010C6
:101E400061688900B0FBF1F7FFF734F9D2E088420E
:101E500001D090423DD1FFF72DF900EBC00101EB1D
:101E6000001061684900B0FBF1F0B0FBF5F006012D
:101E7000FFF720F900EBC00101EB00106168490099
:101E8000B0FBF1F7FFF716F900EBC00101EB001012
:101E900061684900B0FBF1F0B0FBF5F06FF018019C
:101EA000484307EB800108EBC100B0FBF5F000F000
:101EB000F80006EB4006FFF7FDF800EBC00101EB70
:101EC000001061684900B0FBF1F7FFF7F3F83CE060
:101ED00055E0FFF7D7F800EBC00101EB0010616897
:101EE0004900B0FBF1F0B0FBF5F00601FFF7CAF8CE
:101EF00000EBC00101EB001061684900B0FBF1F795
:101F0000FFF7C0F800EBC00101EB00106168490069
:101F1000B0FBF1F0B0FBF5F06FF01801484307EBB0
:101F2000800108EBC100B0FBF5F000F0F80006EB13
:101F30004006FFF7A7F800EBC00101EB0010616855
:101F40004900B0FBF1F7FFF79DF800EBC00101EB92
:101F5000001061684900B0FBF1F0B0FBF5F06FF0E4
:101F60001801484307EB800108EBC100B0FBF5F016
:101F700000F00700216830448860BDE8F081FFF779
:101F800081F800EBC00101EB001061688900B0FB33
:101F9000F1F6FFF777F800EBC00101EB0010616884
:101FA0008900B0FBF1F0B0FBF5F06FF01801484389
:101FB00006EB800108EB0110B0FBF5F000F0F00635
:101FC000FFF760F800EBC00101EB001061688900C9
:101FD000B0FBF1F0B0FBF5F006EB0016FFF752F89E
:101FE00000EBC00101EB001061688900B0FBF1F764
:101FF000FFF748F800EBC00101EB001061688900B1
:10200000B0FBF1F0B0FBF5F06FF01801484307EBBF
:10201000800108EB0110B0FBF5F000F00F00A9E71C
:1020200000140140001001402DE9F0411E46174602
:1020300088460446069D1CE0681C1AD025B1FEF7B0
:1020400081FC801BA84214D92068C16821F4D0719A
:10205000C1602068416921F001014161202084F8BC
:10206000390084F83A00002084F838000320BDE8E5
:10207000F0812068016838EA010004D00020B842ED
:10208000DAD00020F3E70120F9E730B50021102471
:102090000D46012300F50A5001EB810200EB4202DC
:1020A000491C1371C9B2D580A142F5D330BD30B5FA
:1020B00010230B700022032348701446042502EB02
:1020C000021001EB8000521C0371437105724472CF
:1020D0000878D2B29042F2D830BDF8B50E46074625
:1020E0006A46302100F07AF805469DF8000000F0BD
:1020F000100000098DF8000001D0002400E0012448
:102100006A463121384600F069F89DF800102843EE
:1021100001F00101A14201D1012100E00021317053
:10212000F8BD0122862100F0B3B900002DE9F04787
:1021300086B01646DDE90E970C4682461D461822EB
:1021400020A16846FEF775F822468921504600F026
:1021500045F8804632469621504600F05DF840EA48
:1021600008064A468E21504600F056F840EA060816
:102170002A469221504600F04FF840EA08063A46B7
:102180009021504600F048F840EA0601B9F80000F6
:102190004FF6FF7202EAC003A9F8003028888008D1
:1021A0002880388802EAC0003880207800F01F00BC
:1021B0002070182802D21DF80000207006B00846D2
:1021C000BDE8F087FFFFFF05020401070300FFFFE2
:1021D000090DFFFFFFFF0A06FFFF0B0CFEB50646C9
:1021E000080A8DF8040015468DF8051064240223B2
:1021F00001AA314607480094FEF722FD012302AAF6
:10220000314604480094FEF727FC9DF80810297019
:10221000FEBD000040000020FEB50646080A8DF80D
:10222000040015468DF805106424022301AA3146E6
:1022300007480094FEF704FD022302AA3146044831
:102240000094FEF709FCBDF8081049BA2980FEBDCC
:10225000400000202DE9F843002480460127254650
:102260004FF47A766A46E5214046FFF7B7FF04430C
:102270009DF80000032804D0B54204D26D1CADB215
:1022800004E0002702E0002744F0FF04012000F0F2
:10229000FCF8012FE6D0324F2D257819294610F889
:1022A0002D2C404600F0F4F86D1C0443EDB2872D50
:1022B000F3D940228721404600F0EAF840EA0405BD
:1022C0000024012769464046FFF707FF05439DF8B4
:1022D0000000012804D0B44204D2641CA4B204E07B
:1022E000002702E0002745F0FF05012000F0CDF8AF
:1022F000012FE7D04046FFF714FF40EA05074046AC
:1023000000F0BFF840EA070409220821404600F027
:10231000BFF840EA040500220B21404600F0B8F85F
:1023200040EA05044FF4A0622421404600F0E0F8A2
:1023300040EA04058A228121404600F0A9F840EADB
:10234000050403224B21404600F0A2F840EA0405B0
:102350003146404600F006F82843BDE8F883000007
:102360008C34000870B506462DED028B0C46A1F1A9
:102370000A009FED178A4EF6562182B0884224D873
:102380006A46DE213046FFF747FF00EE104A054659
:10239000BDF80000B8EE400AC0F30900ADF8000037
:1023A0006C2168EE000A00EE100A3046B8EE400AD2
:1023B00020EE800ABCEEC00A10EE102A00F07CF875
:1023C000284302B0BDEC028B70BDFE20F9E700008F
:1023D0003D0A873F70B50646481E0C46FE280DD8BC
:1023E0000A465E21304600F083F80546641CA2B21E
:1023F0006121304600F07CF8284370BDFE2070BD9E
:10240000F8B50C4607466A464FF49F71FFF7E6FEA3
:102410000546201F0C2817D80A2C02D9C7208DF892
:1024200000009DF800207F21384600F031F840EA96
:10243000050620011038641E2043C2B280213846B0
:1024400000F026F83043F8BD45F0FE00F8BDB1F5C8
:10245000804F01D3FE2070474FF6FF7202EA8102DF
:10246000642100F045B84A1EB2F5804F03D2CA0875
:10247000662100F03DB8FE2070474022872100F021
:1024800007B80022872100F003B8FEF762B9000008
:102490001CB50B0A8DF804308DF8051064210091ED
:1024A0008DF806200146032301AA0248FEF7C8FB67
:1024B0001CBD0000400000200EB50B0A8DF8043052
:1024C0008DF80510110E8DF80610110C8DF80710FF
:1024D000110A8DF80810642100918DF80920014639
:1024E000062301AA0148FEF7ABFB0EBD4000002009
:1024F0001CB50B0A8DF804308DF80510110A8DF803
:102500000610642100918DF807200146042301AADA
:102510000148FEF795FB1CBD4000002070B5054644
:1025200000F094F80446284600F0C2F8204670BD3A
:1025300070B5074B0D0A00241D7059709A70032264
:10254000194600F0DFF908B16FF00C04204670BDA9
:10255000502B002070B51C46002513460646FF2C64
:1025600001D9281F70BD0A480A0A00F8012B22462B
:1025700000F8011B1946FDF75CFEA21C0449304619
:1025800000F0C0F908B16FF00C05284670BD0000DE
:10259000502B0020002100F042B80023052902D270
:1025A0006FF009007047017801F001011170417866
:1025B00001F001015170817801F001019170C17841
:1025C00001F00301D170007910711846704700F8CE
:1025D0002C1F002242700223037142718271C1716B
:1025E0000272C372027342737047FF2200F580517A
:1025F000002381F82A2481F82E34C1F83034A1F860
:10260000343491F82C240AB180F81B2391F82D144E
:1026100009B180F8181380F85F331846704780F8C6
:1026200098130A468321FFF783BF1CB50B46044667
:102630006A4605211846FFF7B0FF002805D105239B
:102640006A4683212046FFF785FF1CBD70B504460E
:1026500042F2E000251894F89C0304F5667100F03E
:102660000F0040F0800084F89C032046FFF7DDFF58
:10267000064694F89C03032100F00F0084F89C03A5
:102680002046FFF7A4FF94F8C30005F51171401C24
:10269000C0B2FFF70CFD2046FFF7F7FC41F22940DE
:1026A000005D012802D12046FFF79FFF304670BD34
:1026B00010B5044600228521FFF73AFF002811D10A
:1026C0002046FFF767FF00224FF48E612046FFF798
:1026D0002FFF002806D120460122BDE810408521A9
:1026E000FFF726BF10BD000010B586B000F020F93E
:1026F00019480024016841F002010160006800F0FF
:102700000200059014481030016841F40011016086
:102710000068694600F4001005904FF44070009086
:102720001220CDE901040420CDE903400B48FEF757
:1027300035F80C480A4901600B49C0E901144FF40F
:102740008041C0E9034144618461C4610462FEF7D1
:10275000FFF806B010BD000030380240000402400F
:1027600000540040502C0020801A060038B5FFF7B6
:10277000BBFF02236A460021862000F075F800287E
:1027800038D19DF80010002934D19DF80110162988
:1027900030D102236A460021842000F065F8002829
:1027A00028D19DF80010002924D19DF80110162988
:1027B00020D1114DFF24022328608DF800408DF8B0
:1027C00001406A461421862000F06CF8002811D1DF
:1027D0008DF80040BF208DF8010002236A461421C5
:1027E000842000F05FF8002804D16FF0C02028603A
:1027F00000F072F838BD000028000020194A632854
:1028000053780DD005DCC0B1012809D0022804D1CD
:102810001AE06C2811D0722816D04FF0FF307047A4
:10282000D07820F08000D07011B140F08000D070DE
:10283000012313218420D21C11E023F040005070AA
:1028400049B140F0400005E023F08000507011B124
:1028500040F080005070012313218620521C00F0AC
:1028600021B80000280000207CB5054664201C46E5
:1028700016468DF804100090A9B2012301AA084859
:10288000FEF7DEF9002809D1642104FB01F0009075
:10289000A3B2A9B232460248FEF7DEF87CBD0000C2
:1028A000502C002030B585B01C46134605468DF8E7
:1028B0000410224619460DF10500FDF7BAFC64200C
:1028C000641C0090A3B2A9B201AA0248FEF7B8F9AD
:1028D00005B030BD502C002010B50223084A12214B
:1028E0008620FFF7DFFF002808D1054A0223921C4B
:1028F0001221BDE810408420FFF7D4BF10BD0000B6
:102900002800002038B5094B0C4602F10A015D6829
:1029100000F5005015445D60009193B290F8501A94
:10292000D0F84C0A2246FEF78BF938BD180000207B
:102930002DE9F04FDFF80881002587B0D8F80010A6
:10294000AA4641F00201C8F80010D8F800000122A0
:1029500000F002003B4E1702059039463046FDF765
:10296000ECFF0122540221463046FDF7E6FF4FF40A
:102970004070009011204FF00109CDE9010969462E
:102980003046FDF70BFFA3460024002239463046AF
:10299000FDF7D3FF0120FDF7DCFE0122394630466A
:1029A000FDF7CBFF0120FDF7D4FE641C0A2CECDB05
:1029B00059463046FDF7BCFF18B928466D1C07285C
:1029C000E2DB59463046FDF7B3FF002835D1D8F891
:1029D000002042F00102C8F80020D8F800001A4C8C
:1029E00000F00100059020208DE801066946204690
:1029F000FDF7D4FE4FF42575012220212046FDF776
:102A00009CFF2120FDF7A5FE002220212046FDF796
:102A100094FF2120FDF79DFE012220212046FDF795
:102A20008CFF2120FDF795FE002220212046FDF796
:102A300084FF2846FDF78DFEDEE707B0BDE8F08F86
:102A40003038024000040240000002400FB4054B41
:102A500010B503A9044A029800F0DAF810BC5DF83A
:102A600014FB0000193300083C00002002E008C8F5
:102A7000121F08C1002AFAD170477047002001E0F8
:102A800001C1121F002AFBD1704700002DE9FF5F32
:102A900082B00021DDE90430020DDDF840B00343CF
:102AA00018D044F61050A2F2FF3242431514119888
:102AB00001281FD0A5EB0B00401C5FEA000A4FF075
:102AC00000064E4FDFF83891B046504615D5CAF192
:102AD000000413E0119801244AA3012801D16FEAF0
:102AE0000B010298119AC0E90031C0E9024206B018
:102AF000BDE8F09FCBF10000DFE704460021404A2B
:102B0000491842EB0450CDE9001012E0E00707D06D
:102B100032463B4640464946FDF79DFB8046894686
:102B200032463B4610461946FDF795FB06460F46D2
:102B30006410002CEAD1DDE90401DDE90023BAF1DB
:102B4000000F06DAFDF787FB42464B46FDF783FB95
:102B500005E0FDF738FD42464B46FDF734FD0446DF
:102B60000E460022284BFDF7B5FD03D84FF0FF308D
:102B7000014607E00022254B20463146FDF77CFC4C
:102B8000FDF790FD102409E0002C0ADB0A22002347
:102B9000FDF71EFB039B30321A55641E50EA0102FA
:102BA000F2D1641C039AC4F111031444119A012A4E
:102BB00003D0012208430DD10AE0084304D00020CD
:102BC0004FF0110B119072E7A3EB0B056D1E0DE09A
:102BD0005B4504DD4FF0000205F1010504E003DA76
:102BE0004FF00002A5F10105002AECD002981199DE
:102BF000C0E90231C0E9004579E700000000144057
:102C00000000F03F300000000000F0430000E03F13
:102C10002DE9FF4F95B09A46884606460025EEE11D
:102C2000252877D100242746F94A0121039400E0A2
:102C3000044316F8013F203B01FA03F01042F7D19C
:102C400030782A2811D06FF02F033078A0F13002AD
:102C5000092A16D8039A44F0020402EB820203EB1D
:102C600042021044761C0390EFE758F8042B0392BD
:102C7000002A03DA504244F40054039044F0020462
:102C8000761C30782E2816D116F8010F44F0040473
:102C90002A280DD06FF02F023078A0F13003092BD5
:102CA00009D807EB870302EB4303C718761CF3E749
:102CB00058F8047B761C30786C280FD006DC4C2842
:102CC00017D068280DD06A2814D104E0742810D0D9
:102CD0007A280FD10DE044F400140AE044F4801483
:102CE00001E044F440147278824202D104F5801469
:102CF000761C761C307866280BD013DC582877D0E9
:102D000009DC002875D04528F6D04628F4D047289D
:102D10001AD193E118E0632835D0642879D065286A
:102D200012D18BE1702873D008DC6728F1D06928B4
:102D30006FD06E280DD06F2806D1ACE073282CD050
:102D4000752874D0782853D05246179990476D1C37
:102D500054E1C4F30250022809D003280DD0D8F85A
:102D6000001004280DD00D6008F1040846E1D8F8E1
:102D70000010EA17C1E90052F6E7D8F800100D80FC
:102D8000F2E70D70F0E718F8041B8DF80010002032
:102D90008DF80100EB46012003E058F804BB4FF02A
:102DA000FF3061074FF0000102D40DE009F101018D
:102DB0008946B9420FDA8145F8DB1BF80910002972
:102DC000F4D108E009F1010189468142FADB1BF8E0
:102DD00009100029F6D103985346A0EB09072146B4
:102DE0003846179A00F080FA284400EB090507E0FE
:102DF00044E008E10DE01BF8010B5246179990479B
:102E0000B9F10109F7D2534621463846179AF2E044
:102E100039E00A21C4F302524FF0000B0091022A5C
:102E200006D058F8040BC117032A09D00AE023E0A2
:102E300008F1070020F00702F2E80201904605E0E1
:102E400000B2C117042A01D140B2C117002906DA25
:102E50000A460021404261EB02012D2202E02205D8
:102E600004D52B228DF80420012203E0E20701D0D3
:102E70002022F7E7914657E00A2100E010214FF0A9
:102E8000000B00910BE010214FF0000B44F0040404
:102E90000827009103E008204FF0000B0090C4F3D6
:102EA0000252022A05D058F8040B0021032A08D048
:102EB00008E008F1070020F00702F2E8020190465E
:102EC00003E080B2042A00D1C0B24FF0000922070B
:102ED0002AD53278702A07D0DDF800C08CF0100CAB
:102EE0005CEA0B0C05D00EE040228DF80420012294
:102EF00008E050EA010306D030238DF804308DF845
:102F0000052002229146009B83F0080353EA0B033D
:102F10000AD150EA010201D1620705D530228DF8AD
:102F200004204FF001097F1E3278582A04D039A2BC
:102F30000C920CAA02920BE03BA2F9E75B46009AC6
:102F4000FDF746F90C9B9B5C029A521E029213708D
:102F500050EA0102F2D1029804A9081A00F1200BEC
:102F6000600702D524F4803400E001275F4502DDCC
:102F7000A7EB0B0000E0002000EB0B010090039892
:102F80004944401A0390E00306D453462146179A59
:102F9000039800F0A9F90544002706E001A852466D
:102FA000C05D179990476D1C7F1C4F45F6DBE00311
:102FB0000CD553462146179A039800F095F905441D
:102FC00004E030205246179990476D1C0099481E26
:102FD00000900029F5DC08E002980299524600783A
:102FE000491C0291179990476D1CBBF10001ABF190
:102FF000010BF1DC5BE100F065F90544761C3078EB
:1030000000287FF40DAE19B02846BDE8F08F00000F
:1030100009280100303132333435363738396162AE
:103020006364656600000000303132333435363772
:10303000383941424344454600000000600700D44F
:10304000062708F1070020F00700F0E80223804679
:1030500003F0004C5FEA0C0001D097A009E02005C6
:1030600001D596A005E0E00701D095A001E0AFF200
:103070004C001390307823F0004365280CD006DC18
:10308000452809D046281DD047287FD13BE0662837
:1030900018D067287AD136E00021112F01DB1120EA
:1030A00000E0781CCDE9000104A90CA8FFF7EEFCB4
:1030B000DDE90D010C9A4FF0000B07F101091092A8
:1030C00000914EE04FF000400097CDE9011004A9B7
:1030D0000CA8FFF7DBFCDDE90D020C9B0F994FF00C
:1030E000000B91461093009211B9791C00EB010975
:1030F000B7EB090003D4C0F1FF3B07F10109A9EBCD
:103100000700019042E0012F00DA01270021112F72
:1031100001DD112000E03846CDE9000104A90CA82A
:10312000FFF7B4FCDDE90D010C9A00914FF0000BA4
:10313000B946109221070FD4009A4A4503DA914606
:1031400001E0A9F10109B9F1010F05DD109AA9F11A
:103150000101515C3029F4D0B84202DA10F1040FB9
:1031600003DA0121CDE9011010E0002803DC8344DB
:10317000A9EB000102E0411C494500DD8946A0EBB6
:103180000B00401C01904FF000400290200705D436
:103190000198484502DB4FF0FF30019000208DF888
:1031A0004B0002980DF14B07B0F1004F25D00220E3
:1031B0000C902B200D90029800280CDA40420290CF
:1031C0002D200D9007E00A210298FDF7C3F8303159
:1031D000029007F8011D0C99481E0C900029F2DCA2
:1031E00002980028EFD1791E0D980870307800F011
:1031F000200040F0450007F8020D11A8C01BC01DBB
:1032000002901398007800B1012000EB09010198A9
:1032100001EBE071029801440398401A401E0390AC
:10322000E00306D453462146179A039800F05CF851
:1032300005441398007818B15246179990476D1CB1
:10324000E00323D553462146179A039800F04CF823
:1032500005441BE0BBF1000F07DB0098584504DD77
:103260001098179910F80B0001E01799302052467A
:10327000904701980BF1010B401E05F101050190EB
:1032800004D12E205246179990476D1CB9F10001C8
:10329000A9F10109DEDC05E017F8010B5246179988
:1032A00090476D1C0299481E02900029F4DC534699
:1032B0002146179A03989EE62D0000002B0000007F
:1032C000200000002DE9F041044600251E46174667
:1032D000880404D405E039462020B0476D1C641EE4
:1032E000F9D52846BDE8F0812DE9F04104460025D6
:1032F0001E469046C80301D5302700E020278804E9
:1033000004D505E041463846B0476D1C641EF9D52A
:103310002846BDE8F081000013B54FF6FF73012287
:1033200069460248FEF71AF900981CBD9400002077
:10333000F8B5FDF74FFDFEF7A7FCFEF735FC2E486C
:103340002C49002601604FF4E131C0E901160C213F
:10335000C660C0E904618661C661FEF7AAF800B1E3
:10336000FEE7254C2548543C20602548C4E9010669
:103370004FF48040C4E903606661A661E6612046BF
:103380002662FDF7E5FA00B1FEE7FFF7EFF91DA0B1
:10339000FFF75CFB2A4D5221E86800F50050C0F8A9
:1033A0004C4A80F8501A00210120FFF727FA2861C3
:1033B0000220FDF7CEF901210846FFF71FFA286128
:1033C0000220FDF7C6F908200090022301221DA16A
:1033D0001E48FFF73BFBE868FFF7A0F82E61FEF7F9
:1033E000DBFA296908432861F9D019A0FFF72EFB01
:1033F0000020F8BD0044004094000020005400402C
:10340000A08601005374617274696E6720657861EB
:103410006D706C652077697468204C334358206266
:103420006172652064726976657220616E642075D0
:103430006C747261206C6F7720706F7765720A0010
:1034400000000020312E302E30000000E83400084B
:1034500050726F6772616D2065786974206166745F
:103460006572206572726F72207261697365640A99
:103470000000000000000000000000000102030442
:103480000607080900000000010203040000001103
:1034900002000208000810010100000000FF000FF8
:1034A0000000000000200B000002142100000500B5
:1034B000000000C8000038FF0100080000000107FC
:1034C00000020500B400BB0838000000000F8900AE
:1034D0000000000000000107050606000002C7FF0B
:1034E0009B00000001000000556C747261206C6F3D
:1034F0007720706F776572206472697665722076C6
:10350000657273696F6E203A202573202F20426107
:10351000726520647269766572206472697665727C
:103520002076657273696F6E203A2025752E257599
:103530002E25750A0A0000005369676E616C3D25EF
:10354000322E3266204D6370732C20416D626965A6
:103550006E743D25322E3266204D6370732C2053DD
:1035600069676D613D25322E3266206D6D2C2044D9
:103570003D2535646D6D2C207374617475733D2524
:1035800064000000A4350008000000204000000096
:103590006C2A0008E4350008400000206830000074
:1035A0007C2A00080000000000000000000000006D
:1035B000D800002000000000000000000000000013
:1035C00000000000000000000024F40000000000E3
:1035D00000000000070000001000000017000000BD
:0435E00000000000E7
:040000050800019559
:00000001FF
