:020000040800F2
:100000002834002059020008610200086302000839
:10001000650200086702000869020008000000008D
:100020000000000000000000000000006B0200085B
:100030006D020008000000006F020008312C00086B
:1000400073020008730200087302000873020008BC
:1000500073020008730200087302000873020008AC
:100060007302000873020008AD1100087302000853
:10007000730200087302000873020008730200088C
:1000800073020008730200087302000800000000F9
:1000900000000000000000000000000073020008E3
:1000A000730200087302000873020008730200085C
:1000B000730200087302000873020008730200084C
:1000C000730200087302000873020008730200083C
:1000D00073020008730200087302000800000000A9
:1000E0007302000873020008730200080000000099
:1000F0000000000000000000000000007302000883
:100100000000000073020008730200087302000878
:1001100000000000000000000000000000000000DF
:1001200073020008730200087302000873020008DB
:100130007302000800000000000000000000000042
:100140000000000000000000000000007302000832
:1001500073020008730200087302000873020008AB
:100160007302000873020008000000000000000095
:10017000000000000000000000000000000000007F
:1001800000000000730200080000000000000000F2
:100190007302000800F002F800F04FF80AA090E89F
:1001A000000C82448344AAF10107DA4501D100F032
:1001B00044F8AFF2090EBAE80F0013F0010F18BFB0
:1001C000FB1A43F001031847F0A3000010A400003D
:1001D000103A24BF78C878C1FAD8520724BF30C873
:1001E00030C144BF04680C60704700000023002445
:1001F00000250026103A28BF78C1FBD8520728BF37
:1002000030C148BF0B607047642900F03D817529FB
:1002100000F03A81732900F03983002070471FB540
:100220000AF0ECF89DE8030000F092FD00F082FB7C
:100230001FBD10B500F0E7FB10BD00F04FFC1146EC
:10024000FFF7EDFF09F02CFF00F054FD03B4FFF7BA
:10025000F0FF03BC00F00EFF094880470948004743
:10026000FEE7FEE7FEE7FEE7FEE7FEE7FEE7FEE766
:10027000FEE7FEE704480549054A064B70470000C3
:10028000E12C000895010008282E002028340020C9
:10029000283000202830002053EA020C00F069804A
:1002A0002DE9F04B4FF00006002B1FBFB3FA83F58A
:1002B00003FA05F424FA05F65E4012BF1643B2FABB
:1002C00082F502FA05F4C5F120051EBF22FA05FCED
:1002D00044EA0C04203556EA044C4FEA144418BF93
:1002E000641C4FF000084FF00009904271EB030CC2
:1002F00039D3002919BFB1FA81F701FA07F6B0FA2C
:1003000080F700FA07F6C7F120071EBF20FA07FCA6
:1003100046EA0C062037B6FBF4FCA7EB0507103FB6
:1003200007F01F0BCBF120060CFA0BFB2CFA06F69C
:1003300044BFB3460026202FA4BF5E464FF0000BFB
:100340005BEA060C08BF4FF0010B19EB0B09ABFB86
:10035000027C48EB0608C01B06FB02CC0BFB03CC5F
:1003600071EB0C01C1E70B46024641464846BDE829
:10037000F08B13B54FF000004FF00001AFF3008099
:10038000BDE81C40704710B54C1084EA530404D5F6
:100390004042C1F1000138BF491E1B4204D5524200
:1003A000C3F1000338BF5B1EFFF776FF14F0804FE8
:1003B00004D04042C1F1000138BF491E14F0004F83
:1003C00004D05242C3F1000338BF5B1E10BD0000D1
:1003D0000FB4044910B503AA029800F05BFA10BCF0
:1003E0005DF814FB202D002070B504468569006877
:1003F000C10601D5302600E02026C00707D070BD19
:10040000D4E9012130469047206A401C20626D1ECD
:10041000F6D570BD70B5044685690078C00707D170
:1004200070BDD4E9012120209047206A401C206241
:100430006D1EF6D570BD70B50C460546012A05D077
:100440002878800600D5EA69002302E0012305E050
:100450005B1C934202D2E05C0028F9D1A869E6183F
:10046000C01AA861286A184428622846FFF7BCFF12
:1004700004E0D5E9012114F8010B9047B442F8D308
:100480002846FFF7C7FF70BD2DE9F041064600245E
:1004900010687529314616A510D0AFF300800028EA
:1004A00002DA404213A507E031688A0701D512A598
:1004B00002E0490704D511A5012401E0AFF3008053
:1004C00000210A2206F1240709E0B0FBF2FCB0FB90
:1004D000F2F302FB1C00303078541846491C002807
:1004E000F3D123462A463046BDE8F04100F063B917
:1004F000000000002D0000002B0000002000000084
:100500002DE9F0474FF0000A89460446C0F820A0C4
:100510002046E1688847002876D0252806D0D4E90F
:1005200001219047206A401C2062F1E7E1682046E3
:1005300000258847C4F81CA006460027C4F818A068
:100540002A2E09D0304609F097FD38B304EB87080E
:10055000303EC8F8186019E059F8041B204604EB37
:1005600087029161E1688847012F064618D1E0694A
:10057000002820DA25F020051DE0D8F8180000EB4F
:10058000800006EB40003038C8F818002046E168CB
:100590008847064609F070FD0028EED1012F0AD0E9
:1005A0002E2E08D12046E16888477F1C0646022F80
:1005B00045F02005C4DBA069002803DA404245F07D
:1005C0000105A061E80701D025F01005B6B1A6F13C
:1005D0004100192802D8203645F400654A463146C4
:1005E000204625604D46FFF70FFE58B1012806D082
:1005F000ED1D25F0070000F1080989E704E005F189
:10060000040985E730468AE7206ABDE8F087032AB7
:1006100040F2308010F0030C00F0158011F8013B1F
:10062000BCF1020F624498BF11F801CB00F8013B06
:1006300038BF11F8013BA2F1040298BF00F801CBCA
:1006400038BF00F8013B11F0030300F02580083AA1
:10065000C0F0088051F8043B083A51F804CBA0E8F8
:100660000810F5E7121D5CBF51F8043B40F8043B4D
:10067000AFF30080D20724BF11F8013B11F801CB82
:1006800048BF11F8012B24BF00F8013B00F801CB53
:1006900048BF00F8012B704710B5203AC0F00B801E
:1006A000B1E81850203AA0E81850B1E81850A0E876
:1006B0001850BFF4F5AF5FEA027C24BFB1E81850D0
:1006C000A0E8185044BF18C918C0BDE810405FEA40
:1006D000827C24BF51F8043B40F8043B08BF7047BC
:1006E000D20728BF31F8023B48BF11F8012B28BFC1
:1006F00020F8023B48BF00F8012B704702F0FF03CF
:1007000043EA032242EA024200F0D8B84FF0000266
:1007100000B5134694469646203922BFA0E80C50F7
:10072000A0E80C50B1F12001BFF4F7AF090728BFD2
:10073000A0E80C5048BF0CC05DF804EB890028BF4E
:1007400040F8042B08BF704748BF20F8022B11F077
:10075000804F18BF00F8012B704710B5044610F009
:10076000030F08BF11F0030F40F015804FF0013E5A
:10077000121FC0F20E8051F8043BA3EB0E0C2CEAC2
:10078000030C1CEACE1C08BF40F8043BF0D0A1F1DA
:10079000040102F10402521E08DB11F8013B002B98
:1007A00000F8013BF7D1114600F086F8204610BD55
:1007B0007047704770472DE9F0470D4699469246BD
:1007C000044600F124080168880604D5E06921F098
:1007D0001001216000E00120A84201DD471B00E07C
:1007E0000027A1697A1902EB0900081AA061207894
:1007F000C00602D42046FFF7F7FD002608E0D4E942
:1008000001211AF806009047206A401C761C2062DD
:100810004E45F4DB2078C0060AD52046FFF7E4FDFC
:1008200006E0D4E9012130209047206A401C206274
:10083000381EA7F10107F4DC07E0D4E9012118F81C
:1008400005009047206A401C2062281EA5F1010582
:10085000F3DC2046FFF7DEFD2078000602D50220FB
:10086000BDE8F0870120FBE710B5436913B1AFF392
:10087000008001E0FFF7DFFD012010BD127800F1DC
:1008800024010A7000224A700122EDE711684FF03E
:10089000FF32E9E7074B70B50D467B4400F033F8B3
:1008A0000446284600F042F810B14FF0FF3070BD0A
:1008B000204670BDEB9700004FF000020429C0F005
:1008C000128010F0030C3FF423AFCCF1040CBCF108
:1008D000020F18BF00F8012BA8BF20F8022BA1EBD4
:1008E0000C01FFF715BF5FEAC17C24BF00F8012BA4
:1008F00000F8012B48BF00F8012B704701694A1C22
:1009000002610878704700B58FB0CDE90131002150
:10091000059105497944CDE9031011466846FFF772
:10092000EFFD0FB000BD0000E5FFFFFF007B00F012
:100930008000704710B542485421FFF7E7FE414858
:100940005421FFF7E3FE40485421FFF7DFFE3F4903
:100950003B483C4A3F4B08603D490A603A491960B0
:10096000531C0365481C1065012008653B48344A48
:1009700039A1784400F022F920B9384878440A387F
:1009800000F0C1F937482F4A35A1784400F016F934
:1009900020B9344878440A3800F0B5F932482A4A78
:1009A0002FA1784400F00AF920B92F4878440A387A
:1009B00000F0A9F940232248DC000021224600F083
:1009C000D9F820B125487844543800F09CF91D48E6
:1009D00022464023002100F0CDF820B12148784480
:1009E000543800F090F9184822461023002100F0F6
:1009F000C1F8002806D01C487844BDE8104056389D
:100A000000F081B910BD104870B5006D20F00104F0
:100A10000B4800F049F90B4800F046F90A4800F08D
:100A200043F909E0206D20F00105204600F03CF973
:100A3000204600F078F82C46002CF3D170BD000061
:100A4000CC2C0020202D0020742D00205C000020E4
:100A5000600000206400002072000000039B000082
:100A600077000000EF9A0000DB9A00000EB5CDE998
:100A7000000100F0DFFA029069460120ABBE0EBD16
:100A800008B5694600900220ABBE08BD1FB58DE8D1
:100A9000070069460520ABBE04B010BD1FB58DE848
:100AA0000F0069460620ABBEF6E708B56946009020
:100AB0000920ABBE08BD1CB5CDE9000169460A207E
:100AC000ABBE1CBD704708B5694600900C20ABBE9C
:100AD00008BD000000487047C82D00207546FFF78C
:100AE000F9FFAE4605006946534620F007008546EB
:100AF00018B020B5FFF7BEFBBDE820404FF0000660
:100B00004FF000074FF000084FF0000B21F00701F5
:100B1000AC46ACE8C009ACE8C009ACE8C009ACE838
:100B2000C0098D46704770B50446051F00F0F4F803
:100B30000068002C14BF446870BD002C18BFAC4284
:100B40003CBF20466468F8D301680A18AA4218BF5F
:100B5000456003D12A68054611440160286841199F
:100B6000A1421CBF6C6070BD616869602168084467
:100B7000286070BD70B5C468A50713D0650211D494
:100B8000B2F5807F09D0B2F5007F06D0B2F5806F54
:100B900008D1012300F1240106E05D1E6FF07F46BD
:100BA000B54201D3012070BD0161C361416024F4ED
:100BB00070611143C160002070BD00002DE9F0415B
:100BC0000C4607461646104600F06EF82078611C69
:100BD00061280AD0722802D077283CD102E0012592
:100BE000002405E00225042402E0082448F202055E
:100BF00011F8010B2B2806D0622809D011F8010C3E
:100C000074280AD00BE045F0030544F00204EFE736
:100C100045F0040544F00104EAE744F010043846C6
:100C20002146FFF723FF411C15D00021316171607F
:100C30004FF40071F560F1617061200704D5304612
:100C40000222002100F0E2F8306D40F00100306532
:100C50003046BDE8F0810020FBE72DE9F0410D466C
:100C60000646104C206DC10704D0410804D020F086
:100C70000104F7E722460EE0542000F098F8070040
:100C80000ED0206D47F001010843542120653846FD
:100C9000FFF73CFD3A4629463046BDE8F0418DE776
:100CA0000020D6E7CC2C00202DE9F04704464FF079
:100CB00000094FF0FF37C568D4E90486A80707D0BC
:100CC000204600F053F93046FFF7DAFE002802DA3A
:100CD0003846BDE8F087280502D54046FFF723FFD8
:100CE0004C212046FFF712FD206D20F00100206509
:100CF0004846EEE710B50446AFF300802046BDE855
:100D00001040FFF7A3BA10B500F07AF9BDE8104023
:100D100000F070B97047000000487047D02D0020E7
:100D2000704770477047704738B504460A46002040
:100D30006946AFF30080002808BF38BD024600991D
:100D4000204600F0A4F9012038BD012000F0F3B9DD
:100D5000F8B5AFF30080054600200C46102000BF18
:100D60000646A819A0420DD9324669460020AFF3C5
:100D70000080070008BF00F0DEF90098A04218BF0D
:100D80000546C419FFF7C8FF05600746F01D20F0AF
:100D900007004619284600F073F9B44208BFF8BDB1
:100DA000A21B31463868BDE8F84000F070B970B554
:100DB0000646FFF7B1FF056806F10B0020F00704B7
:100DC000B4429CBF002070BD2B466A68BAB110685F
:100DD000A04210D304F1080188423CBF506858601B
:100DE00007D35168101941601168091B01605860F0
:100DF0001460101D70BD13465268002AE7D12146C9
:100E00002846FFF791FF0028DED170BD2DE9F041A3
:100E1000044616460D464769007B80072ED03846AB
:100E2000FFF743FE50BB3EB3012E02D0022E25D168
:100E300004E0204600F045F905441DE03846FFF780
:100E400042FEE168002841F01001E16005DA204629
:100E500000F058F80120BDE8F081C9030BD56268A5
:100E6000E16A914200D81146A26911442269891AA7
:100E7000814200DD08460544002D01DA0220EAE740
:100E8000E16A6068E268814206D29103E06203D5BC
:100E900022F4003141F01002A6690027AE4213DCB3
:100EA000E16A814201D90B4600E0034603EB060CE0
:100EB0002369ACEB030CAC4506DD814201D98C46BD
:100EC00000E084469C4505D1A760276042F02000E1
:100ED000A5620DE0AD1BE669AE1B8142A66000D99C
:100EE0000846C01A281A20605819606022F02000B5
:100EF00003490840E060002084F84870ABE7000038
:100F0000BFCFD7FFC16821F4001141F08001C1605B
:100F100000218160016070472DE9F0478146144649
:100F20000E464FF0FF383248D5685769054209D060
:100F30003846A169FFF7BFFD002811DB2C48C043EC
:100F40000540E5602B46324649463846FFF79EFD90
:100F5000A16920F00042B21A11440028A16103D017
:100F60002046FFF7CFFF4046BDE8F08770B5044646
:100F70000569C06A6168884200D80846E16821F4C2
:100F80002011E160C90312D5A84208D02246411BB6
:100F90002846FFF7C1FF10B14FF0FF3070BD0020B1
:100FA000E562C4E90150E06820F48030E060002090
:100FB00070BD10B50446C06820F02000E060A16A52
:100FC000A06988420DD02046FFF7D0FFE06820F4EA
:100FD000405040F01000E060A06AA0612069E0622B
:100FE000606044F24001E0688843E06010BD0000AA
:100FF00010000200002801D000F03CB8704700004B
:1010000010B5014602A000F07DF8012010BD0000DF
:1010100053494752545245443A20526564697265B7
:1010200063743A2063616E2774206F70656E3A2096
:101030000000000010B5431C02E010F8011B71B164
:101040008107FAD14FF0013202C88C1A8C4314EA9E
:10105000C211F9D0C01A0A0603D0C01E10BDC01AB2
:1010600010BD0A0401D0801E10BD0902FCD0401E34
:1010700010BD000001491820ABBEFEE726000200AB
:1010800000210160C0E9011070471020704703463D
:1010900040688C46002818BF88423CBF0346406821
:1010A000F8D318681844884207D00CF1030020F0E8
:1010B0000700001D411A521A0146081D0A60FFF779
:1010C00032BD10B50146C268900703D0900607D51F
:1010D000886A0AE000F03EF801210160881E10BD18
:1010E0008B69486818440B69C01A91F848301BB1E5
:1010F00091F84910401A10BD1103FCD50028FADD03
:10110000401E10BD70B505460C460A2000E06D1C5F
:1011100000F018F835B128780028F8D102E0641CF6
:1011200000F010F814B120780028F8D1BDE8704024
:101130000A2000F007B810B500F010F8BDE8104024
:10114000FFF758BF08B569468DF800000320ABBE15
:1011500008BD000000487047C82D002010B50128C8
:1011600005D0002103A0FFF7CDFF012010BD09A18C
:10117000F8E7000053494752544D454D3A204F750A
:1011800074206F662068656170206D656D6F72797F
:10119000000000003A2048656170206D656D6F7237
:1011A0007920636F7272757074656400102000F0AE
:1011B00019B831B500F0F6F8009C0546601C00D067
:1011C000641C00F0EFF8401BA042FAD338BD0000C9
:1011D000102803D102488168491C816070470000D3
:1011E00000000020044910B50A68024202D00860DD
:1011F000FFF7EEFF10BD0000143C01402DE9F84F51
:10120000DFF86C91002209F1040A0AF1040B4FF097
:101210000F080BF1040E01260B6896403340B342D1
:1012200071D14C68022C01D0122C11D1D40800EBE2
:1012300084073D6A5407E40E08FA04FC25EA0C050D
:10124000D1F810C00CFA04FC4CEA050CC7F820C019
:1012500007685400032591F804C0A5400CF0030C66
:10126000AF430CFA04FC4CEA070CC0F800C04F680E
:10127000012F05D0022F03D0112F01D0122F11D131
:101280008768D1F80CC0AF430CFA04FC4CEA070C99
:10129000C0F808C04768B7430E79C6F300169640F9
:1012A0003E434660C668AE438D68A5403543C56081
:1012B0004C68E40056D52F4C256845F480452560E0
:1012C000246822F0030504F4804400942A4C2E196B
:1012D000D6F808789407250F08FA05F4A743274C99
:1012E000A04201D1002415E0254CA04201D10124E7
:1012F00010E0244CA04201D102240BE0224CA04279
:1013000002D1032406E02DE0204CA04201D10424A8
:1013100000E00724AC403C43C6F80848D9F8004038
:101320004D464E689C43F60300D51C432C60DAF80A
:10133000004055464E689C43B60300D51C432C60C4
:10134000DBF800405D464E689C43F60200D51C4326
:101350002C60DEF8004075464E689C43B60200D50E
:101360001C432C60521C102AFFF455AFBDE8F88FC7
:10137000003C01404438024000300140000002407F
:101380000004024000080240000C0240001002402D
:101390000069084000D0012070470AB181617047A0
:1013A0000904FBE7014800687047000014000020B2
:1013B00070B5040004D094F83D00002510B106E09B
:1013C000012070BD84F83C50204600F005FA24202E
:1013D00084F83D002068016821F00101016000F0FF
:1013E00081FB33492268B0FBF1F15160314A6368F7
:1013F000934206D94FF4967359434FF47A73B1FB75
:10140000F3F12368491C1962616891420BD84900C5
:10141000B0FBF1F2C2F30B02042A01D2042019E05E
:10142000B0FBF1F016E0A3689BB301EBC10202EB45
:101430000112B0FBF2F242F48042120530D04BB3FD
:1014400001EBC10202EB0111B0FBF1F040F480406E
:1014500040F400402168C861D4E9070108432168CD
:101460000860D4E90310084321688860D4E90501C5
:1014700008432168C8602068016841F001010160EB
:101480002564202084F83D00256384F83E50002028
:1014900070BD00E006E001EB4102B0FBF2F2CCE7E8
:1014A0000120D7E701EB4101B0FBF1F0D0E70000EC
:1014B00040420F00A08601002DE9F84F1F469046DC
:1014C0008A460446DDF82890FFF76CFF054694F83D
:1014D0003D0020286FD1192301226E492046009536
:1014E00000F0BDFE0028F5D194F83C00012862D040
:1014F000012084F83C0020680168C90703D1016815
:1015000041F0010101602068016821F4006101607F
:10151000222084F83D00102084F83E000026266436
:10152000C4F8248067855C48E062608D20852B4686
:101530004A465146204600F0B2FD28B1206C84F89E
:101540003C60042841D04DE0208D544F68B1012803
:1015500014D002282068016816D041F4806101602F
:10156000206841698069009085E02068416981694F
:101570000091016841F4007101607CE0206801681D
:1015800021F480610160F0E721F48061016020684E
:10159000016841F40061E2E7032849D801280BD033
:1015A000022817D04B46002239462046009500F00D
:1015B00056FEB8B92AE06AE02A464946204600F0BD
:1015C000C1FE28B1206C20280CD00120BDE8F88F86
:1015D000206845E04B46002239462046009500F041
:1015E0003EFE08B10320F1E72068016841F4007174
:1015F000016020680169606A421C62620170208D8E
:10160000401E2085608D401E6085E1E720680168EE
:1016100021F48061016020680169606A421C626295
:101620000170208D401E2085608D401E6085D1E7B1
:101630002A464946204600F085FE0028C2D120688F
:101640000169606A421C62620170208D401E208523
:10165000608D401E608520684169C94349070AD4EE
:101660000169606A421C62620170208D401E208503
:10167000608D401E6085208D00288DD1202084F84B
:101680003D0084F83E6084F83C6000209EE7022024
:101690009CE70000020010000000FFFF04000100B2
:1016A0002DE9F84F1F4690468A460446DDF82890FB
:1016B000FFF778FE054694F83D0020287ED11923D7
:1016C000012243492046009500F0C9FD00287DD144
:1016D00094F83C00012879D0012084F83C0020686F
:1016E0000168C90703D1016841F001010160206868
:1016F000016821F400610160212084F83D00102080
:1017000084F83E0000262664C4F8248067853148AA
:10171000E062608D20852B464A465146204600F007
:101720002DFD28B1206C84F83C6004284CD00DE0DD
:10173000206841698069009030E02A464946204689
:1017400000F032FE28B1206C042838D00320BDE818
:10175000F88F606A411C6162216800780861608DC1
:10176000401E6085208D401E80B2208521684A6918
:10177000D24352070BD450B1606A421C62620078B7
:101780000861608D401E6085208D401E20852A46A0
:101790004946204600F03CFD0028D4D1208D002889
:1017A000CBD154F83D0B016841F400710160202059
:1017B00004F81E09E67766770020C8E706E020688F
:1017C000016841F4007101600120C0E70220BEE71A
:1017D000020010000000FFFF00B500680E4987B04E
:1017E000884217D14FF440700090122001900120E0
:1017F0000290032003900420049069460748FFF7F5
:10180000FDFC0748016841F400110160006800F424
:101810000010059007B000BD0054004000040240D5
:101820004038024002480168491C016070470000CE
:10183000140000200B4810B5016841F400710160EC
:10184000016841F480610160016841F480710160C8
:10185000032000F075F8002000F006F800F018F8FA
:10186000002010BD003C024010B5044607484FF46C
:101870007A710068B0FBF1F000F033FB00222146E2
:10188000501E00F03DF8002010BD000018000020A0
:1018900010B5072000F054F8002211466FF00B003D
:1018A00000F02EF8002211466FF00A0000F028F830
:1018B000002211466FF0090000F022F800221146C4
:1018C000501F00F01DF800221146101F00F018F8FC
:1018D00000221146901E00F013F80022BDE81040CF
:1018E0001146501E00F00CB800F01F02012191407B
:1018F0004009800000F1E020C0F8001170470000AE
:10190000F0B40E4B1B68C3F30223C3F10704042C8D
:1019100000D904241D1D072D01D2002300E0DB1E89
:10192000012606FA04F56D1E0D409D409E40761E70
:10193000164045EA0601F0BC00F056BF0CED00E091
:10194000064A00F0070110684FF6FF03184040EA0E
:101950000120034908431060704700000CED00E0CF
:101960000000FA052DE9F047DFF85C9104460E46C9
:10197000D9F8000000F00F01F0B28046B14207D262
:1019800089F80000D9F8000000F00F00B04271D1D2
:1019900020784E4F800705D53868A16820F0F00008
:1019A000084338602078C00756D048496068083935
:1019B00001281AD002281BD0032819D009688907EA
:1019C000002957DA396821F0030101433960FFF734
:1019D000E9FC0546606841F28831012811D00228EF
:1019E0001CD003288A4625D032E009688903E7E73E
:1019F00009688901E4E7FFF7D5FC411B514501D98E
:101A000023E08A463868C0F381000128F3D123E03F
:101A1000FFF7C8FC411B514501D916E08A463868DA
:101A2000C0F381000228F3D116E0FFF7BBFC411B95
:101A300051450AD83868C0F381000328F5D10BE07E
:101A4000FFF7B0FC411B514502D90320BDE8F087E8
:101A5000386810F00C0FF3D1D9F80010484601F0A7
:101A60000F01B14208D980F80080006800F00F0033
:101A7000B04201D00120E9E72078400705D5386859
:101A8000E16820F4E050084338602078000706D56C
:101A90003868216920F4604040EAC100386000F0F5
:101AA00051F83968F02292FAA2F201F0F001B2FA8C
:101AB00082F2D140064A515CC840064908600020C5
:101AC000FFF7D2FE0020C1E7003C02400838024088
:101AD00006A40008180000200148006870470000B4
:101AE0001800002008480949006809684FF4E052CE
:101AF00092FAA2F201F4E051B2FA82F2D140044A21
:101B0000515CC840704700001800002008380240AF
:101B100016A4000808480949006809684FF46042A3
:101B200092FAA2F201F46041B2FA82F2D140044A80
:101B3000515CC8407047000018000020083802407F
:101B400016A4000830B51948006810F00C011848B8
:101B500012D0441004290ED008290DD1134A121FA7
:101B60001168136801F03F015D0247F6C07304D5A8
:101B7000B4FBF1F003E0204630BDB0FBF1F011689A
:101B8000194093FAA3F3B3FA83F3D9404843116899
:101B90004FF4403292FAA2F201F44031B2FA82F2EA
:101BA000D140491C4900B0FBF1F030BD083802407B
:101BB0000024F4002DE9F84F04460078DFF8F4A281
:101BC000BD4DC00748D0DAF800105046C1F381017E
:101BD000012908D00068C0F3810002280AD1281D1D
:101BE0000068400206D52868800335D56068002863
:101BF00070D031E06068B0F5803F10D0B0F5A02F14
:101C0000286810D020F480302860286820F48020D4
:101C100028606068A0B1FFF7C5FB06460CE02868A5
:101C200040F48030F4E740F480202860F7E7FFF7C5
:101C3000B9FB801B642873D828688003F7D50BE0B4
:101C4000FFF7B0FB064604E0FFF7ACFB801B6428FF
:101C5000F1D828688003F7D42078DFF86082800705
:101C60004FF0010B4FF0000943D5DAF80010504651
:101C700011F00C0F4FF0F80709D00068C0F3810095
:101C800002280BD18B48001F0068400206D4286848
:101C9000800713D5E06801281CD10FE0E068D0B1BF
:101CA000C8F800B0FFF77EFB064604E0FFF77AFBBA
:101CB000801B0228BFD828688007F7D5286897FAC4
:101CC000A7F22169B2FA82F220F0F80091400843AD
:101CD00028600EE0EBE0C8F80090FFF763FB0646D3
:101CE00004E0FFF75FFB801B022819D828688007F3
:101CF000F7D42078000722D56E4F714861696C37A0
:101D000079B1C0F800B0FFF74DFB064604E0FFF7DD
:101D100049FB801B022803D838688007F7D50EE0FE
:101D200079E0C0F80090FFF73DFB064604E0FFF7BE
:101D300039FB801B02286ED838688007F7D42078DA
:101D4000400750D55B483830016841F08051016050
:101D500000685C4F00F080500090386840F480705C
:101D60003860FFF71FFB064604E0FFF71BFB801BF4
:101D7000022850D83868C005F7D54E4FA06868379C
:101D800001280FD00528386810D020F001003860F5
:101D9000386820F004003860A068B0B1FFF702FB9B
:101DA00006460EE0386840F00100F4E740F0040019
:101DB0003860F7E7FFF7F6FA811B41F2883081427D
:101DC0006DD838688007F5D50DE0FFF7EBFA0646C9
:101DD00006E0FFF7E7FA811B41F2883081425ED8C6
:101DE00038688007F5D4A069F0B3DAF80010C1F3C1
:101DF000810102295BD00228484605D0C8F860005E
:101E0000FFF7D0FA04464DE04746C8F86000FFF7F8
:101E1000C9FA064605E042E0FFF7C4FA801B022833
:101E20003DD828688001F7D4D4E90701084347F674
:101E3000C07292FAA2F2616AB2FA82F29140A26A88
:101E40004FF0FF3303EB52024FF4403393FAA3F306
:101E5000B3FA83F39A4011434FF0706292FAA2F200
:101E60000843B2FA82F200E01FE0E16A91400843C1
:101E70001049091F0860C7F860B0FFF793FA0446DD
:101E800004E0FFF78FFA001B022808D828688001B9
:101E9000F7D50AE0FFF786FA001B022802D90320D3
:101EA000BDE8F88F28688001F4D40020F8E701200D
:101EB000F6E70000083802400038024000004742C0
:101EC000800E4742007000404FF0E021042808696E
:101ED00003D020F004000861704740F00400FAE7E6
:101EE000704710B5401EB0F1807F01D3012010BDB6
:101EF0004FF0E02460610F21601700F075FC0020B6
:101F0000A06107202061002010BD10B5FFF7E8FF99
:101F100010BD70B5040004D094F83900002510B14C
:101F200006E0012070BD84F83850204600F022F809
:101F3000242084F839002068C16821F40051C16070
:101F4000204600F0F7FE2068016921F4904101610C
:101F50002068416921F02A0141612068C16841F48B
:101F60000051C160E563202084F8390084F83A000C
:101F7000002070BD00B501680D4887B0814215D1C1
:101F80000C480021026842F400320260006800F44C
:101F9000003005900C2000900220CDE901010720BF
:101FA000CDE9031069460448FFF728F907B000BDE2
:101FB0000044004040380240000002402DE9F84350
:101FC000044690F839001E4617460D46202850D189
:101FD000A5B19FB194F8380001284AD0012084F8B7
:101FE00038004FF00008C4F83C80212084F8390004
:101FF000FFF7D8F9A7848146E78426E00120BDE8F1
:10200000F883E08C401EE084A0684B46B0F5805F0A
:102010004FF000024FF080012046009603D000F000
:10202000DFFFE8B90DE000F0DBFFC8B928882168C0
:10203000C0F308004860206908B16D1C05E0AD1CC4
:1020400003E0216815F8010B4860E08C0028D8D126
:102050004B46002240212046009600F0C1FF08B107
:102060000320CCE7202084F8390084F83880002051
:10207000C5E70220C3E701684A69D24352050CD480
:102080006FF480624A6104210164002140F8301F2E
:1020900020224273017301207047002070472DE910
:1020A000F84F0446C06A1D4692460F4621680A68EA
:1020B00042F480620A60042807D0012805D010F598
:1020C000803F02D0206B112804D12068016841F4C0
:1020D000807101604FF001185346002241462046AE
:1020E000009500F0BCF8B8BB206908F10109B0F513
:1020F000804F12D00620216800EAD71646F0F00083
:1021000008612B46524608F10701204600F0D7F837
:1021100038B1206C04282FD01EE0F8B240F0010046
:102120001FE02168F8B208612B4652464946204616
:1021300000F0C5F80028ECD1206841698169009160
:10214000016841F4807101605346002241462046F7
:10215000009500F084F810B10320BDE8F88F46F038
:10216000F100216808612B4652464946204600F09E
:10217000A6F80028CDD1F0E70120EEE7F8B5044637
:10218000C06A1E460D461746042807D0012805D010
:1021900010F5803F02D0206B122804D1206801681E
:1021A00041F480710160134600224FF00111204676
:1021B000009600F054F8A0B92069B0F5804F12D015
:1021C0000620216800EAD51040F0F000086133468F
:1021D0003A460E49204600F072F838B1206C0428C7
:1021E00011D00320F8BD05F0FE0000E0E8B2216840
:1021F0000861064933463A46891F204600F05FF8D9
:102200000028EBD1F8BD0120F8BD00000800010056
:1022100070B516460D4604461AE02046FFF72BFF20
:1022200008B1012070BD681C12D025B1FFF7BAF8C3
:10223000801BA8420CD954F8400F40F0200044F80D
:10224000100900202060202161732073032070BDDD
:1022500020684069C0434007DFD4002070BD2DE9ED
:10226000F0471D4690460E460446C1F30747DDF889
:10227000209012E0681C10D02DB1FFF793F8A0EB6E
:102280000900A84209D9002044F8300F20216173C9
:10229000A07320730320BDE8F0872068012F0AD0C7
:1022A000806926EA00000004000C06D000204045AA
:1022B000E0D00020EFE74069F3E70120F7E72DE9E0
:1022C000F047984615460E4604464FF000094FF079
:1022D000200AC1F3074729E020684069C043400550
:1022E00013D42068016841F40071016021686FF423
:1022F0008060486104202064C4F8309084F83DA0D8
:1023000084F83C900120BDE8F087681C0ED02DB108
:10231000FFF748F8A0EB0800A84207D944F8309F1F
:1023200084F80DA084F80C900320ECE72068012FBE
:1023300006D0806926EA00000004000CE3D0CBE759
:102340004069F7E72DE9F04116460D46044600279F
:102350004FF0200821E04069C043C0060CD421683A
:102360006FF0100048612764276384F83D8084F88B
:102370003C700120BDE8F08125B1FFF713F8801B08
:10238000A8420AD954F8400F40F0200044F804094C
:1023900084F8018027700320ECE720684169C94375
:1023A0004906D8D40020E5E770B516460D46044628
:1023B0001AE02046FFF75FFE08B1012070BD681CDF
:1023C00012D025B1FEF7EEFF801BA8420CD954F8BD
:1023D000400F40F0200044F8100900202060202128
:1023E00061732073032070BD20684069C0430006FC
:1023F000DFD4002070BD000070B501253DA0FDF7C1
:10240000E7FF49A0FDF7E4FF3AA0FDF7E1FF534CD9
:10241000206800F5005090F8500A00F09FFE6060C0
:102420002068012200F500504FF4967190F8500A90
:1024300000F054FF606020684FF47A7100F500509E
:1024400090F8500A00F012FF60602068012100F54A
:10245000005090F8500A00F05CFF6060206841F284
:10246000707100F5005090F8500A00F09BFF60601A
:102470002068232100F5005090F8500A00F086FFF4
:1024800060602068102100F5005090F8500A00F0BC
:1024900056FF6060206800F5005090F8500A00F088
:1024A0008BFF606028B101462DA0FDF791FF6068A9
:1024B00070BD0026A6603648FDF78AFF30BFA068D1
:1024C00060B1A660206800F5005090F8500A00F056
:1024D00004FE60602FA0FDF77BFF01E0002DEDD131
:1024E000206800F5005090F8500A00F069FF606025
:1024F00070BD00002A2A2A2A2A2A2A2A2A2A2A2AB7
:102500002A2A2A2A2A2A2A2A2A2A2A2A2A2A2A2A2B
:102510002A2A2A2A2A2A2A2A2A2A2A2A2A2A2A2A1B
:102520002A2A2A2A2A2A0A005374617274696E6759
:1025300020756C747261206C6F7720706F77657294
:10254000202D20706F77657220636F6E73756D70CC
:1025500074696F6E20363575410A00000000002056
:10256000564C35334C3343585F554C505F53746170
:10257000727452616E67696E67206661696C65642A
:102580003A206572726F72203D2025640A000000B7
:1025900028A50008546172676574206465746563DA
:1025A00074656420212045786974206C6F772070F1
:1025B0006F776572206D6F64650A0A00F0B597B099
:1025C0000125962428A0FDF703FF34A0FDF700FFA6
:1025D00025A0FDF7FDFE3D4E306801F088F87060E3
:1025E000306800F03CFF7060306801F04FF87060B8
:1025F00030B1014636A0FDF7EBFE706817B0F0BDB4
:102600000027B76030BFB06838B3B760694630683C
:1026100000F04FFF70609DF8050048B19DF81A204A
:102620000AB1062A04D1BDF91810B1F57A7F07DD89
:10263000641EA4B221463148FDF7CAFE2CB108E061
:1026400096242FA0FDF7C4FE03E03448FDF7C0FE3A
:102650000025306800F000FF7060002DD2D1306896
:1026600001F03BF87060C9E72A2A2A2A2A2A2A2A76
:102670002A2A2A2A2A2A2A2A2A2A2A2A2A2A2A2ABA
:102680002A2A2A2A2A2A2A2A2A2A2A2A2A2A2A2AAA
:102690002A2A2A2A2A2A2A0A000000005374617270
:1026A00074696E672072616E67696E67206D6F6412
:1026B00065202D20706F77657220636F6E73756D66
:1026C0007074696F6E2031366D410A000000002081
:1026D000564C35334C585F53746172744D65617359
:1026E0007572656D656E74206661696C65643A200B
:1026F0006572726F72203D2025640A006CA5000887
:1027000044697374616E6365202564206D6D2C20AF
:102710005374617475732025750A000088A400083D
:1027200090F8CB230021AA2A04D190F8CA03EB2801
:1027300000D101210846704770B5274886B00024B3
:10274000016841F004010160016801F00401059194
:10275000016841F080010160016801F0800105918C
:10276000016841F001010160016801F0010105917A
:10277000016841F0020101600068184E00F002009B
:102780000590002220213046FEF707FE144D4FF43D
:102790000050CDE90005694602941248FEF72EFD6F
:1027A0001020CDE900050125694630460295FEF767
:1027B00025FD20200090CDE9015469463046039460
:1027C000FEF71CFD002211460A20FFF799F80A20A7
:1027D000FFF78AF806B070BD3038024000000240B2
:1027E00000002110000802400907090E002806DA3F
:1027F00000F00F0000F1E02080F8141D704700F198
:10280000E02080F8001470472DE9FE4F0F46897CC8
:102810005171064697F89611002082F85810106002
:10282000F978117197F812A0154683465FEA0A01FC
:1028300002D0894600241FE00121FAE704EB44029C
:1028400004EB840102EB041205EB810107EB820229
:1028500002F11408083148B9387CCDE9000802912A
:102860002A7923465146304600F05CF8B8F8161035
:10287000641CA5F85A10E4B24C45DFD342F2D901EA
:1028800096F877248A5549465B46FF240DE006EB0F
:10289000410202F50052A2F8C8307218D03202F597
:1028A0000052491C14701371C9B20429EFD3BDE85A
:1028B000FE8F0000F0B587B007460020ADF80C0091
:1028C00004900590069016A02024006816460090FB
:1028D000012920D0022920D0022006A91DF800508D
:1028E00005A8CDE9000104AB03AA2946384603F048
:1028F000C4FE00280DD1DDE905018DE84300BDF8D7
:102900000C2029463846049B06F09DFF002800D184
:10291000FC7007B0F0BD0020DFE70120DDE700001C
:10292000211E1B002DE9FC5F0646924689460020C9
:10293000DDE90C21CDE900000746984691F84A00F0
:102940000E9D31F8303F06F598745B026B608B8802
:1029500000F01F005B02AB608B895B02EB60CB8AEF
:102960002B820B8B2B80898A6980032A10D004DC90
:10297000012A0DD0022A04D10AE00D2A0AD0112A18
:1029800006D0AF74A97C51EA090206D079B122E0E1
:10299000052100E00D21A974F4E7FF20A8746F6001
:1029A00041F6FF70EF6028822880688013E01328CA
:1029B00030D008DC052829D0062829D0072809D0DE
:1029C000092806D12EE0142828D0162828D0172848
:1029D00022D0FF20A8746A4648F29101304603F0E5
:1029E000BBFEB5F910C00AF0010006EB080106EBCA
:1029F0004803E346BA46EF7406F5005201F500516C
:102A000003F50053B9F1010F12D10DE00420E1E705
:102A10000120DFE70620DDE70C20DBE70720D9E710
:102A20000B20D7E70020D5E792F8D870012F02D00D
:102A3000CDF800A0DAE0009F002F7DD0AF7C072FFB
:102A400001D0042F78D191F8D070072F07D0042F30
:102A500005D0002F70D191F8D470012F6CD196F869
:102A600077E492F8D970AEF10108474503D00EF132
:102A70007F08474560D1B3F8C8707678ACEB07079C
:102A80003FB21B2E6ED01E2E56D1B4F98E60BE42C0
:102A900007DAB4F99080B84503DD10B1B4F9A400A9
:102AA00097E07642BE4205DDB4F990607642BE42C0
:102AB00000DAA0B1B4F99260BE4204DAB4F99480AD
:102AC000B84500DD70B17642BE420EDDB4F99460C7
:102AD0007642BE4209DA40B1B4F9A80079E0B4F90F
:102AE000A20076E0B4F9A60073E0B4F99660BE42A5
:102AF00007DAB4F99880B84503DD10B1B4F9AC0039
:102B000067E07642BE4205DDB4F998607642BE4287
:102B100000DAB0B1B4F99A60BE4204DAB4F99C802C
:102B2000B84500DD80B17642BE4210DDB4F99C604C
:102B30007642BE420BDA00E058E040B1B4F9B00092
:102B400047E0B4F9AA0044E0B4F9AE0041E0B4F9BA
:102B5000A000B8424ADDB4F99E00B84246DAB4F9A2
:102B6000B20036E0B4F9B660BE4204DAB4F9B88017
:102B7000B84500DD58B17642BE420BDDB4F9B8600D
:102B80007642BE4206DA28B1B4F9CC0021E0B4F9AD
:102B9000CA001EE0B4F9BA60BE4207DAB4F9BC80DC
:102BA000B84503DD10B1B4F9D00012E07642BE4260
:102BB00005DDB4F9BC607642BE4200DA20B3B4F958
:102BC000C000B84212DDB4F9BE00B8420EDAB4F962
:102BD000D2000BEB00042C826C8804446C802C889F
:102BE000204428800120E87485F812A0A3F8C8B01A
:102BF000A87C01F8D00FE87C087182F8D890B5F96C
:102C00001000A97C19B10DE0B4F9CE00E1E700286D
:102C100008DA06494968814202DD0E20A87401E005
:102C2000A5F810A00198BDE8FC9F00001C00002042
:102C300010B5FEF7F7FDBDE81040FFF766B90000DC
:102C400030B5254893B00025016841F080510160FE
:102C5000006800F0805011902048016821F4404144
:102C600041F4004101600068022400F440401190EA
:102C7000012003901020009406940490CDE90750A1
:102C80004FF4A870099004200A9007200B90684622
:102C9000FEF790FF00B1FEE70CA90F2081E831009C
:102CA0004FF48050CDE90F0502210CA8FEF75AFE23
:102CB00000B1FEE7FEF710FF4FF47A71B0FBF1F0C0
:102CC000FFF70FF90420FFF7FFF800221146501E0E
:102CD000FEF716FE13B030BD4038024000700040D1
:102CE0001048016841F4700101600F48016841F02B
:102CF000010101600C4A00210832116002680B4B8F
:102D00001A400260031D0A4A1A60026822F48022F7
:102D1000026005480C30016002495806803908609D
:102D20007047000088ED00E000380240FFFFF6FE2B
:102D3000103000242DE9F04104460068016921F4B7
:102D40004052E168114301612068C16849F20C6298
:102D500091432369A268E5691A4363692B431A43C7
:102D60000A43C26020684169A26921F440710A43A4
:102D70004261E0696425B0F5004F974A97492068A1
:102D80004FF032083FD0884201D090427CD1FEF70C
:102D9000C1FE00EBC00101EB001061688900B0FBCF
:102DA000F1F6FEF7B7FE00EBC00101EB0010616821
:102DB0008900B0FBF1F0B0FBF5F06FF0180148436B
:102DC00006EB800108EB0110B0FBF5F000F0F00617
:102DD000FEF7A0FE00EBC00101EB00106168890066
:102DE000B0FBF1F0B0FBF5F006EB0016FEF792FE3B
:102DF00000EBC00101EB001061688900B0FBF1F746
:102E0000FEF788FED2E0884201D090423DD1FEF725
:102E100081FE00EBC00101EB001061684900B0FBCE
:102E2000F1F0B0FBF5F00601FEF774FE00EBC00117
:102E300001EB001061684900B0FBF1F7FEF76AFE94
:102E400000EBC00101EB001061684900B0FBF1F03C
:102E5000B0FBF5F06FF01801484307EB800108EB79
:102E6000C100B0FBF5F000F0F80006EB4006FEF7FD
:102E700051FE00EBC00101EB001061684900B0FB9E
:102E8000F1F7FEF747FE3CE055E0FEF72BFE00EBC6
:102E9000C00101EB001061684900B0FBF1F0B0FB2C
:102EA000F5F00601FEF71EFE00EBC00101EB00107D
:102EB00061684900B0FBF1F7FEF714FE00EBC001BA
:102EC00001EB001061684900B0FBF1F0B0FBF5F0D8
:102ED0006FF01801484307EB800108EBC100B0FB1D
:102EE000F5F000F0F80006EB4006FEF7FBFD00EB06
:102EF000C00101EB001061684900B0FBF1F7FEF77B
:102F0000F1FD00EBC00101EB001061684900B0FB6E
:102F1000F1F0B0FBF5F06FF01801484307EB8001CA
:102F200008EBC100B0FBF5F000F007002168304469
:102F30008860BDE8F081FEF7D5FD00EBC00101EB34
:102F4000001061688900B0FBF1F6FEF7CBFD00EBE5
:102F5000C00101EB001061688900B0FBF1F0B0FB2B
:102F6000F5F06FF01801484306EB800108EB011003
:102F7000B0FBF5F000F0F006FEF7B4FD00EBC00189
:102F800001EB001061688900B0FBF1F0B0FBF5F0D7
:102F900006EB0016FEF7A6FD00EBC00101EB0010EA
:102FA00061688900B0FBF1F7FEF79CFD00EBC00102
:102FB00001EB001061688900B0FBF1F0B0FBF5F0A7
:102FC0006FF01801484307EB800108EB0110B0FBDC
:102FD000F5F000F00F00A9E70014014000100140D7
:102FE0002DE9F0411E46174688460446069D1CE022
:102FF000681C1AD025B1FEF7D5F9801BA84214D958
:103000002068C16821F4D071C1602068416921F055
:1030100001014161202084F8390084F83A00002041
:1030200084F838000320BDE8F0812068016838EAA0
:10303000010004D00020B842DAD00020F3E70120DC
:10304000F9E730B5002110240D46012300F50A50A0
:1030500001EB810200EB4202491C1371C9B2D58019
:10306000A142F5D330BD30B510230B7000220323ED
:1030700048701446042502EB021001EB8000521C3C
:1030800003714371057244720878D2B29042F2D84B
:1030900030BDF8B50E4607466A46302100F022F8EA
:1030A00005469DF8000000F0100000098DF80000B2
:1030B00001D0002400E001246A463121384600F0A6
:1030C00011F89DF80010284301F00101A14201D13F
:1030D000012100E000213170F8BD0122862100F0BD
:1030E00075B90000FEB50646080A8DF804001546BD
:1030F0008DF805106424022301AA31460748009484
:10310000FEF7CEFA012302AA314604480094FEF7E6
:10311000D3F99DF808102970FEBD0000680000205A
:10312000FEB50646080A8DF8040015468DF8051010
:103130006424022301AA314607480094FEF7B0FA3E
:10314000022302AA314604480094FEF7B5F9BDF8FF
:10315000081049BA2980FEBD680000202DE9F84317
:1031600000248046012725464FF47A766A46E521F9
:103170004046FFF7B7FF04439DF80000032804D042
:10318000B54204D26D1CADB204E0002702E0002776
:1031900044F0FF04012000F017F9012FE6D0324F70
:1031A0002D257819294610F82D2C404600F00EF9EF
:1031B0006D1C0443EDB2872DF3D940228721404690
:1031C00000F004F940EA040500240127694640465E
:1031D000FFF75FFF05439DF80000012804D0B442CB
:1031E00004D2641CA4B204E0002702E0002745F0EA
:1031F000FF05012000F0E8F8012FE7D04046FFF777
:103200006CFF40EA0507404600F0DAF840EA0704A0
:1032100009220821404600F0D9F840EA04050022BE
:103220000B21404600F0D2F840EA05044FF4A062BA
:103230002421404600F0FAF840EA04058A22812160
:10324000404600F0C3F840EA050403224B21404603
:1032500000F0BCF840EA04053146404600F006F8AC
:103260002843BDE8F88300001EA4000870B5064698
:103270002DED028B0C46A1F10A009FED178A4EF648
:10328000562182B0884224D86A46DE213046FFF7B4
:1032900047FF00EE104A0546BDF80000B8EE400AB0
:1032A000C0F30900ADF800006C2168EE000A00EEE2
:1032B000100A3046B8EE400A20EE800ABCEEC00A82
:1032C00010EE102A00F096F8284302B0BDEC028BF5
:1032D00070BDFE20F9E700003D0A873F2DE9F0416F
:1032E0000D4606469AB10022462100F06FF80446CA
:1032F0002A467221304600F099F840EA04072A462F
:103300007421304600F092F83843BDE8F081202265
:10331000EAE770B50646481E0C46FE280DD80A4658
:103320005E21304600F082F80546641CA2B261219D
:10333000304600F07BF8284370BDFE2070BDF8B524
:103340000C4607466A464FF49F71FFF7CBFE0546D1
:10335000201F0C2817D80A2C02D9C7208DF800008E
:103360009DF800207F21384600F030F840EA05063D
:1033700020011038641E2043C2B28021384600F07C
:1033800025F83043F8BD45F0FE00F8BDB1F5804F9B
:1033900001D3FE2070474FF6FF7202EA81026421DA
:1033A00000F044B84A1EB2F5804F03D2CA08662125
:1033B00000F03CB8FE2070474022872100F006B89C
:1033C0000022872100F002B8FDF7F3BE1CB50B0AFE
:1033D0008DF804308DF80510642100918DF80620D9
:1033E0000146032301AA0248FEF75AF91CBD00005A
:1033F000680000200EB50B0A8DF804308DF805101A
:10340000110E8DF80610110C8DF80710110A8DF8A9
:103410000810642100918DF809200146062301AAB5
:103420000148FEF73DF90EBD680000201CB50B0AEF
:103430008DF804308DF80510110A8DF806106421FE
:1034400000918DF807200146042301AA0148FEF7E8
:1034500027F91CBD68000020C17800F0B1BB70B531
:103460000546012100F054FDD8B94FF47A720221CB
:103470002846FFF71FFAA0B948F23521284600F088
:103480008FF870B905F5E0540020A063E063206474
:103490000221284606F0B5F918B90021284600F0A7
:1034A000C3F82021E97005F50055022185F8401A7E
:1034B00070BD70B504460E4641F238402518FF2213
:1034C0005C213046FDF71AF92A460221204602F017
:1034D000FBFC324629462046BDE87040FFF794B910
:1034E0002DE9F04106460C4815460A0A0270417063
:1034F000014600240222304606F01AFD6FF00C0748
:1035000028B901222946304606F0FAFC00B13C46B3
:103510002046BDE8F0810000782B00202DE9F04125
:103520000F4D8046080A2870164669700024022252
:103530002946404606F0FCFC6FF00C0728B9022231
:103540002946404606F0DCFC08B13C4604E06878B9
:10355000297800EB012030802046BDE8F081000092
:10356000782B00202DE9F04180460C4816460A0AC7
:103570000270417001461D4600240222404606F0BA
:10358000D7FC6FF00C0728B92A463146404606F0B2
:10359000B7FC00B13C462046BDE8F081782B002006
:1035A0002DE9FE4F804600200090019002901C48BB
:1035B0001A4E0D466FF00307814201D93C4606E0E2
:1035C0006B4601AA02A9404603F08CF8044640F27B
:1035D000A4694FF0060A4046FFF7A2F800B1114E69
:1035E0004D4501D83C4616E0A5F2A460009094B980
:1035F000B042F7D8B0FBFAF30093DDE90121404671
:1036000006F0AEF9040006D1009942F64420C8F84D
:10361000101040F808502046BDE8FE8F7064080086
:1036200080969800400D030070B5064641B101290F
:1036300009D0022918D0032921D06FF0030070BDF2
:1036400001F0D1F81DE001F0D5F80446304600F055
:10365000CEFD0546304601F0ECF801462000EED1E3
:103660002800ECD1084670BD01F0C4F8044630468D
:1036700000F0BDFD0546304601F0E2F8EDE701F04F
:10368000B9F80446304600F0ABFDE2E770B50446F9
:10369000002505F0EEF900210B46FF2204EB410066
:1036A00000F50050A0F8C8306018D03000F5005088
:1036B000491C0270C9B203710429EFD304F500500C
:1036C00080F8D93080F8D830E17825B90622204634
:1036D00004F0ABFD0546284670BD70B5054606F002
:1036E00087F90446284606F0B5F9204670BD4FF428
:1036F000FA7105F030BC4FF47A7091FBF0F010B520
:10370000FDF757FD002010BD2DE9FF4FADF5017D00
:103710000024DDE98EB78A469946A04626468DF8F4
:103720000042254640F2FF1215A16846FDF715F844
:10373000C8F1000817E02CB980AA83998198FFF797
:10374000CFFE04469DF8000200EA0B00484500D178
:10375000012554EA050004D11FB13846FDF729FDC3
:10376000002446461CB9564501D2002DE3D025431E
:1037700000D1EC1F0DF5057D2046BDE8F08F00005F
:103780000000000070B5074B0D0A00241D70597031
:103790009A700322194606F0CBFB08B16FF00C04B7
:1037A000204670BD782B002070B5084B0D0A002410
:1037B0001D705970110A9970DA700422194606F0CA
:1037C000B7FB08B16FF00C04204670BD782B0020C9
:1037D00070B51C46002513460646FF2C01D9281F4C
:1037E00070BD0A480A0A00F8012B224600F8011BA6
:1037F0001946FCF70CFFA21C0449304606F098FB62
:1038000008B16FF00C05284670BD0000782B002031
:10381000401801D500207047B0F5802FFBDB014830
:1038200070470000FFFF030000B50A4600F06CFC83
:1038300011465DF804EB00F06BB900B500F01FF91C
:103840005DF804EB01F046B870B50D4600F0EBF8FA
:103850000446284600F05DFC014604EBC40000026B
:1038600080094843800970BD2DE9F0418AB00024E9
:103870001F469046109EADF814408DF8184005ABD9
:1038800004AACDE90023ADF80840ADF80C40ADF82E
:1038900010408DF81C408DF820408DF8244003AB7B
:1038A00002AA00F03AFC3480BDF90C502AE0BDF9C0
:1038B000084021E0E1B2E8B206AA00F0FDFF09AB42
:1038C00008AA07A99DF8180006F088F89DF81C10B2
:1038D00018F801009DF8241008420BD0E1B2E8B2BC
:1038E00005F0A2F80028308801D0384401E000F546
:1038F00080703080641C24B2BDF910008442D9DD90
:103900006D1C2DB2BDF914008542D0DD0AB0BDE8B2
:10391000F0812DE9F0478EB00024DDE91876DDE96D
:1039200016981D469246ADF81440ADF818408DF833
:1039300028408DF82C4005AB04AAADF80840ADF83E
:103940000C40CDE90023ADF81040ADF81C40ADF8B7
:103950002040ADF824408DF830408DF8344003AB62
:1039600002AA00F0DAFB09A908A8CDE9000107AB1B
:1039700006AA2946504600F0D0FB3C803480BDF9B1
:103980001C503EE0BDF9184035E0E1B2E8B20AAAA9
:1039900000F092FF0DAB0CAA0BA99DF8280006F0D1
:1039A0001DF89DF82C1019F801009DF834100842FC
:1039B0001FD0E1B2E8B205F037F808B1404601E0A7
:1039C0004FF48070BDF908108C420FDBBDF9101068
:1039D0008C420BDCBDF90C108D4207DBBDF91410D5
:1039E0008D4203DC39880844388002E0318808447D
:1039F0003080641C24B2BDF920008442C5DD6D1CFA
:103A00002DB2BDF924008542BCDD0EB0BDE8F087C3
:103A100000B500F008F8800849F25721484300F546
:103A20000040000C00BD01004FF0000003D04FF03B
:103A30008040B0FBF1F0704770B500014FF47A762A
:103A400090FBF6F000252C46002901DA49420DB220
:103A5000002A01DA51420CB22919490191FBF6F111
:103A6000084443431033D81703EBD0604011B0F53E
:103A7000803F02DB4FF6FF7070BD80B270BD024622
:103A80000020002904D0100300EB5100B0FBF1F03E
:103A900070472DE9F0471E00DDE9087491468A461B
:103AA00080464FF0000530D0A1791846FFF7CCFED4
:103AB000034601464046FFF7E2FFFF2800D9FF20FA
:103AC000F87119465046FFF7B8FE010A2170607080
:103AD00019464846FFF7B1FE010A21716071617A0B
:103AE0003046FFF7B1FE034601465046FFF7A5FEFC
:103AF000010AA170E07019464846FFF79EFE010AD0
:103B0000E17120722846BDE8F0876FF00E05F9E7F5
:103B1000A0FB01014FF40062801841F10001000B8D
:103B200040EA015070472DE9F043014601F29E330F
:103B300091F89CC35C784FF0020804F01F09DC7810
:103B40001B78002001F12C0201F57F7701F50A5660
:103B5000CCF3400508EA13131DB197F8783008EA52
:103B600013135FEA8C6720D5D779062F16D0157A04
:103B7000A54201D06FF01100D57A9D4201D06FF0BF
:103B80001200527B02EB820206EB42029578D27859
:103B9000A54210D091F8C31059B908E0002D04D106
:103BA000B9F1120F01D06FF01000BDE8F083FF2CC7
:103BB00001D06FF013009A42F7D06FF01400F4E7D1
:103BC000032204F032BB70B5002690F80824334677
:103BD000072A18D00024002204EB440402EB42051B
:103BE00000EB851505EB441505F58055D5F8645CAB
:103BF000002D01DD5B1CDBB2521CD2B2062AEDD3D4
:103C00000B70304670BD0124E5E710B5C37B8B74A3
:103C1000037CCB74437C0B75837C4B75C37C8B75A9
:103C2000037DCB75037AC47903EB04230B83437ABA
:103C30008B76837ACB76C37A0B77037B4B77437B88
:103C40008B778178437801EB032151810179C37827
:103C500001EB03219181417991738079D07310BD7B
:103C600030B5C47B039A8C74047CCC74447C0C7592
:103C7000847C4C75C47C8C75047DCC75047AC579C4
:103C800004EB05240C83447A8C76847ACC76C47A4F
:103C90000C77047B4C77447B8C77847BCC77817862
:103CA000447801EB042159810179C47801EB0421A6
:103CB0009981417999738179D973C18A5180018B36
:103CC00091800078907130BD10F8102F0A70427802
:103CD0004A7082788A70C278CA7002790A71427911
:103CE0004A7182798A71C279CA71027A0A72427AF9
:103CF0004A72827A8A72C27ACA72027B0A73427BE1
:103D00004A73827B8A73C27BCA73027C0A74427CC8
:103D10004A74827C8A74C27CCA74027D0A75427DB0
:103D20004A75827D8A75C27DCA75027E0A76427E98
:103D30004A76827E8A76C27ECA76027F0A77427F80
:103D40004A77827F8A77C07FC87770472DE9F04F26
:103D500000249C70CE78DE70DC8104265E7401261F
:103D60009E74B1F810908F8A4E8A254603EB440C5E
:103D7000641CE4B2ACF80450052CF7D303F114042E
:103D80004FF0000C4FF4803B4FF6FF7AAE4684F8BC
:103D900000C0C4F804E091F803807546B8F1000F44
:103DA00006D191F8018008F01F08B8F1090F12D070
:103DB00091F8018008F01F0884F84A802572657226
:103DC000A572E57225736573BCF1000F06D0BCF1D6
:103DD000010F55D12FE04FF01308EDE78D78072D37
:103DE00025D0082D25D08D88E582A4F83090CD8A85
:103DF00065860D89A5864D896D015D4500D35546C3
:103E0000A5878D89A4F84050CD89454305F5806587
:103E10004FEAE57805EB5855ED12A4F84650556881
:103E2000A5629568E562D568A561156827E0E68218
:103E3000DBE7E782D9E70D8BE5824D8B2586A4F879
:103E400032A08D8BA586CD8BD0466D015D4500D30C
:103E50004546A5870D8CA4F840504D8C454305F58B
:103E600080654FEAE57805EB5855ED12A4F8465009
:103E70005569A5629569E562D569A56115696562AF
:103E8000B4F8405024F83E5F0CF1010CA580258960
:103E9000E58065810CF0FF0C0E34BCF1020FFFF4DD
:103EA00076AF83F810E04878724600F01F000328D0
:103EB00009D004DC012806D0022807D103E00D2830
:103EC00001D0112802D1187483F85E20BDE8F08F6C
:103ED00090F83F2081F88120B0F84220A1F8862098
:103EE000027A0A72828FA1F87E2090F83E2081F833
:103EF0008020B0F84020A1F88220B0F84420A1F83A
:103F00009C2002788A70427A4A7240684860704702
:103F10002DE9FE43044642F2E000894600252618BA
:103F20002F466221204604F0A0FB042070744FF05D
:103F3000000886F81280102186F8441286F845821F
:103F400007EB071006EB80007F1CC0F88082C0F8EA
:103F50008482A0F88882FFB280F88A82102FEFD383
:103F600086F8881686F8898686F89B1786F89C87D7
:103F70000021C1EBC10006EB8000491CC0F8A087FE
:103F8000C0F8A487C0F8A887C0F8B487C9B2C0F841
:103F9000B8871029EDD384F800801E21617084F861
:103FA000028084F80380012020716071A0714FF4B9
:103FB0007A71A1604900E16043F2C8212161642166
:103FC00061614FF42061218304F5805684F82180DB
:103FD000032086F81A0386F81B8340F2DB71A4F8ED
:103FE000B81040F2C3712046A4F8BA1004F084FC63
:103FF00041F648424FF49061A018FCF787FB86F821
:10400000448C86F8458CB9F1000F04D0F5BB2046EE
:1040100005F039FB0546CDBB04F50C7004F046FBFA
:10402000050041D104F5107004F051FB05003BD1AF
:1040300004F5317104F1480004F088FC050033D127
:1040400004F52A7004F0AEFC05002DD104F53A7099
:1040500004F019FB050027D104F53F7004F0BDFC06
:10406000050021D194F8D40204F5137104F011FA7B
:10407000050019D104F5237004F0ECF9050013D103
:1040800004F5987004F04FFB050000E00CE00BD144
:1040900004F10C0007C88DE807002046228B6178E8
:1040A000A36805F0D0FB054604F57F7218210020B7
:1040B00004F027FA04F595621821002004F021FA93
:1040C00004F254520C21002004F020FC204605F09C
:1040D000F7FD204600F032FB204604F04FFD284655
:1040E000BDE8FE837F2807D9C0F1FF0303F0070373
:1040F00008330B70803804E000F007030B70C0F148
:104100007F00C00810707047C1B2000A8140481C8F
:1041100070474000801CC0B270472DE9FF47002661
:10412000DDE90C87154689461C468DF800608DF840
:1041300004608DF808608DF80C606A4601A9FFF7ED
:10414000D1FF03AA02A9484600F027F89DF808000D
:104150009DF80020411CB2EB5101298000D52E8032
:1041600029880F22084400B2A8F800000F2801DDBA
:10417000A8F800209DF80C009DF80430411CB3EB1A
:104180005101218000D526802188084400B2388062
:104190000F2800DD3A80BDE8FF870309137000F0A7
:1041A0000F0008707047002105F02FBB002105F0BB
:1041B00044BB424310B5100B4B431909A0FB01341B
:1041C000002202FB014100FB0211180B40EA0150E2
:1041D000090BD0F1FF338A4101D24FF0FF3010BDFF
:1041E00000F58050002180F8CD130846704700216B
:1041F00000F58050012280F8CD23084670472DE954
:10420000FC4F814615461C4600200B9A41F2742350
:1042100009F5317609EB03070190012A0FD0A1605F
:10422000B6F90C20B6F90E1095F82E30B0684FF0A4
:10423000010B43B195F82830012B04D01DE0A8886C
:104240000844A060ECE73B68BBB169464846FFF70D
:10425000BAFC9DF8000008B98DF800B099F8B401D7
:10426000012801D0386804E09DF8000007EB8000C9
:104270004068B7F90420B7F9061095F82E301343BB
:1042800003D1637943F00103637195F82E300B433A
:1042900003D1637943F00203637100B9012095F8FB
:1042A0002E30012B18D09301B3FBF0F30FFA83FCEF
:1042B0008B01B3FBF0F3A5F82AC01BB2AB8595F8D0
:1042C00028804FF4803E4FF6FF7AB8F1000F08D0F7
:1042D000B8F1010F12D025E0B5F92AC0B5F92C309C
:1042E000EDE7A16801FB0CF08011704500DB504642
:1042F000A0815943881112E0504612E0A368C31A06
:10430000D81703EB1070001102EB8000704500DB42
:104310005046A081502093FBF0F001EB80007045E7
:10432000EADAE0816878012843D10C98012845D069
:1043300084F806B069464846D4F80880FFF743FC85
:1043400099F8BC219DF800004FF0000C083708B325
:1043500099F8B40101281DD1B8F1000F1AD03068C6
:104360004FF47A714843B0FBF8F012B1296C8142E6
:1043700002D884F806C01FE0B8FBF2F3002108461B
:10438000521E03E0194402C7401CC0B29042F9D348
:10439000C7F80080A07960B1A0683060A089B080C3
:1043A000E089F080A878012803D185F801C085F85C
:1043B00002C00C98012801D084F800B00198BDE833
:1043C000FC8F2DE9F04742F2E001451841F2CC3173
:1043D000471841F210414618D5E95A104FF0000A2B
:1043E000D5F860410144D14605F5A2750CB94FF4EA
:1043F0007A744FF47A72A1FB02084FF0000C09FBAB
:10440000028201FB0C2122466346FBF745FF4FF475
:104410007A72A0FB02C801FB0281002300FB03119A
:1044200060462246FBF738FFEA8ABC684D46544393
:1044300054EA050201D1012400254FF47A32A0FB91
:10444000027C01FB02C1002300FB031122462B4624
:104450003846FBF721FF4FF47A32A0FB027C01FBC8
:1044600002C1002300FB031122462B463846FBF70E
:1044700013FF7060022801D2022070605046BDE830
:10448000F08700002DE9F14F84B0002003900498DC
:1044900042F2E00100EB010841F2CC31451841F253
:1044A0001041441842F2702100EB010900268346B6
:1044B00000F53170CDE90060B246374602A9584692
:1044C000FFF781FB9DF8080018B19BF8B4010128A3
:1044D00002D001208DF80800404600F093F9686A88
:1044E00030B19DF808104843B8F87811884201D9D6
:1044F000012200E000229BF8B401012805D19BF8BD
:10450000BC019DF80810884201D1012000E0002084
:104510002978012907D132B198F88E21092A02D1D0
:1045200008B1012200E0002298F88E014FF0000B44
:1045300009283AD0012938D1022698F8121016E03D
:1045400007EB470000EB071308EB830090F85E30A1
:10455000092B0AD1B0F95A00AB8F984201DC002632
:1045600003E0022E01D1012600977F1CFFB2B94261
:10457000E6D8022E00D100260098012E00EB400163
:1045800001EB001108EB8100B0F848000DD14FF4A9
:104590007A71A0FB0101490241EAD0512B6B400224
:1045A000C01A71EB0B0100D30026002A7ED0C4F89C
:1045B00010B00498FFF705FF0198D8F87C11006847
:1045C0008700A888CA1B4FEA800812EB080000D5B4
:1045D0004042AA69824208DAA7EB0800884201DA61
:1045E000012000E0022089F802002068401C2060C1
:1045F0006A69904205D9012089F804004FF0020A47
:1046000006E0D4E90220511840EB0B00C4E9021087
:10461000D4E90020824201D24FF0010AD4E902011C
:104620000023FBF739FEC21B12EB080100D54942FB
:10463000BAF1000F10D1EA698A4208DCA7EB080240
:10464000824201DA012200E0022289F80320EA69AD
:104650008A4201DD4FF0020A5F4689F801B0BAF1E3
:10466000000F0BD1296A49B19DF8082051438142BE
:1046700004D2012189F801104FF0020A297C002997
:10468000E96803D0814203D2084601E08142FBD8A9
:104690008108B1F5802F00D32749BAF1000F4FF000
:1046A00001000CD000904B462A4600E015E0019036
:1046B0000498FFF7A4FDBAF1020F07D00DE0CDE991
:1046C00000074B462A460498FFF799FD002044F85E
:1046D000087B014684E88300083C0027012E26D190
:1046E0002069401C2061696B884200D20127A96BB8
:1046F00057B10120CDE900B04B462A460498FFF798
:104700007EFD022F0CD012E0CDF800B04B462A46B9
:10471000CDF804B00498FFF772FD022089F800007C
:104720000020C4E90200C4F800B0C4F810B0039837
:1047300005B0BDE8F08F0000FFFF030070B542F246
:10474000E0020146831800F58050012280F8CC2356
:1047500080F8CD23002280F8CE23A0F8D023642453
:10476000C0E9F54280F8DC23C824C0F8E0434FF4E8
:104770000064C0F8E4434FF49A74C0F8E8434FF47F
:104780002054C0F8EC438024C0F8F04380F8F423B0
:104790006400A0F8F643A0F8F84380F8FA234FF03D
:1047A0005C74C0F8FC432824C0F800444FF4CD7476
:1047B000C0F804444FF46174A0F8084400F5737025
:1047C0004FF4FA64C0E9104241F2184600258264B1
:1047D000755001F58051C1F81C544265184600F02F
:1047E00011F8104670BD00F58050002180F8CC1300
:1047F00008467047002100F58050012280F8CC2344
:1048000008467047002180F8901180F8911180F8D7
:10481000921180F8931180F8941180F8951180F826
:104820009611C0F89811A0F89C11A0F89E110846A6
:10483000704700F58050002180F8CE13084670477D
:10484000002100F58050012280F8CE2308467047F1
:10485000F0B5024602F50A5492F83930B2F83653F0
:1048600003EB8302002004EB42074FF6FF7CF88045
:10487000B1F84A3001228E7C0CE002EB420404EBDA
:10488000021401EB8404B4F84A409C4200D9234648
:10489000521CD2B29642F0D82BB1A903B1FBF3F56A
:1048A000B5F5803F00D36546FD80F0BD012104F0E1
:1048B000ACBF012104F0C1BF072805D9C0F10F002A
:1048C00000EBC100803003E0C1F10F0100EBC1003B
:1048D000107070470022114648B1401E02E04008A7
:1048E000491C89B2020AFAD161F31F2082B2104634
:1048F000704700EB0110107070472DE9F04103463E
:104900004FF47A3583FB057614464FF000000A0019
:104910000146054604D0002338463146FBF7BCFC6F
:1049200074B1C90241EA5051C0026A084FEA340327
:10493000C018514122460023FBF7AEFCBDE8F081D0
:10494000C002FBE72DE9FF4F83B00020DDE9104BEB
:1049500002906083606120832061E0612062A08416
:10496000E084ABF80000B3F886001D4616460F46FB
:10497000F0B3D5F88810D9B3FFF755F8D5F88830DB
:104980004FF4006210215B1C7C35FFF712FC2060A5
:10499000AA6A0146104604F0EEFD208335F8281B74
:1049A000226855F8A409FFF7A8FF6061F18AA18188
:1049B000F18AB0F1000961831FD0308B4FF47A7116
:1049C000A0FB01284FF0000A0AFB018100FB0A103E
:1049D000010310034FEA590341EA1251C01841EB99
:1049E0000A014A465346FBF757FCF38AC31A00E014
:1049F00003E071EB0A0100D260833888B0F1000A4D
:104A00007ED0B5F886000028FAD0F888002877D044
:104A1000D5F88800002873D079884FF47A32A1FB4A
:104A200002084FF0000909FB028201FB09214FEA4D
:104A30005A02801841EB090152464B46FBF72CFC09
:104A4000000120610190206861698246A1FB003C61
:104A500009FB00C001FB0901608B0090A0FB03C8AB
:104A600009FB038200FB01204FF480211CEB0101B4
:104A700040F10000C90C41EA4031C20C4FF4FA7019
:104A8000081842F100014FF47A720023FBF704FC8E
:104A90006FF07F4300221B1A8A4101D26FF07F40E2
:104AA000E06101998146A1FB0A3C002202FB0AC099
:104AB00001FB02000099A1FB03C802FB038201FB7A
:104AC00000204FF480211CEB010140F10000C90CD3
:104AD00041EA4031C30C3A890398A0FB022CA2FBA7
:104AE00001080CFB018102FB0312F988CB011818A5
:104AF00042EB516C4FEA11634FEA0122614600E03C
:104B000040E0FBF7C9FB4FF4FA72801841F1000155
:104B100052000023FBF7C0FB6FF07F4300221B1AFB
:104B20008A4101D26FF07F4020624FEA092003F0F2
:104B30008BFF0146707872684843E169914204D264
:104B4000511A0902884200D208463378BA88216A8D
:104B500000F01CF8E084B5F88200216A33784843FD
:104B600008300109B068BA88000200F00FF800B2FE
:104B7000A084B4F92610884202DAABF8000001E004
:104B8000ABF80010029807B0BDE8F08F70B51C4676
:104B9000800003FB040015460E4603F055FF044455
:104BA000300103F051FF6843002C03D02044610022
:104BB000B0FBF1F070BD10B5044600201821617003
:104BC0002070A0702071A0600146E060221811746E
:104BD00082F8281082F8401004EB8002401C42F852
:104BE000B81FC0B2116662788242EFD884F878119B
:104BF000082084F8790184F87A1104F527721821C5
:104C0000002003F07EFC04F552721821002003F00E
:104C100078FC04F57D721821002003F072FC04F585
:104C200094621821002003F06CFC04F24C5218210D
:104C3000BDE81040002003F064BC2DE9F0471546A4
:104C400081460C460026AC222846FBF725FDB246DD
:104C500005E005EB8601761CF6B2C1F818A0687A6B
:104C6000B042F6D84946204600F09AFF014699F82E
:104C70000A00A77AB84200D2074600202BE000299C
:104C800008DB41FA80F294F90A3092FBF3F603FB59
:104C9000162208E094F90A2041FA80F3134493FBAA
:104CA000F2F602FB163252B202F0FF0804EB880261
:104CB00009EB800C9369DCF81860B34202DD9B1BA2
:104CC000936101E0C2F818A005EB8803DCF8182016
:104CD000401CC0B29A61B842D1D3BDE8F0872DE93B
:104CE000FF4F81B00746DDE90FA400200E9D064668
:104CF0000090687A6070287A2070A87AA070D5F841
:104D0000A400A0609B46914695F88400FFF701FA45
:104D1000E070D5F8A4000022A0FB073CC11701FBFE
:104D200007C100FB02114FF40060181841F10001A7
:104D30004FF480520023FBF726FB80462EE005EB64
:104D40009600877C002F27DD9AF80A00B04209D927
:104D5000BBF1000F06D00AEB8600816901EB080069
:104D6000784301E007FB08F003F06EFE07EBD77114
:104D700000EB610090FBF7F0029948430830C1173F
:104D800000EB117008EB20104946484500DA084650
:104D900004EB86018865E060761CF6B2A87AB04222
:104DA000CDD800232371287A012215E005EB80017C
:104DB00004EB80068969B66DB14204EB000106DDA3
:104DC0000A7481F828202179491C217102E00B74B2
:104DD00081F82830401CC0B2A97A8142E6D80098F8
:104DE00005B0BDE8F08FF0B5002780F8787139463E
:104DF0003D46C47819E04A1CB2FBF4F3164604FBA6
:104E000013228378D2B28B420ED993420CD9431825
:104E100093F8283043B9024492F82820012A03D19C
:104E200015B980F878110125F1B28C42E3D83846E3
:104E3000F0BD30B5002590F878112CE0B1FBF3F20D
:104E400003FB1212491CB1FBF3F403FB1413847827
:104E5000DBB294421ED99C421CD9024492F82840ED
:104E60004CB9034493F82830012B04D190F87A31DF
:104E70005B1C80F87A3190F87A4190F879319C4245
:104E800001D980F87A3192F828300BB190F87A3154
:104E900082F84030C9B290F87821C3781A448A4227
:104EA000CCD8284630BDF0B5C1780027491EC1F3E3
:104EB000460690F878215BE0B2FBF4F1531CB3FB9B
:104EC000F4F504FB112104FB15348578E4B28D421E
:104ED0004DD9A5424BD9451895F84010F1B90119A3
:104EE00091F84010E9B3491E90F879C1C9B28C45D8
:104EF0003DD901EBC10100EB81014FF0FF0C81F8BE
:104F00007C2181F87D3181F87EC14FF0000C81F861
:104F10007FC181F880C195F8401011B3011991F853
:104F20004010F1B995F8401090F87941491EC9B286
:104F30008C421CD901EBC10100EB810181F87F217A
:104F400081F8803191F87D41D2B2121B521C81F858
:104F5000812191F87C219A1A521CD2B281F88221C7
:104F600000E004E001F5BE71B24200D98E71DAB200
:104F700090F87811C478214491429DD83846F0BD0C
:104F8000F0B5034603EBC30302EB83030020C3F831
:104F90008801C3F8840193F87C4193F8806103F59C
:104FA000BE7310E0D578B4FBF5F705FB174501EBB0
:104FB0008505DF68AD69641C3D44DD609D689768C8
:104FC000E4B23D449D60A642ECD2D3E90221891AA5
:104FD0001961F0BD2DE9F04100EBC00002EB800546
:104FE000069E14461F464FF00008AC22304605F5D9
:104FF000BE75FBF751FB94F8780111E02A788242E4
:1050000002D82A79824209D2B0FBF1F201FB1201E7
:10501000B27A8A4202D906EB81018F61401CC0B28C
:1050200094F87821E1780A448242E7D84046BDE806
:10503000F0812DE9FF4F91B04FF00009DDE91EA589
:10504000229CDDF880C0CDF82090CDF82490CDF8DA
:1050500028909B46CDF82C90CDF83090CDF8349028
:10506000CDF838904FF6FF76CDF83C90DAB3B0FB30
:10507000F2F102FB11080CA809AFCDE900700BABEF
:1050800062465946404600F0ECF90AA8CDE90070A6
:1050900008AB2A465946404600F0E3F9BAF1000F42
:1050A00009D00FA90EA8CDE900010DAB5946404625
:1050B000219A00F0D6F9B5F88600D5F8A4100F9A19
:1050C00007940492CDE905100BAF97E80F00039207
:1050D0008DE80B0008AF129897E80E0000F0F4F985
:1050E0000F3007D007E0FFE726806FF00E0015B005
:1050F000BDE8F08F26804846F9E72DE9FC4700EB34
:10510000C00003EB80041E4694F87E019046894659
:1051100004F5BE74FF2801D10120A070F278C1B25D
:10512000B1FBF2F002FB1013207825791844401AE5
:105130002B44591A00B20FB2391A0DB2032D00DDFB
:10514000032504F11401CDE90081411909B24B4650
:1051500000F022F950B904F11C00CDE90080781B61
:10516000F27800B24B46394600F016F9E2696169FF
:10517000914201D96261E161D4E90521914200D2F5
:105180006161D4E90612914200D9E161BDE8FC8772
:105190002DE9F047804691F87A018AB00F464FF02A
:1051A000000AE946012829D90020012420E004EB67
:1051B000C40107EB810505F5AC7605F5BE75B8F1C0
:1051C000020F1FD0B169AA6991420FD92422294642
:1051D0004846FBF761FA242231462846FBF75CFA81
:1051E000242249463046FBF757FA0120641CE4B2FA
:1051F00097F87A11A142DAD80028D5D10AB05046E2
:10520000BDE8F08731692A699142DFDBEEE7F0B54E
:10521000DDE90654059E2070002060602878207229
:1052200068786072A878A072E878E07228792073B4
:105230006879607328792F78C01B401C2074B6F8F9
:105240009C70A782288CA087A88AE087288B80B2D0
:10525000A4F84000B5F81CC0A4F842C0D5F80CC0B2
:10526000C4F828C0D5F810C0C4F82CC0D5F808C0C0
:10527000C4F824C0D6F888C0C4F818C04FF0130C86
:1052800084F84AC033B12D8CB5EB431F02D90623F5
:1052900084F84A3009028F4202D9791A89B200E0B3
:1052A0000021B6F89C30884203EB022292B201D36F
:1052B000904202D9052084F84A00F0BD2DE9F0475C
:1052C0000025DDE90846E0816182A261E3826FF09A
:1052D0000E0001B905460AB115B139E0054637E0BF
:1052E0000846FEF7A0FBA7694FF400687F1C8146C3
:1052F000E1893B464246FEF75CFFE061207C3B468D
:10530000010142464846FEF754FF2062E169E06A27
:1053100004F031F92086216AE06A04F02CF96086F5
:10532000D4E9081004F027F9A086218E012E01444B
:1053300001D9B1FBF6F1E28A4FF6FF73062004F0C3
:105340003BF9E086E18AE269E06AFFF7D6FAA063FA
:105350002846BDE8F0877CB51446CDE900010D462E
:105360000646E18F928A34F8120F002304F0B9F850
:105370006086CDE900656288E18D2088002304F015
:10538000B0F8A086CDE900656288218E20880023D0
:1053900004F0A7F8E0867CBD2DE9FF4F8E464FF064
:1053A000000181B00C460D460E46894600910F99CA
:1053B0005FEA020ADDF838B04FF6FF720A6033D1B7
:1053C00034E0002803DA00EB0A0109B203E090FBA5
:1053D000FAF20AFB1201182924D20BEB8101DBF847
:1053E000A4308A69D117D21A61EBE371049B1BB117
:1053F000002901DA00221146A4184D41C317DF022B
:10540000C3024FF4806C13EB0C03A3FB02C847EA02
:10541000505747F1000707FB028203FB01211CEBF9
:1054200009094E41401C00B27045CADD0021084602
:10543000091BA84111DA0222002320462946FAF767
:10544000A2FF10EB0900714122462B46FAF79BFFA1
:10545000002900DA00200F990860009805B0BDE827
:10546000F08FF0B50024DDE9057602EB800C1C60BE
:10547000DCF818C0C7F800C0012505EB410734600F
:105480001FE0957A00EB040CAC44ACEB010C9CFBE8
:10549000F5FE05FB1EC5EDB28C4207D202EB850579
:1054A000D3F800C0AD6965441D6007E006D902EB82
:1054B0008505D6F800C0AD696544356004F1010486
:1054C000E4B2A742DDD8F0BD2DE9FF5F9046DDE9EB
:1054D0001390159A8A464FF6FF711F466FF00E0B18
:1054E000118000287DD0FEF793FA06460021484639
:1054F000C14502D9B0EB080501E0B8EB000561EB4E
:10550000010450463A46BA4501D9034601E0134624
:105510005246B3EB020C61EB010055EA0402E1D004
:10552000109A8A4618EB020241EB010712EB0902BE
:1055300047EB0A0790466FF07F4300219A1AB94162
:1055400001D2984600276146A1FB012300FB0C33E2
:105550000CFB00300102100241EA12616FF07F4241
:10556000D0F1FF338A4102D24FF0FF30010A2A46C0
:105570002346FAF791FE2A462346FAF78DFE7F224C
:10558000D0F1FF338A4102D24FF0FF307F21A0FBE0
:1055900008C301FB083100FB07180F9A1299574600
:1055A00052180E994AEB07005118119A78418A183F
:1055B00078416FF07F4300219B1A814102D26FF046
:1055C0007F4200200102100241EA126110EB0C0040
:1055D00041EB08016FF00042D0F1FF338A4104D261
:1055E00000E077E04FF0FF3041080022D0F1FF33B8
:1055F0008A410BD22A462346FAF74EFE0246A2FB08
:10560000060301FB063102FB07110AE0A0FB06C2FC
:1056100001FB062100FB07112A4623466046FAF7E4
:105620003BFE6FF00042D0F1FF338A4102D24FF0CF
:10563000FF3041080022D0F1FF338A410ED22A46C2
:105640002346FAF729FE820842EA8172A2FB06038A
:10565000890801FB063102FB07110EE0A0FB06C220
:1056600001FB062100FB071160462A462346FAF794
:1056700013FE800840EA817089086FF00042D0F183
:10568000FF338A4102D24FF0FF304108800840EAE0
:10569000817089080022D0F1FF338A4102D24FF095
:1056A000FF300021009B5A0EDB01A3FB034502FBE8
:1056B000035503FB0252001951410022D0F1FF3380
:1056C0008A4101D24FF0FF3003F0BEF915994FF037
:1056D000000B088004B05846BDE8F09F2DE9FF4F4D
:1056E00089B00024179F9A4615468B46A14607F5B8
:1056F000277838461A9EFFF75EFAAC22514640469C
:10570000FAF7CAFF9AF8000030709AF8010070703A
:105710009AF80200B0709AF87B00F0700020F081D7
:1057200004217174B07406EB4901888009F101010C
:1057300001F0FF09B9F1050FF5D3404601F0B2FBC6
:105740006879414601F0D9FC404601F0BAFC404678
:1057500002F00BF895F8281007F55270079021B168
:10576000024641461698FFF768FAA9798BF80110AE
:105770004FF0000974B906EB4900001D1999CDE9F5
:1057800000100BEB4900434680895A460999FFF700
:10579000D9F8044609F1010000F0FF09B9F1050F3D
:1057A000E8D3E4B90798CDF80080CDE9010795F872
:1057B00028309BF801102889EA68FFF790FA040066
:1057C0000DD13846FFF70FFB040008D13846FFF72C
:1057D00030FB040003D13846FFF765FB044607F5AC
:1057E00094600690AC304FF0000907F57D7B059082
:1057F0005EE009EBC90007EB800000F5BE7AE4BB70
:105800003A4641464846FFF7BBFB04004CD1CDF871
:1058100000B03A4641464846D8F8A430FFF7DAFBD4
:10582000040041D10698009000233A46414648467C
:10583000FFF7D0FB040037D10598009000233A46CB
:1058400048460799FFF7C6FB04002DD13A46594652
:105850004846189B00F083F8040025D1298A3B466E
:105860004846189A00F0CBF804001DD1DDE9051276
:105870000AF12000CDE9031000E015E0CDE901B206
:1058800095F8280000909AF80630FA78297E9AF860
:105890000200FFF7CEFB040006D13B464246012141
:1058A0004846FFF72AFC044609F1010000F0FF0911
:1058B00097F87A1149459CD824B968783946FFF79A
:1058C00067FC0446002041E009EBC90096F812C0CD
:1058D000717C07EB800000F5BE708C4533D2016906
:1058E0006A6991422FDD8178FF292CD20CEB4C01A3
:1058F00001EB0C1106EB810101F1140A04BBCDE9A7
:105900000080CDF808A06B8B95F8212095F8201029
:105910006046FFF77CFC1B98CDE900A0B8F87C300E
:10592000B8F88610B8F88200D8F88820FFF7C6FCCF
:10593000040005D1B5F91C10E88B5246FFF70BFDAA
:10594000B07C401CB07409F10100C0B297F87A1124
:1059500081464945B8D80DB02046BDE8F08F2DE905
:10596000F04786B04FF0000900EBC00002EB800664
:10597000CDF80890CDF80C90CDF810905078587074
:10598000107818709078987096F87C511F461446DD
:105990008A4606F5BE762BE0E07802ABB5FBF0F167
:1059A00000FB115804A903A8CDE90001B1795246C2
:1059B0004046FFF756FD07EB8800029941600399C6
:1059C00041660499C0F8C410DDE902121144A268CE
:1059D000049B1A44891AC0F82411DDE9031211440A
:1059E000A268029B1A44891A6D1CEDB2C0F884119A
:1059F0003079A842D0D206B04846BDE8F0872DE9FC
:105A0000F04F87B0002100EBC00003EB8007069148
:105A100097F87C011E4615464FF0010B8A4607F5A4
:105A2000BE7742E0F278B0FBF2F102FB1104411CB8
:105A3000B1FBF2F3894602FB1311CAB2B178A1425D
:105A400031D991422FD905EB8401D1F82431002BB3
:105A500005D031DBD1F88421002A08DA03E0D1F83F
:105A60008421002AF6D1291981F8E4A11BE02B1921
:105A70000DF1080E83F8E4B1B87007F1180396F839
:105A800003C0D6F80880524605938EE80411CDF87D
:105A900000A0CDF804A0D1F8C4304A6E496800F0E7
:105AA0001AF80F30DFD009F0FF0039798142B9D8F8
:105AB000069807B0BDE8F08FD1F88431002BD2DB17
:105AC00005EB8202D2F82431002BCCDBD2F8842102
:105AD000002ACCDBC7E72DE9F05F82460CA8DE1771
